{
  "_format": "hh-sol-artifact-1",
  "contractName": "Controller",
  "sourceName": "contracts/Controller.sol",
  "abi": [
    {
      "inputs": [],
      "stateMutability": "nonpayable",
      "type": "constructor"
    },
    {
      "stateMutability": "payable",
      "type": "fallback"
    },
    {
      "inputs": [],
      "name": "deposit",
      "outputs": [
        {
          "internalType": "bool",
          "name": "",
          "type": "bool"
        }
      ],
      "stateMutability": "payable",
      "type": "function"
    },
    {
      "inputs": [],
      "name": "getAddress",
      "outputs": [
        {
          "internalType": "address",
          "name": "",
          "type": "address"
        }
      ],
      "stateMutability": "view",
      "type": "function"
    },
    {
      "inputs": [],
      "name": "getBalance",
      "outputs": [
        {
          "internalType": "uint256",
          "name": "",
          "type": "uint256"
        }
      ],
      "stateMutability": "view",
      "type": "function"
    },
    {
      "inputs": [],
      "name": "getPool",
      "outputs": [
        {
          "internalType": "address",
          "name": "",
          "type": "address"
        }
      ],
      "stateMutability": "view",
      "type": "function"
    },
    {
      "inputs": [],
      "name": "getToken",
      "outputs": [
        {
          "internalType": "address",
          "name": "",
          "type": "address"
        }
      ],
      "stateMutability": "view",
      "type": "function"
    },
    {
      "inputs": [],
      "name": "getTokenBalance",
      "outputs": [
        {
          "internalType": "uint256",
          "name": "",
          "type": "uint256"
        }
      ],
      "stateMutability": "view",
      "type": "function"
    },
    {
      "inputs": [
        {
          "internalType": "address",
          "name": "receiver",
          "type": "address"
        },
        {
          "internalType": "uint256",
          "name": "amount",
          "type": "uint256"
        }
      ],
      "name": "mintToken",
      "outputs": [],
      "stateMutability": "nonpayable",
      "type": "function"
    },
    {
      "inputs": [
        {
          "internalType": "string",
          "name": "h",
          "type": "string"
        }
      ],
      "name": "tradeImage",
      "outputs": [
        {
          "internalType": "bool",
          "name": "",
          "type": "bool"
        }
      ],
      "stateMutability": "nonpayable",
      "type": "function"
    },
    {
      "inputs": [
        {
          "internalType": "uint256",
          "name": "amount",
          "type": "uint256"
        }
      ],
      "name": "transferToOwner",
      "outputs": [
        {
          "internalType": "uint256",
          "name": "",
          "type": "uint256"
        }
      ],
      "stateMutability": "payable",
      "type": "function"
    },
    {
      "stateMutability": "payable",
      "type": "receive"
    }
  ],
  "bytecode": "0x608060405234801561001057600080fd5b5060405161001d90610128565b604051809103906000f080158015610039573d6000803e3d6000fd5b506000806101000a81548173ffffffffffffffffffffffffffffffffffffffff021916908373ffffffffffffffffffffffffffffffffffffffff16021790555060405161008590610135565b604051809103906000f0801580156100a1573d6000803e3d6000fd5b50600160006101000a81548173ffffffffffffffffffffffffffffffffffffffff021916908373ffffffffffffffffffffffffffffffffffffffff16021790555033600260006101000a81548173ffffffffffffffffffffffffffffffffffffffff021916908373ffffffffffffffffffffffffffffffffffffffff160217905550610142565b6118df806111ec83390190565b611c0580612acb83390190565b61109b806101516000396000f3fe60806040526004361061008a5760003560e01c806338cc48311161005957806338cc48311461015157806379c650681461017c57806382b2e257146101a557806387c1ed12146101d0578063d0e30db01461020057610091565b8063026b1d5f1461009357806312065fe0146100be57806321df0da7146100e95780632ad3163c1461011457610091565b3661009157005b005b34801561009f57600080fd5b506100a861021e565b6040516100b59190610d80565b60405180910390f35b3480156100ca57600080fd5b506100d36102c4565b6040516100e09190610e98565b60405180910390f35b3480156100f557600080fd5b506100fe6102ea565b60405161010b9190610d80565b60405180910390f35b34801561012057600080fd5b5061013b60048036038101906101369190610c46565b610391565b6040516101489190610dfb565b60405180910390f35b34801561015d57600080fd5b50610166610686565b6040516101739190610d80565b60405180910390f35b34801561018857600080fd5b506101a3600480360381019061019e9190610be1565b61068e565b005b3480156101b157600080fd5b506101ba61079d565b6040516101c79190610e98565b60405180910390f35b6101ea60048036038101906101e59190610cc8565b61084f565b6040516101f79190610e98565b60405180910390f35b610208610926565b6040516102159190610dfb565b60405180910390f35b60008060009054906101000a900473ffffffffffffffffffffffffffffffffffffffff1673ffffffffffffffffffffffffffffffffffffffff166338cc48316040518163ffffffff1660e01b815260040160206040518083038186803b15801561028757600080fd5b505afa15801561029b573d6000803e3d6000fd5b505050506040513d601f19601f820116820180604052508101906102bf9190610bb8565b905090565b60006102ce610686565b73ffffffffffffffffffffffffffffffffffffffff1631905090565b6000600160009054906101000a900473ffffffffffffffffffffffffffffffffffffffff1673ffffffffffffffffffffffffffffffffffffffff166338cc48316040518163ffffffff1660e01b815260040160206040518083038186803b15801561035457600080fd5b505afa158015610368573d6000803e3d6000fd5b505050506040513d601f19601f8201168201806040525081019061038c9190610bb8565b905090565b60008060008054906101000a900473ffffffffffffffffffffffffffffffffffffffff1673ffffffffffffffffffffffffffffffffffffffff1663e802bf7d846040518263ffffffff1660e01b81526004016103ed9190610e16565b60006040518083038186803b15801561040557600080fd5b505afa158015610419573d6000803e3d6000fd5b505050506040513d6000823e3d601f19601f820116820180604052508101906104429190610c87565b90503373ffffffffffffffffffffffffffffffffffffffff16816000015173ffffffffffffffffffffffffffffffffffffffff16148061048a57506000151581606001511515145b15610499576000915050610681565b600160009054906101000a900473ffffffffffffffffffffffffffffffffffffffff1673ffffffffffffffffffffffffffffffffffffffff166323b872dd33836000015184604001516040518463ffffffff1660e01b815260040161050093929190610d9b565b602060405180830381600087803b15801561051a57600080fd5b505af115801561052e573d6000803e3d6000fd5b505050506040513d601f19601f820116820180604052508101906105529190610c1d565b610560576000915050610681565b60008054906101000a900473ffffffffffffffffffffffffffffffffffffffff1673ffffffffffffffffffffffffffffffffffffffff1663d39310cd8460006040518363ffffffff1660e01b81526004016105bc929190610e68565b600060405180830381600087803b1580156105d657600080fd5b505af11580156105ea573d6000803e3d6000fd5b5050505060008054906101000a900473ffffffffffffffffffffffffffffffffffffffff1673ffffffffffffffffffffffffffffffffffffffff1663d8f9d14484336040518363ffffffff1660e01b8152600401610649929190610e38565b600060405180830381600087803b15801561066357600080fd5b505af1158015610677573d6000803e3d6000fd5b5050505060019150505b919050565b600030905090565b600260009054906101000a900473ffffffffffffffffffffffffffffffffffffffff1673ffffffffffffffffffffffffffffffffffffffff163373ffffffffffffffffffffffffffffffffffffffff16146106e857610799565b600160009054906101000a900473ffffffffffffffffffffffffffffffffffffffff1673ffffffffffffffffffffffffffffffffffffffff166340c10f1983836040518363ffffffff1660e01b8152600401610745929190610dd2565b602060405180830381600087803b15801561075f57600080fd5b505af1158015610773573d6000803e3d6000fd5b505050506040513d601f19601f820116820180604052508101906107979190610c1d565b505b5050565b6000600160009054906101000a900473ffffffffffffffffffffffffffffffffffffffff1673ffffffffffffffffffffffffffffffffffffffff166370a08231336040518263ffffffff1660e01b81526004016107fa9190610d80565b60206040518083038186803b15801561081257600080fd5b505afa158015610826573d6000803e3d6000fd5b505050506040513d601f19601f8201168201806040525081019061084a9190610cf1565b905090565b6000600260009054906101000a900473ffffffffffffffffffffffffffffffffffffffff1673ffffffffffffffffffffffffffffffffffffffff163373ffffffffffffffffffffffffffffffffffffffff161415610917576000600260009054906101000a900473ffffffffffffffffffffffffffffffffffffffff1690508073ffffffffffffffffffffffffffffffffffffffff166108fc849081150290604051600060405180830381858888f19350505050158015610914573d6000803e3d6000fd5b50505b61091f6102c4565b9050919050565b6000600160009054906101000a900473ffffffffffffffffffffffffffffffffffffffff1673ffffffffffffffffffffffffffffffffffffffff166340c10f1933346040518363ffffffff1660e01b8152600401610985929190610dd2565b602060405180830381600087803b15801561099f57600080fd5b505af11580156109b3573d6000803e3d6000fd5b505050506040513d601f19601f820116820180604052508101906109d79190610c1d565b506001905090565b60006109f26109ed84610ed8565b610eb3565b905082815260208101848484011115610a0a57600080fd5b610a15848285610f6d565b509392505050565b6000610a30610a2b84610ed8565b610eb3565b905082815260208101848484011115610a4857600080fd5b610a53848285610f7c565b509392505050565b600081359050610a6a81611020565b92915050565b600081519050610a7f81611020565b92915050565b600081519050610a9481611037565b92915050565b600082601f830112610aab57600080fd5b8135610abb8482602086016109df565b91505092915050565b600082601f830112610ad557600080fd5b8151610ae5848260208601610a1d565b91505092915050565b600060a08284031215610b0057600080fd5b610b0a60a0610eb3565b90506000610b1a84828501610a70565b600083015250602082015167ffffffffffffffff811115610b3a57600080fd5b610b4684828501610ac4565b6020830152506040610b5a84828501610ba3565b6040830152506060610b6e84828501610a85565b6060830152506080610b8284828501610a85565b60808301525092915050565b600081359050610b9d8161104e565b92915050565b600081519050610bb28161104e565b92915050565b600060208284031215610bca57600080fd5b6000610bd884828501610a70565b91505092915050565b60008060408385031215610bf457600080fd5b6000610c0285828601610a5b565b9250506020610c1385828601610b8e565b9150509250929050565b600060208284031215610c2f57600080fd5b6000610c3d84828501610a85565b91505092915050565b600060208284031215610c5857600080fd5b600082013567ffffffffffffffff811115610c7257600080fd5b610c7e84828501610a9a565b91505092915050565b600060208284031215610c9957600080fd5b600082015167ffffffffffffffff811115610cb357600080fd5b610cbf84828501610aee565b91505092915050565b600060208284031215610cda57600080fd5b6000610ce884828501610b8e565b91505092915050565b600060208284031215610d0357600080fd5b6000610d1184828501610ba3565b91505092915050565b610d2381610f25565b82525050565b610d3281610f37565b82525050565b6000610d4382610f09565b610d4d8185610f14565b9350610d5d818560208601610f7c565b610d668161100f565b840191505092915050565b610d7a81610f63565b82525050565b6000602082019050610d956000830184610d1a565b92915050565b6000606082019050610db06000830186610d1a565b610dbd6020830185610d1a565b610dca6040830184610d71565b949350505050565b6000604082019050610de76000830185610d1a565b610df46020830184610d71565b9392505050565b6000602082019050610e106000830184610d29565b92915050565b60006020820190508181036000830152610e308184610d38565b905092915050565b60006040820190508181036000830152610e528185610d38565b9050610e616020830184610d1a565b9392505050565b60006040820190508181036000830152610e828185610d38565b9050610e916020830184610d29565b9392505050565b6000602082019050610ead6000830184610d71565b92915050565b6000610ebd610ece565b9050610ec98282610faf565b919050565b6000604051905090565b600067ffffffffffffffff821115610ef357610ef2610fe0565b5b610efc8261100f565b9050602081019050919050565b600081519050919050565b600082825260208201905092915050565b6000610f3082610f43565b9050919050565b60008115159050919050565b600073ffffffffffffffffffffffffffffffffffffffff82169050919050565b6000819050919050565b82818337600083830152505050565b60005b83811015610f9a578082015181840152602081019050610f7f565b83811115610fa9576000848401525b50505050565b610fb88261100f565b810181811067ffffffffffffffff82111715610fd757610fd6610fe0565b5b80604052505050565b7f4e487b7100000000000000000000000000000000000000000000000000000000600052604160045260246000fd5b6000601f19601f8301169050919050565b61102981610f25565b811461103457600080fd5b50565b61104081610f37565b811461104b57600080fd5b50565b61105781610f63565b811461106257600080fd5b5056fea2646970667358221220163f5b84fc18e254dec3d33dcaa54c9f63e17f04773621a15440e0e76e2d2baa64736f6c63430008040033608060405234801561001057600080fd5b5033600160006101000a81548173ffffffffffffffffffffffffffffffffffffffff021916908373ffffffffffffffffffffffffffffffffffffffff16021790555061187e806100616000396000f3fe608060405234801561001057600080fd5b50600436106100935760003560e01c8063a8d4ab6c11610066578063a8d4ab6c1461010c578063b4336c3f1461013c578063d39310cd14610158578063d8f9d14414610174578063e802bf7d1461019057610093565b80631fa195961461009857806338cc4831146100b45780637b7284fc146100d25780639e5b957e146100f0575b600080fd5b6100b260048036038101906100ad9190611154565b6101c0565b005b6100bc6102c0565b6040516100c991906114d2565b60405180910390f35b6100da6102c8565b6040516100e791906114ed565b60405180910390f35b61010a60048036038101906101059190610f75565b61055b565b005b610126600480360381019061012191906111a8565b61083f565b604051610133919061150f565b60405180910390f35b61015660048036038101906101519190611085565b6108eb565b005b610172600480360381019061016d9190611100565b610a35565b005b61018e60048036038101906101899190611031565b610b48565b005b6101aa60048036038101906101a59190610ff0565b610c82565b6040516101b79190611531565b60405180910390f35b3373ffffffffffffffffffffffffffffffffffffffff16600160009054906101000a900473ffffffffffffffffffffffffffffffffffffffff1673ffffffffffffffffffffffffffffffffffffffff161415801561028b57503373ffffffffffffffffffffffffffffffffffffffff1660008360405161024091906114a4565b908152602001604051809103902060000160009054906101000a900473ffffffffffffffffffffffffffffffffffffffff1673ffffffffffffffffffffffffffffffffffffffff1614155b15610295576102bc565b806000836040516102a691906114a4565b9081526020016040518091039020600201819055505b5050565b600030905090565b60606000600280549050905060008167ffffffffffffffff811115610316577f4e487b7100000000000000000000000000000000000000000000000000000000600052604160045260246000fd5b60405190808252806020026020018201604052801561034f57816020015b61033c610de2565b8152602001906001900390816103345790505b50905060005b600280549050811015610552576000806002838154811061039f577f4e487b7100000000000000000000000000000000000000000000000000000000600052603260045260246000fd5b906000526020600020016040516103b691906114bb565b90815260200160405180910390206040518060a00160405290816000820160009054906101000a900473ffffffffffffffffffffffffffffffffffffffff1673ffffffffffffffffffffffffffffffffffffffff1673ffffffffffffffffffffffffffffffffffffffff168152602001600182018054610435906116b9565b80601f0160208091040260200160405190810160405280929190818152602001828054610461906116b9565b80156104ae5780601f10610483576101008083540402835291602001916104ae565b820191906000526020600020905b81548152906001019060200180831161049157829003601f168201915b50505050508152602001600282015481526020016003820160009054906101000a900460ff161515151581526020016003820160019054906101000a900460ff161515151581525050905080838381518110610533577f4e487b7100000000000000000000000000000000000000000000000000000000600052603260045260246000fd5b602002602001018190525050808061054a9061171c565b915050610355565b50809250505090565b6000808460405161056c91906114a4565b90815260200160405180910390206040518060a00160405290816000820160009054906101000a900473ffffffffffffffffffffffffffffffffffffffff1673ffffffffffffffffffffffffffffffffffffffff1673ffffffffffffffffffffffffffffffffffffffff1681526020016001820180546105eb906116b9565b80601f0160208091040260200160405190810160405280929190818152602001828054610617906116b9565b80156106645780601f1061063957610100808354040283529160200191610664565b820191906000526020600020905b81548152906001019060200180831161064757829003601f168201915b50505050508152602001600282015481526020016003820160009054906101000a900460ff161515151581526020016003820160019054906101000a900460ff16151515158152505090508060800151156106bf5750610839565b83816020018190525084816000019073ffffffffffffffffffffffffffffffffffffffff16908173ffffffffffffffffffffffffffffffffffffffff1681525050828160400181815250508181606001901515908115158152505060018160800190151590811515815250508060008560405161073c91906114a4565b908152602001604051809103902060008201518160000160006101000a81548173ffffffffffffffffffffffffffffffffffffffff021916908373ffffffffffffffffffffffffffffffffffffffff16021790555060208201518160010190805190602001906107ad929190610e2b565b506040820151816002015560608201518160030160006101000a81548160ff02191690831515021790555060808201518160030160016101000a81548160ff021916908315150217905550905050600284908060018154018082558091505060019003906000526020600020016000909190919091509080519060200190610836929190610e2b565b50505b50505050565b6002818154811061084f57600080fd5b90600052602060002001600091509050805461086a906116b9565b80601f0160208091040260200160405190810160405280929190818152602001828054610896906116b9565b80156108e35780601f106108b8576101008083540402835291602001916108e3565b820191906000526020600020905b8154815290600101906020018083116108c657829003601f168201915b505050505081565b600080856040516108fc91906114a4565b908152602001604051809103902090503373ffffffffffffffffffffffffffffffffffffffff16600160009054906101000a900473ffffffffffffffffffffffffffffffffffffffff1673ffffffffffffffffffffffffffffffffffffffff16141580156109ba57503373ffffffffffffffffffffffffffffffffffffffff168160000160009054906101000a900473ffffffffffffffffffffffffffffffffffffffff1673ffffffffffffffffffffffffffffffffffffffff1614155b156109c55750610a2f565b838160000160006101000a81548173ffffffffffffffffffffffffffffffffffffffff021916908373ffffffffffffffffffffffffffffffffffffffff160217905550828160020181905550818160030160006101000a81548160ff021916908315150217905550505b50505050565b3373ffffffffffffffffffffffffffffffffffffffff16600160009054906101000a900473ffffffffffffffffffffffffffffffffffffffff1673ffffffffffffffffffffffffffffffffffffffff1614158015610b0057503373ffffffffffffffffffffffffffffffffffffffff16600083604051610ab591906114a4565b908152602001604051809103902060000160009054906101000a900473ffffffffffffffffffffffffffffffffffffffff1673ffffffffffffffffffffffffffffffffffffffff1614155b15610b0a57610b44565b80600083604051610b1b91906114a4565b908152602001604051809103902060030160006101000a81548160ff0219169083151502179055505b5050565b3373ffffffffffffffffffffffffffffffffffffffff16600160009054906101000a900473ffffffffffffffffffffffffffffffffffffffff1673ffffffffffffffffffffffffffffffffffffffff1614158015610c1357503373ffffffffffffffffffffffffffffffffffffffff16600083604051610bc891906114a4565b908152602001604051809103902060000160009054906101000a900473ffffffffffffffffffffffffffffffffffffffff1673ffffffffffffffffffffffffffffffffffffffff1614155b15610c1d57610c7e565b80600083604051610c2e91906114a4565b908152602001604051809103902060000160006101000a81548173ffffffffffffffffffffffffffffffffffffffff021916908373ffffffffffffffffffffffffffffffffffffffff1602179055505b5050565b610c8a610de2565b600082604051610c9a91906114a4565b90815260200160405180910390206040518060a00160405290816000820160009054906101000a900473ffffffffffffffffffffffffffffffffffffffff1673ffffffffffffffffffffffffffffffffffffffff1673ffffffffffffffffffffffffffffffffffffffff168152602001600182018054610d19906116b9565b80601f0160208091040260200160405190810160405280929190818152602001828054610d45906116b9565b8015610d925780601f10610d6757610100808354040283529160200191610d92565b820191906000526020600020905b815481529060010190602001808311610d7557829003601f168201915b50505050508152602001600282015481526020016003820160009054906101000a900460ff161515151581526020016003820160019054906101000a900460ff1615151515815250509050919050565b6040518060a00160405280600073ffffffffffffffffffffffffffffffffffffffff16815260200160608152602001600081526020016000151581526020016000151581525090565b828054610e37906116b9565b90600052602060002090601f016020900481019282610e595760008555610ea0565b82601f10610e7257805160ff1916838001178555610ea0565b82800160010185558215610ea0579182015b82811115610e9f578251825591602001919060010190610e84565b5b509050610ead9190610eb1565b5090565b5b80821115610eca576000816000905550600101610eb2565b5090565b6000610ee1610edc84611578565b611553565b905082815260208101848484011115610ef957600080fd5b610f04848285611677565b509392505050565b600081359050610f1b81611803565b92915050565b600081359050610f308161181a565b92915050565b600082601f830112610f4757600080fd5b8135610f57848260208601610ece565b91505092915050565b600081359050610f6f81611831565b92915050565b60008060008060808587031215610f8b57600080fd5b6000610f9987828801610f0c565b945050602085013567ffffffffffffffff811115610fb657600080fd5b610fc287828801610f36565b9350506040610fd387828801610f60565b9250506060610fe487828801610f21565b91505092959194509250565b60006020828403121561100257600080fd5b600082013567ffffffffffffffff81111561101c57600080fd5b61102884828501610f36565b91505092915050565b6000806040838503121561104457600080fd5b600083013567ffffffffffffffff81111561105e57600080fd5b61106a85828601610f36565b925050602061107b85828601610f0c565b9150509250929050565b6000806000806080858703121561109b57600080fd5b600085013567ffffffffffffffff8111156110b557600080fd5b6110c187828801610f36565b94505060206110d287828801610f0c565b93505060406110e387828801610f60565b92505060606110f487828801610f21565b91505092959194509250565b6000806040838503121561111357600080fd5b600083013567ffffffffffffffff81111561112d57600080fd5b61113985828601610f36565b925050602061114a85828601610f21565b9150509250929050565b6000806040838503121561116757600080fd5b600083013567ffffffffffffffff81111561118157600080fd5b61118d85828601610f36565b925050602061119e85828601610f60565b9150509250929050565b6000602082840312156111ba57600080fd5b60006111c884828501610f60565b91505092915050565b60006111dd83836113a9565b905092915050565b6111ee8161162f565b82525050565b6111fd8161162f565b82525050565b600061120e826115ce565b61121881856115f1565b93508360208202850161122a856115a9565b8060005b85811015611266578484038952815161124785826111d1565b9450611252836115e4565b925060208a0199505060018101905061122e565b50829750879550505050505092915050565b61128181611641565b82525050565b6000611292826115d9565b61129c8185611602565b93506112ac818560208601611686565b6112b5816117f2565b840191505092915050565b60006112cb826115d9565b6112d58185611613565b93506112e5818560208601611686565b6112ee816117f2565b840191505092915050565b6000611304826115d9565b61130e8185611624565b935061131e818560208601611686565b80840191505092915050565b60008154611337816116b9565b6113418186611624565b9450600182166000811461135c576001811461136d576113a0565b60ff198316865281860193506113a0565b611376856115b9565b60005b8381101561139857815481890152600182019150602081019050611379565b838801955050505b50505092915050565b600060a0830160008301516113c160008601826111e5565b50602083015184820360208601526113d98282611287565b91505060408301516113ee6040860182611495565b5060608301516114016060860182611278565b5060808301516114146080860182611278565b508091505092915050565b600060a08301600083015161143760008601826111e5565b506020830151848203602086015261144f8282611287565b91505060408301516114646040860182611495565b5060608301516114776060860182611278565b50608083015161148a6080860182611278565b508091505092915050565b61149e8161166d565b82525050565b60006114b082846112f9565b915081905092915050565b60006114c7828461132a565b915081905092915050565b60006020820190506114e760008301846111f4565b92915050565b600060208201905081810360008301526115078184611203565b905092915050565b6000602082019050818103600083015261152981846112c0565b905092915050565b6000602082019050818103600083015261154b818461141f565b905092915050565b600061155d61156e565b905061156982826116eb565b919050565b6000604051905090565b600067ffffffffffffffff821115611593576115926117c3565b5b61159c826117f2565b9050602081019050919050565b6000819050602082019050919050565b60008190508160005260206000209050919050565b600081519050919050565b600081519050919050565b6000602082019050919050565b600082825260208201905092915050565b600082825260208201905092915050565b600082825260208201905092915050565b600081905092915050565b600061163a8261164d565b9050919050565b60008115159050919050565b600073ffffffffffffffffffffffffffffffffffffffff82169050919050565b6000819050919050565b82818337600083830152505050565b60005b838110156116a4578082015181840152602081019050611689565b838111156116b3576000848401525b50505050565b600060028204905060018216806116d157607f821691505b602082108114156116e5576116e4611794565b5b50919050565b6116f4826117f2565b810181811067ffffffffffffffff82111715611713576117126117c3565b5b80604052505050565b60006117278261166d565b91507fffffffffffffffffffffffffffffffffffffffffffffffffffffffffffffffff82141561175a57611759611765565b5b600182019050919050565b7f4e487b7100000000000000000000000000000000000000000000000000000000600052601160045260246000fd5b7f4e487b7100000000000000000000000000000000000000000000000000000000600052602260045260246000fd5b7f4e487b7100000000000000000000000000000000000000000000000000000000600052604160045260246000fd5b6000601f19601f8301169050919050565b61180c8161162f565b811461181757600080fd5b50565b61182381611641565b811461182e57600080fd5b50565b61183a8161166d565b811461184557600080fd5b5056fea26469706673582212207b5548baec22ca27f2d46207142576da39e919bfaa9865664711be215fcd784664736f6c6343000804003360806040523480156200001157600080fd5b506040518060400160405280600581526020017f546f6b656e0000000000000000000000000000000000000000000000000000008152506040518060400160405280600381526020017f544f4b00000000000000000000000000000000000000000000000000000000008152506200009e62000092620000d860201b60201c565b620000e060201b60201c565b8160049080519060200190620000b6929190620001a4565b508060059080519060200190620000cf929190620001a4565b505050620002b9565b600033905090565b60008060009054906101000a900473ffffffffffffffffffffffffffffffffffffffff169050816000806101000a81548173ffffffffffffffffffffffffffffffffffffffff021916908373ffffffffffffffffffffffffffffffffffffffff1602179055508173ffffffffffffffffffffffffffffffffffffffff168173ffffffffffffffffffffffffffffffffffffffff167f8be0079c531659141344cd1fd0a4f28419497f9722a3daafe3b4186f6b6457e060405160405180910390a35050565b828054620001b29062000254565b90600052602060002090601f016020900481019282620001d6576000855562000222565b82601f10620001f157805160ff191683800117855562000222565b8280016001018555821562000222579182015b828111156200022157825182559160200191906001019062000204565b5b50905062000231919062000235565b5090565b5b808211156200025057600081600090555060010162000236565b5090565b600060028204905060018216806200026d57607f821691505b602082108114156200028457620002836200028a565b5b50919050565b7f4e487b7100000000000000000000000000000000000000000000000000000000600052602260045260246000fd5b61193c80620002c96000396000f3fe608060405234801561001057600080fd5b50600436106101005760003560e01c806370a0823111610097578063a457c2d711610066578063a457c2d7146102b3578063a9059cbb146102e3578063dd62ed3e14610313578063f2fde38b1461034357610100565b806370a082311461023d578063715018a61461026d5780638da5cb5b1461027757806395d89b411461029557610100565b8063313ce567116100d3578063313ce567146101a157806338cc4831146101bf57806339509351146101dd57806340c10f191461020d57610100565b806306fdde0314610105578063095ea7b31461012357806318160ddd1461015357806323b872dd14610171575b600080fd5b61010d61035f565b60405161011a9190611301565b60405180910390f35b61013d600480360381019061013891906110bc565b6103f1565b60405161014a91906112e6565b60405180910390f35b61015b610414565b6040516101689190611463565b60405180910390f35b61018b6004803603810190610186919061106d565b61041e565b60405161019891906112e6565b60405180910390f35b6101a961044d565b6040516101b6919061147e565b60405180910390f35b6101c7610456565b6040516101d491906112cb565b60405180910390f35b6101f760048036038101906101f291906110bc565b61045e565b60405161020491906112e6565b60405180910390f35b610227600480360381019061022291906110bc565b610495565b60405161023491906112e6565b60405180910390f35b61025760048036038101906102529190611008565b610527565b6040516102649190611463565b60405180910390f35b610275610570565b005b61027f6105f8565b60405161028c91906112cb565b60405180910390f35b61029d610621565b6040516102aa9190611301565b60405180910390f35b6102cd60048036038101906102c891906110bc565b6106b3565b6040516102da91906112e6565b60405180910390f35b6102fd60048036038101906102f891906110bc565b61072a565b60405161030a91906112e6565b60405180910390f35b61032d60048036038101906103289190611031565b61074d565b60405161033a9190611463565b60405180910390f35b61035d60048036038101906103589190611008565b6107d4565b005b60606004805461036e90611593565b80601f016020809104026020016040519081016040528092919081815260200182805461039a90611593565b80156103e75780601f106103bc576101008083540402835291602001916103e7565b820191906000526020600020905b8154815290600101906020018083116103ca57829003601f168201915b5050505050905090565b6000806103fc6108cc565b90506104098185856108d4565b600191505092915050565b6000600354905090565b6000806104296108cc565b9050610436858285610a9f565b610441858585610b2b565b60019150509392505050565b60006012905090565b600030905090565b6000806104696108cc565b905061048a81858561047b858961074d565b61048591906114b5565b6108d4565b600191505092915050565b600061049f6108cc565b73ffffffffffffffffffffffffffffffffffffffff166104bd6105f8565b73ffffffffffffffffffffffffffffffffffffffff1614610513576040517f08c379a000000000000000000000000000000000000000000000000000000000815260040161050a906113c3565b60405180910390fd5b61051d8383610daf565b6001905092915050565b6000600160008373ffffffffffffffffffffffffffffffffffffffff1673ffffffffffffffffffffffffffffffffffffffff168152602001908152602001600020549050919050565b6105786108cc565b73ffffffffffffffffffffffffffffffffffffffff166105966105f8565b73ffffffffffffffffffffffffffffffffffffffff16146105ec576040517f08c379a00000000000000000000000000000000000000000000000000000000081526004016105e3906113c3565b60405180910390fd5b6105f66000610f10565b565b60008060009054906101000a900473ffffffffffffffffffffffffffffffffffffffff16905090565b60606005805461063090611593565b80601f016020809104026020016040519081016040528092919081815260200182805461065c90611593565b80156106a95780601f1061067e576101008083540402835291602001916106a9565b820191906000526020600020905b81548152906001019060200180831161068c57829003601f168201915b5050505050905090565b6000806106be6108cc565b905060006106cc828661074d565b905083811015610711576040517f08c379a000000000000000000000000000000000000000000000000000000000815260040161070890611423565b60405180910390fd5b61071e82868684036108d4565b60019250505092915050565b6000806107356108cc565b9050610742818585610b2b565b600191505092915050565b6000600260008473ffffffffffffffffffffffffffffffffffffffff1673ffffffffffffffffffffffffffffffffffffffff16815260200190815260200160002060008373ffffffffffffffffffffffffffffffffffffffff1673ffffffffffffffffffffffffffffffffffffffff16815260200190815260200160002054905092915050565b6107dc6108cc565b73ffffffffffffffffffffffffffffffffffffffff166107fa6105f8565b73ffffffffffffffffffffffffffffffffffffffff1614610850576040517f08c379a0000000000000000000000000000000000000000000000000000000008152600401610847906113c3565b60405180910390fd5b600073ffffffffffffffffffffffffffffffffffffffff168173ffffffffffffffffffffffffffffffffffffffff1614156108c0576040517f08c379a00000000000000000000000000000000000000000000000000000000081526004016108b790611343565b60405180910390fd5b6108c981610f10565b50565b600033905090565b600073ffffffffffffffffffffffffffffffffffffffff168373ffffffffffffffffffffffffffffffffffffffff161415610944576040517f08c379a000000000000000000000000000000000000000000000000000000000815260040161093b90611403565b60405180910390fd5b600073ffffffffffffffffffffffffffffffffffffffff168273ffffffffffffffffffffffffffffffffffffffff1614156109b4576040517f08c379a00000000000000000000000000000000000000000000000000000000081526004016109ab90611363565b60405180910390fd5b80600260008573ffffffffffffffffffffffffffffffffffffffff1673ffffffffffffffffffffffffffffffffffffffff16815260200190815260200160002060008473ffffffffffffffffffffffffffffffffffffffff1673ffffffffffffffffffffffffffffffffffffffff168152602001908152602001600020819055508173ffffffffffffffffffffffffffffffffffffffff168373ffffffffffffffffffffffffffffffffffffffff167f8c5be1e5ebec7d5bd14f71427d1e84f3dd0314c0f7b2291e5b200ac8c7c3b92583604051610a929190611463565b60405180910390a3505050565b6000610aab848461074d565b90507fffffffffffffffffffffffffffffffffffffffffffffffffffffffffffffffff8114610b255781811015610b17576040517f08c379a0000000000000000000000000000000000000000000000000000000008152600401610b0e90611383565b60405180910390fd5b610b2484848484036108d4565b5b50505050565b600073ffffffffffffffffffffffffffffffffffffffff168373ffffffffffffffffffffffffffffffffffffffff161415610b9b576040517f08c379a0000000000000000000000000000000000000000000000000000000008152600401610b92906113e3565b60405180910390fd5b600073ffffffffffffffffffffffffffffffffffffffff168273ffffffffffffffffffffffffffffffffffffffff161415610c0b576040517f08c379a0000000000000000000000000000000000000000000000000000000008152600401610c0290611323565b60405180910390fd5b610c16838383610fd4565b6000600160008573ffffffffffffffffffffffffffffffffffffffff1673ffffffffffffffffffffffffffffffffffffffff16815260200190815260200160002054905081811015610c9d576040517f08c379a0000000000000000000000000000000000000000000000000000000008152600401610c94906113a3565b60405180910390fd5b818103600160008673ffffffffffffffffffffffffffffffffffffffff1673ffffffffffffffffffffffffffffffffffffffff1681526020019081526020016000208190555081600160008573ffffffffffffffffffffffffffffffffffffffff1673ffffffffffffffffffffffffffffffffffffffff1681526020019081526020016000206000828254610d3291906114b5565b925050819055508273ffffffffffffffffffffffffffffffffffffffff168473ffffffffffffffffffffffffffffffffffffffff167fddf252ad1be2c89b69c2b068fc378daa952ba7f163c4a11628f55a4df523b3ef84604051610d969190611463565b60405180910390a3610da9848484610fd9565b50505050565b600073ffffffffffffffffffffffffffffffffffffffff168273ffffffffffffffffffffffffffffffffffffffff161415610e1f576040517f08c379a0000000000000000000000000000000000000000000000000000000008152600401610e1690611443565b60405180910390fd5b610e2b60008383610fd4565b8060036000828254610e3d91906114b5565b9250508190555080600160008473ffffffffffffffffffffffffffffffffffffffff1673ffffffffffffffffffffffffffffffffffffffff1681526020019081526020016000206000828254610e9391906114b5565b925050819055508173ffffffffffffffffffffffffffffffffffffffff16600073ffffffffffffffffffffffffffffffffffffffff167fddf252ad1be2c89b69c2b068fc378daa952ba7f163c4a11628f55a4df523b3ef83604051610ef89190611463565b60405180910390a3610f0c60008383610fd9565b5050565b60008060009054906101000a900473ffffffffffffffffffffffffffffffffffffffff169050816000806101000a81548173ffffffffffffffffffffffffffffffffffffffff021916908373ffffffffffffffffffffffffffffffffffffffff1602179055508173ffffffffffffffffffffffffffffffffffffffff168173ffffffffffffffffffffffffffffffffffffffff167f8be0079c531659141344cd1fd0a4f28419497f9722a3daafe3b4186f6b6457e060405160405180910390a35050565b505050565b505050565b600081359050610fed816118d8565b92915050565b600081359050611002816118ef565b92915050565b60006020828403121561101a57600080fd5b600061102884828501610fde565b91505092915050565b6000806040838503121561104457600080fd5b600061105285828601610fde565b925050602061106385828601610fde565b9150509250929050565b60008060006060848603121561108257600080fd5b600061109086828701610fde565b93505060206110a186828701610fde565b92505060406110b286828701610ff3565b9150509250925092565b600080604083850312156110cf57600080fd5b60006110dd85828601610fde565b92505060206110ee85828601610ff3565b9150509250929050565b6111018161150b565b82525050565b6111108161151d565b82525050565b600061112182611499565b61112b81856114a4565b935061113b818560208601611560565b61114481611623565b840191505092915050565b600061115c6023836114a4565b915061116782611634565b604082019050919050565b600061117f6026836114a4565b915061118a82611683565b604082019050919050565b60006111a26022836114a4565b91506111ad826116d2565b604082019050919050565b60006111c5601d836114a4565b91506111d082611721565b602082019050919050565b60006111e86026836114a4565b91506111f38261174a565b604082019050919050565b600061120b6020836114a4565b915061121682611799565b602082019050919050565b600061122e6025836114a4565b9150611239826117c2565b604082019050919050565b60006112516024836114a4565b915061125c82611811565b604082019050919050565b60006112746025836114a4565b915061127f82611860565b604082019050919050565b6000611297601f836114a4565b91506112a2826118af565b602082019050919050565b6112b681611549565b82525050565b6112c581611553565b82525050565b60006020820190506112e060008301846110f8565b92915050565b60006020820190506112fb6000830184611107565b92915050565b6000602082019050818103600083015261131b8184611116565b905092915050565b6000602082019050818103600083015261133c8161114f565b9050919050565b6000602082019050818103600083015261135c81611172565b9050919050565b6000602082019050818103600083015261137c81611195565b9050919050565b6000602082019050818103600083015261139c816111b8565b9050919050565b600060208201905081810360008301526113bc816111db565b9050919050565b600060208201905081810360008301526113dc816111fe565b9050919050565b600060208201905081810360008301526113fc81611221565b9050919050565b6000602082019050818103600083015261141c81611244565b9050919050565b6000602082019050818103600083015261143c81611267565b9050919050565b6000602082019050818103600083015261145c8161128a565b9050919050565b600060208201905061147860008301846112ad565b92915050565b600060208201905061149360008301846112bc565b92915050565b600081519050919050565b600082825260208201905092915050565b60006114c082611549565b91506114cb83611549565b9250827fffffffffffffffffffffffffffffffffffffffffffffffffffffffffffffffff03821115611500576114ff6115c5565b5b828201905092915050565b600061151682611529565b9050919050565b60008115159050919050565b600073ffffffffffffffffffffffffffffffffffffffff82169050919050565b6000819050919050565b600060ff82169050919050565b60005b8381101561157e578082015181840152602081019050611563565b8381111561158d576000848401525b50505050565b600060028204905060018216806115ab57607f821691505b602082108114156115bf576115be6115f4565b5b50919050565b7f4e487b7100000000000000000000000000000000000000000000000000000000600052601160045260246000fd5b7f4e487b7100000000000000000000000000000000000000000000000000000000600052602260045260246000fd5b6000601f19601f8301169050919050565b7f45524332303a207472616e7366657220746f20746865207a65726f206164647260008201527f6573730000000000000000000000000000000000000000000000000000000000602082015250565b7f4f776e61626c653a206e6577206f776e657220697320746865207a65726f206160008201527f6464726573730000000000000000000000000000000000000000000000000000602082015250565b7f45524332303a20617070726f766520746f20746865207a65726f20616464726560008201527f7373000000000000000000000000000000000000000000000000000000000000602082015250565b7f45524332303a20696e73756666696369656e7420616c6c6f77616e6365000000600082015250565b7f45524332303a207472616e7366657220616d6f756e742065786365656473206260008201527f616c616e63650000000000000000000000000000000000000000000000000000602082015250565b7f4f776e61626c653a2063616c6c6572206973206e6f7420746865206f776e6572600082015250565b7f45524332303a207472616e736665722066726f6d20746865207a65726f20616460008201527f6472657373000000000000000000000000000000000000000000000000000000602082015250565b7f45524332303a20617070726f76652066726f6d20746865207a65726f2061646460008201527f7265737300000000000000000000000000000000000000000000000000000000602082015250565b7f45524332303a2064656372656173656420616c6c6f77616e63652062656c6f7760008201527f207a65726f000000000000000000000000000000000000000000000000000000602082015250565b7f45524332303a206d696e7420746f20746865207a65726f206164647265737300600082015250565b6118e18161150b565b81146118ec57600080fd5b50565b6118f881611549565b811461190357600080fd5b5056fea26469706673582212204fd83f864c86c8331833c1bad24eadc5997641e5143c1d3305c85cea2536929864736f6c63430008040033",
  "linkReferences": {},
  "deployedLinkReferences": {}
}