{
  "_format": "hh-sol-artifact-1",
  "contractName": "Controller",
  "sourceName": "contracts/Controller.sol",
  "abi": [
    {
      "inputs": [],
      "stateMutability": "nonpayable",
      "type": "constructor"
    },
    {
      "stateMutability": "payable",
      "type": "fallback"
    },
    {
      "inputs": [],
      "name": "deposit",
      "outputs": [
        {
          "internalType": "bool",
          "name": "",
          "type": "bool"
        }
      ],
      "stateMutability": "payable",
      "type": "function"
    },
    {
      "inputs": [],
      "name": "getAddress",
      "outputs": [
        {
          "internalType": "address",
          "name": "",
          "type": "address"
        }
      ],
      "stateMutability": "view",
      "type": "function"
    },
    {
      "inputs": [],
      "name": "getBalance",
      "outputs": [
        {
          "internalType": "uint256",
          "name": "",
          "type": "uint256"
        }
      ],
      "stateMutability": "view",
      "type": "function"
    },
    {
      "inputs": [],
      "name": "getImageContract",
      "outputs": [
        {
          "internalType": "address",
          "name": "",
          "type": "address"
        }
      ],
      "stateMutability": "view",
      "type": "function"
    },
    {
      "inputs": [],
      "name": "getStoreContract",
      "outputs": [
        {
          "internalType": "address",
          "name": "",
          "type": "address"
        }
      ],
      "stateMutability": "view",
      "type": "function"
    },
    {
      "inputs": [
        {
          "internalType": "address",
          "name": "target",
          "type": "address"
        }
      ],
      "name": "getTokenBalance",
      "outputs": [
        {
          "internalType": "uint256",
          "name": "",
          "type": "uint256"
        }
      ],
      "stateMutability": "view",
      "type": "function"
    },
    {
      "inputs": [],
      "name": "getTokenContract",
      "outputs": [
        {
          "internalType": "address",
          "name": "",
          "type": "address"
        }
      ],
      "stateMutability": "view",
      "type": "function"
    },
    {
      "inputs": [
        {
          "internalType": "address",
          "name": "receiver",
          "type": "address"
        },
        {
          "internalType": "uint256",
          "name": "amount",
          "type": "uint256"
        }
      ],
      "name": "mintToken",
      "outputs": [],
      "stateMutability": "nonpayable",
      "type": "function"
    },
    {
      "inputs": [
        {
          "internalType": "uint256",
          "name": "id",
          "type": "uint256"
        },
        {
          "internalType": "uint256",
          "name": "price",
          "type": "uint256"
        }
      ],
      "name": "startSell",
      "outputs": [
        {
          "internalType": "bool",
          "name": "",
          "type": "bool"
        }
      ],
      "stateMutability": "nonpayable",
      "type": "function"
    },
    {
      "inputs": [
        {
          "internalType": "uint256",
          "name": "id",
          "type": "uint256"
        }
      ],
      "name": "tradeImage",
      "outputs": [
        {
          "internalType": "bool",
          "name": "",
          "type": "bool"
        }
      ],
      "stateMutability": "payable",
      "type": "function"
    },
    {
      "inputs": [
        {
          "internalType": "uint256",
          "name": "amount",
          "type": "uint256"
        }
      ],
      "name": "transferToOwner",
      "outputs": [
        {
          "internalType": "uint256",
          "name": "",
          "type": "uint256"
        }
      ],
      "stateMutability": "payable",
      "type": "function"
    },
    {
      "inputs": [
        {
          "internalType": "uint256",
          "name": "amount",
          "type": "uint256"
        }
      ],
      "name": "withdraw",
      "outputs": [
        {
          "internalType": "bool",
          "name": "",
          "type": "bool"
        }
      ],
      "stateMutability": "nonpayable",
      "type": "function"
    },
    {
      "stateMutability": "payable",
      "type": "receive"
    }
  ],
  "bytecode": "0x60806040523480156200001157600080fd5b5060405162000020906200019c565b604051809103906000f0801580156200003d573d6000803e3d6000fd5b506000806101000a81548173ffffffffffffffffffffffffffffffffffffffff021916908373ffffffffffffffffffffffffffffffffffffffff1602179055506040516200008b90620001aa565b604051809103906000f080158015620000a8573d6000803e3d6000fd5b50600160006101000a81548173ffffffffffffffffffffffffffffffffffffffff021916908373ffffffffffffffffffffffffffffffffffffffff160217905550604051620000f790620001b8565b604051809103906000f08015801562000114573d6000803e3d6000fd5b50600260006101000a81548173ffffffffffffffffffffffffffffffffffffffff021916908373ffffffffffffffffffffffffffffffffffffffff16021790555033600360006101000a81548173ffffffffffffffffffffffffffffffffffffffff021916908373ffffffffffffffffffffffffffffffffffffffff160217905550620001c6565b612003806200155f83390190565b6132b0806200356283390190565b610c43806200681283390190565b61138980620001d66000396000f3fe6080604052600436106100ab5760003560e01c806338cc48311161006457806338cc4831146101df5780633aecd0e31461020a57806379c650681461024757806387c1ed1214610270578063c62d3a9c146102a0578063d0e30db0146102cb576100b2565b806301d3551c146100b457806312065fe0146100df5780631e72aa761461010a57806328b7bede1461013a5780632e1a7d4d1461016557806332dccc2e146101a2576100b2565b366100b257005b005b3480156100c057600080fd5b506100c96102e9565b6040516100d691906111ec565b60405180910390f35b3480156100eb57600080fd5b506100f4610390565b6040516101019190611282565b60405180910390f35b610124600480360381019061011f9190611131565b6103b6565b6040516101319190611267565b60405180910390f35b34801561014657600080fd5b5061014f61072d565b60405161015c91906111ec565b60405180910390f35b34801561017157600080fd5b5061018c60048036038101906101879190611131565b6107d3565b6040516101999190611267565b60405180910390f35b3480156101ae57600080fd5b506101c960048036038101906101c49190611183565b6108f3565b6040516101d69190611267565b60405180910390f35b3480156101eb57600080fd5b506101f4610c13565b60405161020191906111ec565b60405180910390f35b34801561021657600080fd5b50610231600480360381019061022c919061107a565b610c1b565b60405161023e9190611282565b60405180910390f35b34801561025357600080fd5b5061026e600480360381019061026991906110cc565b610cce565b005b61028a60048036038101906102859190611131565b610ddb565b6040516102979190611282565b60405180910390f35b3480156102ac57600080fd5b506102b5610eb2565b6040516102c291906111ec565b60405180910390f35b6102d3610f59565b6040516102e09190611267565b60405180910390f35b6000600160009054906101000a900473ffffffffffffffffffffffffffffffffffffffff1673ffffffffffffffffffffffffffffffffffffffff166338cc48316040518163ffffffff1660e01b815260040160206040518083038186803b15801561035357600080fd5b505afa158015610367573d6000803e3d6000fd5b505050506040513d601f19601f8201168201806040525081019061038b91906110a3565b905090565b600061039a610c13565b73ffffffffffffffffffffffffffffffffffffffff1631905090565b600080600160009054906101000a900473ffffffffffffffffffffffffffffffffffffffff1673ffffffffffffffffffffffffffffffffffffffff16636352211e846040518263ffffffff1660e01b81526004016104149190611282565b60206040518083038186803b15801561042c57600080fd5b505afa158015610440573d6000803e3d6000fd5b505050506040513d601f19601f8201168201806040525081019061046491906110a3565b90503373ffffffffffffffffffffffffffffffffffffffff168173ffffffffffffffffffffffffffffffffffffffff1614156104a4576000915050610728565b6000600260009054906101000a900473ffffffffffffffffffffffffffffffffffffffff1673ffffffffffffffffffffffffffffffffffffffff1663e7572230856040518263ffffffff1660e01b81526004016105019190611282565b60206040518083038186803b15801561051957600080fd5b505afa15801561052d573d6000803e3d6000fd5b505050506040513d601f19601f82011682018060405250810190610551919061115a565b9050600160009054906101000a900473ffffffffffffffffffffffffffffffffffffffff1673ffffffffffffffffffffffffffffffffffffffff166342842e0e8333876040518463ffffffff1660e01b81526004016105b293929190611207565b600060405180830381600087803b1580156105cc57600080fd5b505af11580156105e0573d6000803e3d6000fd5b5050505060008054906101000a900473ffffffffffffffffffffffffffffffffffffffff1673ffffffffffffffffffffffffffffffffffffffff166323b872dd3384846040518463ffffffff1660e01b815260040161064193929190611207565b602060405180830381600087803b15801561065b57600080fd5b505af115801561066f573d6000803e3d6000fd5b505050506040513d601f19601f820116820180604052508101906106939190611108565b50600260009054906101000a900473ffffffffffffffffffffffffffffffffffffffff1673ffffffffffffffffffffffffffffffffffffffff16635ee95cae856040518263ffffffff1660e01b81526004016106ef9190611282565b600060405180830381600087803b15801561070957600080fd5b505af115801561071d573d6000803e3d6000fd5b505050506001925050505b919050565b60008060009054906101000a900473ffffffffffffffffffffffffffffffffffffffff1673ffffffffffffffffffffffffffffffffffffffff166338cc48316040518163ffffffff1660e01b815260040160206040518083038186803b15801561079657600080fd5b505afa1580156107aa573d6000803e3d6000fd5b505050506040513d601f19601f820116820180604052508101906107ce91906110a3565b905090565b6000816107df33610c1b565b10156107ee57600090506108ee565b60008054906101000a900473ffffffffffffffffffffffffffffffffffffffff1673ffffffffffffffffffffffffffffffffffffffff16639dc29fac33846040518363ffffffff1660e01b815260040161084992919061123e565b602060405180830381600087803b15801561086357600080fd5b505af1158015610877573d6000803e3d6000fd5b505050506040513d601f19601f8201168201806040525081019061089b9190611108565b5060003390508073ffffffffffffffffffffffffffffffffffffffff166108fc849081150290604051600060405180830381858888f193505050501580156108e7573d6000803e3d6000fd5b5060019150505b919050565b6000600160009054906101000a900473ffffffffffffffffffffffffffffffffffffffff1673ffffffffffffffffffffffffffffffffffffffff16634f558e79846040518263ffffffff1660e01b81526004016109509190611282565b60206040518083038186803b15801561096857600080fd5b505afa15801561097c573d6000803e3d6000fd5b505050506040513d601f19601f820116820180604052508101906109a09190611108565b6109ad5760009050610c0d565b3373ffffffffffffffffffffffffffffffffffffffff16600160009054906101000a900473ffffffffffffffffffffffffffffffffffffffff1673ffffffffffffffffffffffffffffffffffffffff16636352211e856040518263ffffffff1660e01b8152600401610a1f9190611282565b60206040518083038186803b158015610a3757600080fd5b505afa158015610a4b573d6000803e3d6000fd5b505050506040513d601f19601f82011682018060405250810190610a6f91906110a3565b73ffffffffffffffffffffffffffffffffffffffff1614610a935760009050610c0d565b3073ffffffffffffffffffffffffffffffffffffffff16600160009054906101000a900473ffffffffffffffffffffffffffffffffffffffff1673ffffffffffffffffffffffffffffffffffffffff1663081812fc856040518263ffffffff1660e01b8152600401610b059190611282565b60206040518083038186803b158015610b1d57600080fd5b505afa158015610b31573d6000803e3d6000fd5b505050506040513d601f19601f82011682018060405250810190610b5591906110a3565b73ffffffffffffffffffffffffffffffffffffffff1614610b795760009050610c0d565b600260009054906101000a900473ffffffffffffffffffffffffffffffffffffffff1673ffffffffffffffffffffffffffffffffffffffff16638b69247984846040518363ffffffff1660e01b8152600401610bd692919061129d565b600060405180830381600087803b158015610bf057600080fd5b505af1158015610c04573d6000803e3d6000fd5b50505050600190505b92915050565b600030905090565b60008060009054906101000a900473ffffffffffffffffffffffffffffffffffffffff1673ffffffffffffffffffffffffffffffffffffffff166370a08231836040518263ffffffff1660e01b8152600401610c7791906111ec565b60206040518083038186803b158015610c8f57600080fd5b505afa158015610ca3573d6000803e3d6000fd5b505050506040513d601f19601f82011682018060405250810190610cc7919061115a565b9050919050565b600360009054906101000a900473ffffffffffffffffffffffffffffffffffffffff1673ffffffffffffffffffffffffffffffffffffffff163373ffffffffffffffffffffffffffffffffffffffff1614610d2857610dd7565b60008054906101000a900473ffffffffffffffffffffffffffffffffffffffff1673ffffffffffffffffffffffffffffffffffffffff166340c10f1983836040518363ffffffff1660e01b8152600401610d8392919061123e565b602060405180830381600087803b158015610d9d57600080fd5b505af1158015610db1573d6000803e3d6000fd5b505050506040513d601f19601f82011682018060405250810190610dd59190611108565b505b5050565b6000600360009054906101000a900473ffffffffffffffffffffffffffffffffffffffff1673ffffffffffffffffffffffffffffffffffffffff163373ffffffffffffffffffffffffffffffffffffffff161415610ea3576000600360009054906101000a900473ffffffffffffffffffffffffffffffffffffffff1690508073ffffffffffffffffffffffffffffffffffffffff166108fc849081150290604051600060405180830381858888f19350505050158015610ea0573d6000803e3d6000fd5b50505b610eab610390565b9050919050565b6000600260009054906101000a900473ffffffffffffffffffffffffffffffffffffffff1673ffffffffffffffffffffffffffffffffffffffff166338cc48316040518163ffffffff1660e01b815260040160206040518083038186803b158015610f1c57600080fd5b505afa158015610f30573d6000803e3d6000fd5b505050506040513d601f19601f82011682018060405250810190610f5491906110a3565b905090565b60008060009054906101000a900473ffffffffffffffffffffffffffffffffffffffff1673ffffffffffffffffffffffffffffffffffffffff166340c10f1933346040518363ffffffff1660e01b8152600401610fb792919061123e565b602060405180830381600087803b158015610fd157600080fd5b505af1158015610fe5573d6000803e3d6000fd5b505050506040513d601f19601f820116820180604052508101906110099190611108565b506001905090565b6000813590506110208161130e565b92915050565b6000815190506110358161130e565b92915050565b60008151905061104a81611325565b92915050565b60008135905061105f8161133c565b92915050565b6000815190506110748161133c565b92915050565b60006020828403121561108c57600080fd5b600061109a84828501611011565b91505092915050565b6000602082840312156110b557600080fd5b60006110c384828501611026565b91505092915050565b600080604083850312156110df57600080fd5b60006110ed85828601611011565b92505060206110fe85828601611050565b9150509250929050565b60006020828403121561111a57600080fd5b60006111288482850161103b565b91505092915050565b60006020828403121561114357600080fd5b600061115184828501611050565b91505092915050565b60006020828403121561116c57600080fd5b600061117a84828501611065565b91505092915050565b6000806040838503121561119657600080fd5b60006111a485828601611050565b92505060206111b585828601611050565b9150509250929050565b6111c8816112c6565b82525050565b6111d7816112d8565b82525050565b6111e681611304565b82525050565b600060208201905061120160008301846111bf565b92915050565b600060608201905061121c60008301866111bf565b61122960208301856111bf565b61123660408301846111dd565b949350505050565b600060408201905061125360008301856111bf565b61126060208301846111dd565b9392505050565b600060208201905061127c60008301846111ce565b92915050565b600060208201905061129760008301846111dd565b92915050565b60006040820190506112b260008301856111dd565b6112bf60208301846111dd565b9392505050565b60006112d1826112e4565b9050919050565b60008115159050919050565b600073ffffffffffffffffffffffffffffffffffffffff82169050919050565b6000819050919050565b611317816112c6565b811461132257600080fd5b50565b61132e816112d8565b811461133957600080fd5b50565b61134581611304565b811461135057600080fd5b5056fea2646970667358221220c99d3dd18c0d55e34a9dcba531b149330cff022b3ee6e41d0be4e904445fb48364736f6c6343000804003360806040523480156200001157600080fd5b506040518060400160405280600581526020017f546f6b656e0000000000000000000000000000000000000000000000000000008152506040518060400160405280600381526020017f544f4b00000000000000000000000000000000000000000000000000000000008152506200009e62000092620000d860201b60201c565b620000e060201b60201c565b8160049080519060200190620000b6929190620001a4565b508060059080519060200190620000cf929190620001a4565b505050620002b9565b600033905090565b60008060009054906101000a900473ffffffffffffffffffffffffffffffffffffffff169050816000806101000a81548173ffffffffffffffffffffffffffffffffffffffff021916908373ffffffffffffffffffffffffffffffffffffffff1602179055508173ffffffffffffffffffffffffffffffffffffffff168173ffffffffffffffffffffffffffffffffffffffff167f8be0079c531659141344cd1fd0a4f28419497f9722a3daafe3b4186f6b6457e060405160405180910390a35050565b828054620001b29062000254565b90600052602060002090601f016020900481019282620001d6576000855562000222565b82601f10620001f157805160ff191683800117855562000222565b8280016001018555821562000222579182015b828111156200022157825182559160200191906001019062000204565b5b50905062000231919062000235565b5090565b5b808211156200025057600081600090555060010162000236565b5090565b600060028204905060018216806200026d57607f821691505b602082108114156200028457620002836200028a565b5b50919050565b7f4e487b7100000000000000000000000000000000000000000000000000000000600052602260045260246000fd5b611d3a80620002c96000396000f3fe608060405234801561001057600080fd5b506004361061010b5760003560e01c806370a08231116100a25780639dc29fac116100715780639dc29fac146102be578063a457c2d7146102ee578063a9059cbb1461031e578063dd62ed3e1461034e578063f2fde38b1461037e5761010b565b806370a0823114610248578063715018a6146102785780638da5cb5b1461028257806395d89b41146102a05761010b565b8063313ce567116100de578063313ce567146101ac57806338cc4831146101ca57806339509351146101e857806340c10f19146102185761010b565b806306fdde0314610110578063095ea7b31461012e57806318160ddd1461015e57806323b872dd1461017c575b600080fd5b61011861039a565b60405161012591906115ed565b60405180910390f35b61014860048036038101906101439190611362565b61042c565b60405161015591906115d2565b60405180910390f35b61016661044f565b604051610173919061178f565b60405180910390f35b61019660048036038101906101919190611313565b610459565b6040516101a391906115d2565b60405180910390f35b6101b4610488565b6040516101c191906117aa565b60405180910390f35b6101d2610491565b6040516101df91906115b7565b60405180910390f35b61020260048036038101906101fd9190611362565b610499565b60405161020f91906115d2565b60405180910390f35b610232600480360381019061022d9190611362565b6104d0565b60405161023f91906115d2565b60405180910390f35b610262600480360381019061025d91906112ae565b610562565b60405161026f919061178f565b60405180910390f35b6102806105ab565b005b61028a610633565b60405161029791906115b7565b60405180910390f35b6102a861065c565b6040516102b591906115ed565b60405180910390f35b6102d860048036038101906102d39190611362565b6106ee565b6040516102e591906115d2565b60405180910390f35b61030860048036038101906103039190611362565b610780565b60405161031591906115d2565b60405180910390f35b61033860048036038101906103339190611362565b6107f7565b60405161034591906115d2565b60405180910390f35b610368600480360381019061036391906112d7565b61081a565b604051610375919061178f565b60405180910390f35b610398600480360381019061039391906112ae565b6108a1565b005b6060600480546103a9906118f3565b80601f01602080910402602001604051908101604052809291908181526020018280546103d5906118f3565b80156104225780601f106103f757610100808354040283529160200191610422565b820191906000526020600020905b81548152906001019060200180831161040557829003601f168201915b5050505050905090565b600080610437610999565b90506104448185856109a1565b600191505092915050565b6000600354905090565b600080610464610999565b9050610471858285610b6c565b61047c858585610bf8565b60019150509392505050565b60006012905090565b600030905090565b6000806104a4610999565b90506104c58185856104b6858961081a565b6104c091906117e1565b6109a1565b600191505092915050565b60006104da610999565b73ffffffffffffffffffffffffffffffffffffffff166104f8610633565b73ffffffffffffffffffffffffffffffffffffffff161461054e576040517f08c379a0000000000000000000000000000000000000000000000000000000008152600401610545906116cf565b60405180910390fd5b6105588383610e7c565b6001905092915050565b6000600160008373ffffffffffffffffffffffffffffffffffffffff1673ffffffffffffffffffffffffffffffffffffffff168152602001908152602001600020549050919050565b6105b3610999565b73ffffffffffffffffffffffffffffffffffffffff166105d1610633565b73ffffffffffffffffffffffffffffffffffffffff1614610627576040517f08c379a000000000000000000000000000000000000000000000000000000000815260040161061e906116cf565b60405180910390fd5b6106316000610fdd565b565b60008060009054906101000a900473ffffffffffffffffffffffffffffffffffffffff16905090565b60606005805461066b906118f3565b80601f0160208091040260200160405190810160405280929190818152602001828054610697906118f3565b80156106e45780601f106106b9576101008083540402835291602001916106e4565b820191906000526020600020905b8154815290600101906020018083116106c757829003601f168201915b5050505050905090565b60006106f8610999565b73ffffffffffffffffffffffffffffffffffffffff16610716610633565b73ffffffffffffffffffffffffffffffffffffffff161461076c576040517f08c379a0000000000000000000000000000000000000000000000000000000008152600401610763906116cf565b60405180910390fd5b61077683836110a1565b6001905092915050565b60008061078b610999565b90506000610799828661081a565b9050838110156107de576040517f08c379a00000000000000000000000000000000000000000000000000000000081526004016107d59061174f565b60405180910390fd5b6107eb82868684036109a1565b60019250505092915050565b600080610802610999565b905061080f818585610bf8565b600191505092915050565b6000600260008473ffffffffffffffffffffffffffffffffffffffff1673ffffffffffffffffffffffffffffffffffffffff16815260200190815260200160002060008373ffffffffffffffffffffffffffffffffffffffff1673ffffffffffffffffffffffffffffffffffffffff16815260200190815260200160002054905092915050565b6108a9610999565b73ffffffffffffffffffffffffffffffffffffffff166108c7610633565b73ffffffffffffffffffffffffffffffffffffffff161461091d576040517f08c379a0000000000000000000000000000000000000000000000000000000008152600401610914906116cf565b60405180910390fd5b600073ffffffffffffffffffffffffffffffffffffffff168173ffffffffffffffffffffffffffffffffffffffff16141561098d576040517f08c379a00000000000000000000000000000000000000000000000000000000081526004016109849061164f565b60405180910390fd5b61099681610fdd565b50565b600033905090565b600073ffffffffffffffffffffffffffffffffffffffff168373ffffffffffffffffffffffffffffffffffffffff161415610a11576040517f08c379a0000000000000000000000000000000000000000000000000000000008152600401610a089061172f565b60405180910390fd5b600073ffffffffffffffffffffffffffffffffffffffff168273ffffffffffffffffffffffffffffffffffffffff161415610a81576040517f08c379a0000000000000000000000000000000000000000000000000000000008152600401610a789061166f565b60405180910390fd5b80600260008573ffffffffffffffffffffffffffffffffffffffff1673ffffffffffffffffffffffffffffffffffffffff16815260200190815260200160002060008473ffffffffffffffffffffffffffffffffffffffff1673ffffffffffffffffffffffffffffffffffffffff168152602001908152602001600020819055508173ffffffffffffffffffffffffffffffffffffffff168373ffffffffffffffffffffffffffffffffffffffff167f8c5be1e5ebec7d5bd14f71427d1e84f3dd0314c0f7b2291e5b200ac8c7c3b92583604051610b5f919061178f565b60405180910390a3505050565b6000610b78848461081a565b90507fffffffffffffffffffffffffffffffffffffffffffffffffffffffffffffffff8114610bf25781811015610be4576040517f08c379a0000000000000000000000000000000000000000000000000000000008152600401610bdb9061168f565b60405180910390fd5b610bf184848484036109a1565b5b50505050565b600073ffffffffffffffffffffffffffffffffffffffff168373ffffffffffffffffffffffffffffffffffffffff161415610c68576040517f08c379a0000000000000000000000000000000000000000000000000000000008152600401610c5f9061170f565b60405180910390fd5b600073ffffffffffffffffffffffffffffffffffffffff168273ffffffffffffffffffffffffffffffffffffffff161415610cd8576040517f08c379a0000000000000000000000000000000000000000000000000000000008152600401610ccf9061160f565b60405180910390fd5b610ce383838361127a565b6000600160008573ffffffffffffffffffffffffffffffffffffffff1673ffffffffffffffffffffffffffffffffffffffff16815260200190815260200160002054905081811015610d6a576040517f08c379a0000000000000000000000000000000000000000000000000000000008152600401610d61906116af565b60405180910390fd5b818103600160008673ffffffffffffffffffffffffffffffffffffffff1673ffffffffffffffffffffffffffffffffffffffff1681526020019081526020016000208190555081600160008573ffffffffffffffffffffffffffffffffffffffff1673ffffffffffffffffffffffffffffffffffffffff1681526020019081526020016000206000828254610dff91906117e1565b925050819055508273ffffffffffffffffffffffffffffffffffffffff168473ffffffffffffffffffffffffffffffffffffffff167fddf252ad1be2c89b69c2b068fc378daa952ba7f163c4a11628f55a4df523b3ef84604051610e63919061178f565b60405180910390a3610e7684848461127f565b50505050565b600073ffffffffffffffffffffffffffffffffffffffff168273ffffffffffffffffffffffffffffffffffffffff161415610eec576040517f08c379a0000000000000000000000000000000000000000000000000000000008152600401610ee39061176f565b60405180910390fd5b610ef86000838361127a565b8060036000828254610f0a91906117e1565b9250508190555080600160008473ffffffffffffffffffffffffffffffffffffffff1673ffffffffffffffffffffffffffffffffffffffff1681526020019081526020016000206000828254610f6091906117e1565b925050819055508173ffffffffffffffffffffffffffffffffffffffff16600073ffffffffffffffffffffffffffffffffffffffff167fddf252ad1be2c89b69c2b068fc378daa952ba7f163c4a11628f55a4df523b3ef83604051610fc5919061178f565b60405180910390a3610fd96000838361127f565b5050565b60008060009054906101000a900473ffffffffffffffffffffffffffffffffffffffff169050816000806101000a81548173ffffffffffffffffffffffffffffffffffffffff021916908373ffffffffffffffffffffffffffffffffffffffff1602179055508173ffffffffffffffffffffffffffffffffffffffff168173ffffffffffffffffffffffffffffffffffffffff167f8be0079c531659141344cd1fd0a4f28419497f9722a3daafe3b4186f6b6457e060405160405180910390a35050565b600073ffffffffffffffffffffffffffffffffffffffff168273ffffffffffffffffffffffffffffffffffffffff161415611111576040517f08c379a0000000000000000000000000000000000000000000000000000000008152600401611108906116ef565b60405180910390fd5b61111d8260008361127a565b6000600160008473ffffffffffffffffffffffffffffffffffffffff1673ffffffffffffffffffffffffffffffffffffffff168152602001908152602001600020549050818110156111a4576040517f08c379a000000000000000000000000000000000000000000000000000000000815260040161119b9061162f565b60405180910390fd5b818103600160008573ffffffffffffffffffffffffffffffffffffffff1673ffffffffffffffffffffffffffffffffffffffff1681526020019081526020016000208190555081600360008282546111fc9190611837565b92505081905550600073ffffffffffffffffffffffffffffffffffffffff168373ffffffffffffffffffffffffffffffffffffffff167fddf252ad1be2c89b69c2b068fc378daa952ba7f163c4a11628f55a4df523b3ef84604051611261919061178f565b60405180910390a36112758360008461127f565b505050565b505050565b505050565b60008135905061129381611cd6565b92915050565b6000813590506112a881611ced565b92915050565b6000602082840312156112c057600080fd5b60006112ce84828501611284565b91505092915050565b600080604083850312156112ea57600080fd5b60006112f885828601611284565b925050602061130985828601611284565b9150509250929050565b60008060006060848603121561132857600080fd5b600061133686828701611284565b935050602061134786828701611284565b925050604061135886828701611299565b9150509250925092565b6000806040838503121561137557600080fd5b600061138385828601611284565b925050602061139485828601611299565b9150509250929050565b6113a78161186b565b82525050565b6113b68161187d565b82525050565b60006113c7826117c5565b6113d181856117d0565b93506113e18185602086016118c0565b6113ea81611983565b840191505092915050565b60006114026023836117d0565b915061140d82611994565b604082019050919050565b60006114256022836117d0565b9150611430826119e3565b604082019050919050565b60006114486026836117d0565b915061145382611a32565b604082019050919050565b600061146b6022836117d0565b915061147682611a81565b604082019050919050565b600061148e601d836117d0565b915061149982611ad0565b602082019050919050565b60006114b16026836117d0565b91506114bc82611af9565b604082019050919050565b60006114d46020836117d0565b91506114df82611b48565b602082019050919050565b60006114f76021836117d0565b915061150282611b71565b604082019050919050565b600061151a6025836117d0565b915061152582611bc0565b604082019050919050565b600061153d6024836117d0565b915061154882611c0f565b604082019050919050565b60006115606025836117d0565b915061156b82611c5e565b604082019050919050565b6000611583601f836117d0565b915061158e82611cad565b602082019050919050565b6115a2816118a9565b82525050565b6115b1816118b3565b82525050565b60006020820190506115cc600083018461139e565b92915050565b60006020820190506115e760008301846113ad565b92915050565b6000602082019050818103600083015261160781846113bc565b905092915050565b60006020820190508181036000830152611628816113f5565b9050919050565b6000602082019050818103600083015261164881611418565b9050919050565b600060208201905081810360008301526116688161143b565b9050919050565b600060208201905081810360008301526116888161145e565b9050919050565b600060208201905081810360008301526116a881611481565b9050919050565b600060208201905081810360008301526116c8816114a4565b9050919050565b600060208201905081810360008301526116e8816114c7565b9050919050565b60006020820190508181036000830152611708816114ea565b9050919050565b600060208201905081810360008301526117288161150d565b9050919050565b6000602082019050818103600083015261174881611530565b9050919050565b6000602082019050818103600083015261176881611553565b9050919050565b6000602082019050818103600083015261178881611576565b9050919050565b60006020820190506117a46000830184611599565b92915050565b60006020820190506117bf60008301846115a8565b92915050565b600081519050919050565b600082825260208201905092915050565b60006117ec826118a9565b91506117f7836118a9565b9250827fffffffffffffffffffffffffffffffffffffffffffffffffffffffffffffffff0382111561182c5761182b611925565b5b828201905092915050565b6000611842826118a9565b915061184d836118a9565b9250828210156118605761185f611925565b5b828203905092915050565b600061187682611889565b9050919050565b60008115159050919050565b600073ffffffffffffffffffffffffffffffffffffffff82169050919050565b6000819050919050565b600060ff82169050919050565b60005b838110156118de5780820151818401526020810190506118c3565b838111156118ed576000848401525b50505050565b6000600282049050600182168061190b57607f821691505b6020821081141561191f5761191e611954565b5b50919050565b7f4e487b7100000000000000000000000000000000000000000000000000000000600052601160045260246000fd5b7f4e487b7100000000000000000000000000000000000000000000000000000000600052602260045260246000fd5b6000601f19601f8301169050919050565b7f45524332303a207472616e7366657220746f20746865207a65726f206164647260008201527f6573730000000000000000000000000000000000000000000000000000000000602082015250565b7f45524332303a206275726e20616d6f756e7420657863656564732062616c616e60008201527f6365000000000000000000000000000000000000000000000000000000000000602082015250565b7f4f776e61626c653a206e6577206f776e657220697320746865207a65726f206160008201527f6464726573730000000000000000000000000000000000000000000000000000602082015250565b7f45524332303a20617070726f766520746f20746865207a65726f20616464726560008201527f7373000000000000000000000000000000000000000000000000000000000000602082015250565b7f45524332303a20696e73756666696369656e7420616c6c6f77616e6365000000600082015250565b7f45524332303a207472616e7366657220616d6f756e742065786365656473206260008201527f616c616e63650000000000000000000000000000000000000000000000000000602082015250565b7f4f776e61626c653a2063616c6c6572206973206e6f7420746865206f776e6572600082015250565b7f45524332303a206275726e2066726f6d20746865207a65726f2061646472657360008201527f7300000000000000000000000000000000000000000000000000000000000000602082015250565b7f45524332303a207472616e736665722066726f6d20746865207a65726f20616460008201527f6472657373000000000000000000000000000000000000000000000000000000602082015250565b7f45524332303a20617070726f76652066726f6d20746865207a65726f2061646460008201527f7265737300000000000000000000000000000000000000000000000000000000602082015250565b7f45524332303a2064656372656173656420616c6c6f77616e63652062656c6f7760008201527f207a65726f000000000000000000000000000000000000000000000000000000602082015250565b7f45524332303a206d696e7420746f20746865207a65726f206164647265737300600082015250565b611cdf8161186b565b8114611cea57600080fd5b50565b611cf6816118a9565b8114611d0157600080fd5b5056fea26469706673582212202e133708982a0697d3bd3f6fb70e3455a42470489e29f6180c7e1d144d5b6b8964736f6c6343000804003360806040523480156200001157600080fd5b506040518060400160405280600581526020017f496d6167650000000000000000000000000000000000000000000000000000008152506040518060400160405280600381526020017f494d4700000000000000000000000000000000000000000000000000000000008152506200009e62000092620000d860201b60201c565b620000e060201b60201c565b8160019080519060200190620000b6929190620001a4565b508060029080519060200190620000cf929190620001a4565b505050620002b9565b600033905090565b60008060009054906101000a900473ffffffffffffffffffffffffffffffffffffffff169050816000806101000a81548173ffffffffffffffffffffffffffffffffffffffff021916908373ffffffffffffffffffffffffffffffffffffffff1602179055508173ffffffffffffffffffffffffffffffffffffffff168173ffffffffffffffffffffffffffffffffffffffff167f8be0079c531659141344cd1fd0a4f28419497f9722a3daafe3b4186f6b6457e060405160405180910390a35050565b828054620001b29062000254565b90600052602060002090601f016020900481019282620001d6576000855562000222565b82601f10620001f157805160ff191683800117855562000222565b8280016001018555821562000222579182015b828111156200022157825182559160200191906001019062000204565b5b50905062000231919062000235565b5090565b5b808211156200025057600081600090555060010162000236565b5090565b600060028204905060018216806200026d57607f821691505b602082108114156200028457620002836200028a565b5b50919050565b7f4e487b7100000000000000000000000000000000000000000000000000000000600052602260045260246000fd5b612fe780620002c96000396000f3fe608060405234801561001057600080fd5b50600436106101215760003560e01c80636edbb37e116100ad578063a22cb46511610071578063a22cb4651461031c578063b88d4fde14610338578063c87b56dd14610354578063e985e9c514610384578063f2fde38b146103b457610121565b80636edbb37e1461027657806370a08231146102a6578063715018a6146102d65780638da5cb5b146102e057806395d89b41146102fe57610121565b806323b872dd116100f457806323b872dd146101c057806338cc4831146101dc57806342842e0e146101fa5780634f558e79146102165780636352211e1461024657610121565b806301ffc9a71461012657806306fdde0314610156578063081812fc14610174578063095ea7b3146101a4575b600080fd5b610140600480360381019061013b9190611f96565b6103d0565b60405161014d91906123e2565b60405180910390f35b61015e6104b2565b60405161016b91906123fd565b60405180910390f35b61018e60048036038101906101899190611fe8565b610544565b60405161019b919061237b565b60405180910390f35b6101be60048036038101906101b99190611f5a565b6105c9565b005b6101da60048036038101906101d59190611e00565b6106e1565b005b6101e4610741565b6040516101f1919061237b565b60405180910390f35b610214600480360381019061020f9190611e00565b610749565b005b610230600480360381019061022b9190611fe8565b610769565b60405161023d91906123e2565b60405180910390f35b610260600480360381019061025b9190611fe8565b61077b565b60405161026d919061237b565b60405180910390f35b610290600480360381019061028b9190611f06565b61082d565b60405161029d919061265f565b60405180910390f35b6102c060048036038101906102bb9190611d9b565b610864565b6040516102cd919061265f565b60405180910390f35b6102de61091c565b005b6102e86109a4565b6040516102f5919061237b565b60405180910390f35b6103066109cd565b60405161031391906123fd565b60405180910390f35b61033660048036038101906103319190611eca565b610a5f565b005b610352600480360381019061034d9190611e4f565b610a75565b005b61036e60048036038101906103699190611fe8565b610ad7565b60405161037b91906123fd565b60405180910390f35b61039e60048036038101906103999190611dc4565b610c29565b6040516103ab91906123e2565b60405180910390f35b6103ce60048036038101906103c99190611d9b565b610cbd565b005b60007f80ac58cd000000000000000000000000000000000000000000000000000000007bffffffffffffffffffffffffffffffffffffffffffffffffffffffff1916827bffffffffffffffffffffffffffffffffffffffffffffffffffffffff1916148061049b57507f5b5e139f000000000000000000000000000000000000000000000000000000007bffffffffffffffffffffffffffffffffffffffffffffffffffffffff1916827bffffffffffffffffffffffffffffffffffffffffffffffffffffffff1916145b806104ab57506104aa82610db5565b5b9050919050565b6060600180546104c1906128b5565b80601f01602080910402602001604051908101604052809291908181526020018280546104ed906128b5565b801561053a5780601f1061050f5761010080835404028352916020019161053a565b820191906000526020600020905b81548152906001019060200180831161051d57829003601f168201915b5050505050905090565b600061054f82610e1f565b61058e576040517f08c379a0000000000000000000000000000000000000000000000000000000008152600401610585906125bf565b60405180910390fd5b6005600083815260200190815260200160002060009054906101000a900473ffffffffffffffffffffffffffffffffffffffff169050919050565b60006105d48261077b565b90508073ffffffffffffffffffffffffffffffffffffffff168373ffffffffffffffffffffffffffffffffffffffff161415610645576040517f08c379a000000000000000000000000000000000000000000000000000000000815260040161063c9061261f565b60405180910390fd5b8073ffffffffffffffffffffffffffffffffffffffff16610664610e8b565b73ffffffffffffffffffffffffffffffffffffffff16148061069357506106928161068d610e8b565b610c29565b5b6106d2576040517f08c379a00000000000000000000000000000000000000000000000000000000081526004016106c9906124ff565b60405180910390fd5b6106dc8383610e93565b505050565b6106f26106ec610e8b565b82610f4c565b610731576040517f08c379a00000000000000000000000000000000000000000000000000000000081526004016107289061263f565b60405180910390fd5b61073c83838361102a565b505050565b600030905090565b61076483838360405180602001604052806000815250610a75565b505050565b600061077482610e1f565b9050919050565b6000806003600084815260200190815260200160002060009054906101000a900473ffffffffffffffffffffffffffffffffffffffff169050600073ffffffffffffffffffffffffffffffffffffffff168173ffffffffffffffffffffffffffffffffffffffff161415610824576040517f08c379a000000000000000000000000000000000000000000000000000000000815260040161081b9061253f565b60405180910390fd5b80915050919050565b60008061083a6008611291565b9050610846848261129f565b6108508184611479565b61085a60086114ed565b8091505092915050565b60008073ffffffffffffffffffffffffffffffffffffffff168273ffffffffffffffffffffffffffffffffffffffff1614156108d5576040517f08c379a00000000000000000000000000000000000000000000000000000000081526004016108cc9061251f565b60405180910390fd5b600460008373ffffffffffffffffffffffffffffffffffffffff1673ffffffffffffffffffffffffffffffffffffffff168152602001908152602001600020549050919050565b610924610e8b565b73ffffffffffffffffffffffffffffffffffffffff166109426109a4565b73ffffffffffffffffffffffffffffffffffffffff1614610998576040517f08c379a000000000000000000000000000000000000000000000000000000000815260040161098f906125df565b60405180910390fd5b6109a26000611503565b565b60008060009054906101000a900473ffffffffffffffffffffffffffffffffffffffff16905090565b6060600280546109dc906128b5565b80601f0160208091040260200160405190810160405280929190818152602001828054610a08906128b5565b8015610a555780601f10610a2a57610100808354040283529160200191610a55565b820191906000526020600020905b815481529060010190602001808311610a3857829003601f168201915b5050505050905090565b610a71610a6a610e8b565b83836115c7565b5050565b610a86610a80610e8b565b83610f4c565b610ac5576040517f08c379a0000000000000000000000000000000000000000000000000000000008152600401610abc9061263f565b60405180910390fd5b610ad184848484611734565b50505050565b6060610ae282610e1f565b610b21576040517f08c379a0000000000000000000000000000000000000000000000000000000008152600401610b189061259f565b60405180910390fd5b6000600760008481526020019081526020016000208054610b41906128b5565b80601f0160208091040260200160405190810160405280929190818152602001828054610b6d906128b5565b8015610bba5780601f10610b8f57610100808354040283529160200191610bba565b820191906000526020600020905b815481529060010190602001808311610b9d57829003601f168201915b505050505090506000610bcb611790565b9050600081511415610be1578192505050610c24565b600082511115610c16578082604051602001610bfe929190612357565b60405160208183030381529060405292505050610c24565b610c1f846117a7565b925050505b919050565b6000600660008473ffffffffffffffffffffffffffffffffffffffff1673ffffffffffffffffffffffffffffffffffffffff16815260200190815260200160002060008373ffffffffffffffffffffffffffffffffffffffff1673ffffffffffffffffffffffffffffffffffffffff16815260200190815260200160002060009054906101000a900460ff16905092915050565b610cc5610e8b565b73ffffffffffffffffffffffffffffffffffffffff16610ce36109a4565b73ffffffffffffffffffffffffffffffffffffffff1614610d39576040517f08c379a0000000000000000000000000000000000000000000000000000000008152600401610d30906125df565b60405180910390fd5b600073ffffffffffffffffffffffffffffffffffffffff168173ffffffffffffffffffffffffffffffffffffffff161415610da9576040517f08c379a0000000000000000000000000000000000000000000000000000000008152600401610da09061243f565b60405180910390fd5b610db281611503565b50565b60007f01ffc9a7000000000000000000000000000000000000000000000000000000007bffffffffffffffffffffffffffffffffffffffffffffffffffffffff1916827bffffffffffffffffffffffffffffffffffffffffffffffffffffffff1916149050919050565b60008073ffffffffffffffffffffffffffffffffffffffff166003600084815260200190815260200160002060009054906101000a900473ffffffffffffffffffffffffffffffffffffffff1673ffffffffffffffffffffffffffffffffffffffff1614159050919050565b600033905090565b816005600083815260200190815260200160002060006101000a81548173ffffffffffffffffffffffffffffffffffffffff021916908373ffffffffffffffffffffffffffffffffffffffff160217905550808273ffffffffffffffffffffffffffffffffffffffff16610f068361077b565b73ffffffffffffffffffffffffffffffffffffffff167f8c5be1e5ebec7d5bd14f71427d1e84f3dd0314c0f7b2291e5b200ac8c7c3b92560405160405180910390a45050565b6000610f5782610e1f565b610f96576040517f08c379a0000000000000000000000000000000000000000000000000000000008152600401610f8d906124df565b60405180910390fd5b6000610fa18361077b565b90508073ffffffffffffffffffffffffffffffffffffffff168473ffffffffffffffffffffffffffffffffffffffff161480610fe35750610fe28185610c29565b5b8061102157508373ffffffffffffffffffffffffffffffffffffffff1661100984610544565b73ffffffffffffffffffffffffffffffffffffffff16145b91505092915050565b8273ffffffffffffffffffffffffffffffffffffffff1661104a8261077b565b73ffffffffffffffffffffffffffffffffffffffff16146110a0576040517f08c379a00000000000000000000000000000000000000000000000000000000081526004016110979061245f565b60405180910390fd5b600073ffffffffffffffffffffffffffffffffffffffff168273ffffffffffffffffffffffffffffffffffffffff161415611110576040517f08c379a00000000000000000000000000000000000000000000000000000000081526004016111079061249f565b60405180910390fd5b61111b83838361184e565b611126600082610e93565b6001600460008573ffffffffffffffffffffffffffffffffffffffff1673ffffffffffffffffffffffffffffffffffffffff168152602001908152602001600020600082825461117691906127cb565b925050819055506001600460008473ffffffffffffffffffffffffffffffffffffffff1673ffffffffffffffffffffffffffffffffffffffff16815260200190815260200160002060008282546111cd9190612744565b92505081905550816003600083815260200190815260200160002060006101000a81548173ffffffffffffffffffffffffffffffffffffffff021916908373ffffffffffffffffffffffffffffffffffffffff160217905550808273ffffffffffffffffffffffffffffffffffffffff168473ffffffffffffffffffffffffffffffffffffffff167fddf252ad1be2c89b69c2b068fc378daa952ba7f163c4a11628f55a4df523b3ef60405160405180910390a461128c838383611853565b505050565b600081600001549050919050565b600073ffffffffffffffffffffffffffffffffffffffff168273ffffffffffffffffffffffffffffffffffffffff16141561130f576040517f08c379a00000000000000000000000000000000000000000000000000000000081526004016113069061257f565b60405180910390fd5b61131881610e1f565b15611358576040517f08c379a000000000000000000000000000000000000000000000000000000000815260040161134f9061247f565b60405180910390fd5b6113646000838361184e565b6001600460008473ffffffffffffffffffffffffffffffffffffffff1673ffffffffffffffffffffffffffffffffffffffff16815260200190815260200160002060008282546113b49190612744565b92505081905550816003600083815260200190815260200160002060006101000a81548173ffffffffffffffffffffffffffffffffffffffff021916908373ffffffffffffffffffffffffffffffffffffffff160217905550808273ffffffffffffffffffffffffffffffffffffffff16600073ffffffffffffffffffffffffffffffffffffffff167fddf252ad1be2c89b69c2b068fc378daa952ba7f163c4a11628f55a4df523b3ef60405160405180910390a461147560008383611853565b5050565b61148282610e1f565b6114c1576040517f08c379a00000000000000000000000000000000000000000000000000000000081526004016114b89061255f565b60405180910390fd5b806007600084815260200190815260200160002090805190602001906114e8929190611bbf565b505050565b6001816000016000828254019250508190555050565b60008060009054906101000a900473ffffffffffffffffffffffffffffffffffffffff169050816000806101000a81548173ffffffffffffffffffffffffffffffffffffffff021916908373ffffffffffffffffffffffffffffffffffffffff1602179055508173ffffffffffffffffffffffffffffffffffffffff168173ffffffffffffffffffffffffffffffffffffffff167f8be0079c531659141344cd1fd0a4f28419497f9722a3daafe3b4186f6b6457e060405160405180910390a35050565b8173ffffffffffffffffffffffffffffffffffffffff168373ffffffffffffffffffffffffffffffffffffffff161415611636576040517f08c379a000000000000000000000000000000000000000000000000000000000815260040161162d906124bf565b60405180910390fd5b80600660008573ffffffffffffffffffffffffffffffffffffffff1673ffffffffffffffffffffffffffffffffffffffff16815260200190815260200160002060008473ffffffffffffffffffffffffffffffffffffffff1673ffffffffffffffffffffffffffffffffffffffff16815260200190815260200160002060006101000a81548160ff0219169083151502179055508173ffffffffffffffffffffffffffffffffffffffff168373ffffffffffffffffffffffffffffffffffffffff167f17307eab39ab6107e8899845ad3d59bd9653f200f220920489ca2b5937696c318360405161172791906123e2565b60405180910390a3505050565b61173f84848461102a565b61174b84848484611858565b61178a576040517f08c379a00000000000000000000000000000000000000000000000000000000081526004016117819061241f565b60405180910390fd5b50505050565b606060405180602001604052806000815250905090565b60606117b282610e1f565b6117f1576040517f08c379a00000000000000000000000000000000000000000000000000000000081526004016117e8906125ff565b60405180910390fd5b60006117fb611790565b9050600081511161181b5760405180602001604052806000815250611846565b80611825846119ef565b604051602001611836929190612357565b6040516020818303038152906040525b915050919050565b505050565b505050565b60006118798473ffffffffffffffffffffffffffffffffffffffff16611b9c565b156119e2578373ffffffffffffffffffffffffffffffffffffffff1663150b7a026118a2610e8b565b8786866040518563ffffffff1660e01b81526004016118c49493929190612396565b602060405180830381600087803b1580156118de57600080fd5b505af192505050801561190f57506040513d601f19601f8201168201806040525081019061190c9190611fbf565b60015b611992573d806000811461193f576040519150601f19603f3d011682016040523d82523d6000602084013e611944565b606091505b5060008151141561198a576040517f08c379a00000000000000000000000000000000000000000000000000000000081526004016119819061241f565b60405180910390fd5b805181602001fd5b63150b7a0260e01b7bffffffffffffffffffffffffffffffffffffffffffffffffffffffff1916817bffffffffffffffffffffffffffffffffffffffffffffffffffffffff1916149150506119e7565b600190505b949350505050565b60606000821415611a37576040518060400160405280600181526020017f30000000000000000000000000000000000000000000000000000000000000008152509050611b97565b600082905060005b60008214611a69578080611a5290612918565b915050600a82611a62919061279a565b9150611a3f565b60008167ffffffffffffffff811115611aab577f4e487b7100000000000000000000000000000000000000000000000000000000600052604160045260246000fd5b6040519080825280601f01601f191660200182016040528015611add5781602001600182028036833780820191505090505b5090505b60008514611b9057600182611af691906127cb565b9150600a85611b059190612961565b6030611b119190612744565b60f81b818381518110611b4d577f4e487b7100000000000000000000000000000000000000000000000000000000600052603260045260246000fd5b60200101907effffffffffffffffffffffffffffffffffffffffffffffffffffffffffffff1916908160001a905350600a85611b89919061279a565b9450611ae1565b8093505050505b919050565b6000808273ffffffffffffffffffffffffffffffffffffffff163b119050919050565b828054611bcb906128b5565b90600052602060002090601f016020900481019282611bed5760008555611c34565b82601f10611c0657805160ff1916838001178555611c34565b82800160010185558215611c34579182015b82811115611c33578251825591602001919060010190611c18565b5b509050611c419190611c45565b5090565b5b80821115611c5e576000816000905550600101611c46565b5090565b6000611c75611c708461269f565b61267a565b905082815260208101848484011115611c8d57600080fd5b611c98848285612873565b509392505050565b6000611cb3611cae846126d0565b61267a565b905082815260208101848484011115611ccb57600080fd5b611cd6848285612873565b509392505050565b600081359050611ced81612f55565b92915050565b600081359050611d0281612f6c565b92915050565b600081359050611d1781612f83565b92915050565b600081519050611d2c81612f83565b92915050565b600082601f830112611d4357600080fd5b8135611d53848260208601611c62565b91505092915050565b600082601f830112611d6d57600080fd5b8135611d7d848260208601611ca0565b91505092915050565b600081359050611d9581612f9a565b92915050565b600060208284031215611dad57600080fd5b6000611dbb84828501611cde565b91505092915050565b60008060408385031215611dd757600080fd5b6000611de585828601611cde565b9250506020611df685828601611cde565b9150509250929050565b600080600060608486031215611e1557600080fd5b6000611e2386828701611cde565b9350506020611e3486828701611cde565b9250506040611e4586828701611d86565b9150509250925092565b60008060008060808587031215611e6557600080fd5b6000611e7387828801611cde565b9450506020611e8487828801611cde565b9350506040611e9587828801611d86565b925050606085013567ffffffffffffffff811115611eb257600080fd5b611ebe87828801611d32565b91505092959194509250565b60008060408385031215611edd57600080fd5b6000611eeb85828601611cde565b9250506020611efc85828601611cf3565b9150509250929050565b60008060408385031215611f1957600080fd5b6000611f2785828601611cde565b925050602083013567ffffffffffffffff811115611f4457600080fd5b611f5085828601611d5c565b9150509250929050565b60008060408385031215611f6d57600080fd5b6000611f7b85828601611cde565b9250506020611f8c85828601611d86565b9150509250929050565b600060208284031215611fa857600080fd5b6000611fb684828501611d08565b91505092915050565b600060208284031215611fd157600080fd5b6000611fdf84828501611d1d565b91505092915050565b600060208284031215611ffa57600080fd5b600061200884828501611d86565b91505092915050565b61201a816127ff565b82525050565b61202981612811565b82525050565b600061203a82612701565b6120448185612717565b9350612054818560208601612882565b61205d81612a4e565b840191505092915050565b60006120738261270c565b61207d8185612728565b935061208d818560208601612882565b61209681612a4e565b840191505092915050565b60006120ac8261270c565b6120b68185612739565b93506120c6818560208601612882565b80840191505092915050565b60006120df603283612728565b91506120ea82612a5f565b604082019050919050565b6000612102602683612728565b915061210d82612aae565b604082019050919050565b6000612125602583612728565b915061213082612afd565b604082019050919050565b6000612148601c83612728565b915061215382612b4c565b602082019050919050565b600061216b602483612728565b915061217682612b75565b604082019050919050565b600061218e601983612728565b915061219982612bc4565b602082019050919050565b60006121b1602c83612728565b91506121bc82612bed565b604082019050919050565b60006121d4603883612728565b91506121df82612c3c565b604082019050919050565b60006121f7602a83612728565b915061220282612c8b565b604082019050919050565b600061221a602983612728565b915061222582612cda565b604082019050919050565b600061223d602e83612728565b915061224882612d29565b604082019050919050565b6000612260602083612728565b915061226b82612d78565b602082019050919050565b6000612283603183612728565b915061228e82612da1565b604082019050919050565b60006122a6602c83612728565b91506122b182612df0565b604082019050919050565b60006122c9602083612728565b91506122d482612e3f565b602082019050919050565b60006122ec602f83612728565b91506122f782612e68565b604082019050919050565b600061230f602183612728565b915061231a82612eb7565b604082019050919050565b6000612332603183612728565b915061233d82612f06565b604082019050919050565b61235181612869565b82525050565b600061236382856120a1565b915061236f82846120a1565b91508190509392505050565b60006020820190506123906000830184612011565b92915050565b60006080820190506123ab6000830187612011565b6123b86020830186612011565b6123c56040830185612348565b81810360608301526123d7818461202f565b905095945050505050565b60006020820190506123f76000830184612020565b92915050565b600060208201905081810360008301526124178184612068565b905092915050565b60006020820190508181036000830152612438816120d2565b9050919050565b60006020820190508181036000830152612458816120f5565b9050919050565b6000602082019050818103600083015261247881612118565b9050919050565b600060208201905081810360008301526124988161213b565b9050919050565b600060208201905081810360008301526124b88161215e565b9050919050565b600060208201905081810360008301526124d881612181565b9050919050565b600060208201905081810360008301526124f8816121a4565b9050919050565b60006020820190508181036000830152612518816121c7565b9050919050565b60006020820190508181036000830152612538816121ea565b9050919050565b600060208201905081810360008301526125588161220d565b9050919050565b6000602082019050818103600083015261257881612230565b9050919050565b6000602082019050818103600083015261259881612253565b9050919050565b600060208201905081810360008301526125b881612276565b9050919050565b600060208201905081810360008301526125d881612299565b9050919050565b600060208201905081810360008301526125f8816122bc565b9050919050565b60006020820190508181036000830152612618816122df565b9050919050565b6000602082019050818103600083015261263881612302565b9050919050565b6000602082019050818103600083015261265881612325565b9050919050565b60006020820190506126746000830184612348565b92915050565b6000612684612695565b905061269082826128e7565b919050565b6000604051905090565b600067ffffffffffffffff8211156126ba576126b9612a1f565b5b6126c382612a4e565b9050602081019050919050565b600067ffffffffffffffff8211156126eb576126ea612a1f565b5b6126f482612a4e565b9050602081019050919050565b600081519050919050565b600081519050919050565b600082825260208201905092915050565b600082825260208201905092915050565b600081905092915050565b600061274f82612869565b915061275a83612869565b9250827fffffffffffffffffffffffffffffffffffffffffffffffffffffffffffffffff0382111561278f5761278e612992565b5b828201905092915050565b60006127a582612869565b91506127b083612869565b9250826127c0576127bf6129c1565b5b828204905092915050565b60006127d682612869565b91506127e183612869565b9250828210156127f4576127f3612992565b5b828203905092915050565b600061280a82612849565b9050919050565b60008115159050919050565b60007fffffffff0000000000000000000000000000000000000000000000000000000082169050919050565b600073ffffffffffffffffffffffffffffffffffffffff82169050919050565b6000819050919050565b82818337600083830152505050565b60005b838110156128a0578082015181840152602081019050612885565b838111156128af576000848401525b50505050565b600060028204905060018216806128cd57607f821691505b602082108114156128e1576128e06129f0565b5b50919050565b6128f082612a4e565b810181811067ffffffffffffffff8211171561290f5761290e612a1f565b5b80604052505050565b600061292382612869565b91507fffffffffffffffffffffffffffffffffffffffffffffffffffffffffffffffff82141561295657612955612992565b5b600182019050919050565b600061296c82612869565b915061297783612869565b925082612987576129866129c1565b5b828206905092915050565b7f4e487b7100000000000000000000000000000000000000000000000000000000600052601160045260246000fd5b7f4e487b7100000000000000000000000000000000000000000000000000000000600052601260045260246000fd5b7f4e487b7100000000000000000000000000000000000000000000000000000000600052602260045260246000fd5b7f4e487b7100000000000000000000000000000000000000000000000000000000600052604160045260246000fd5b6000601f19601f8301169050919050565b7f4552433732313a207472616e7366657220746f206e6f6e20455243373231526560008201527f63656976657220696d706c656d656e7465720000000000000000000000000000602082015250565b7f4f776e61626c653a206e6577206f776e657220697320746865207a65726f206160008201527f6464726573730000000000000000000000000000000000000000000000000000602082015250565b7f4552433732313a207472616e736665722066726f6d20696e636f72726563742060008201527f6f776e6572000000000000000000000000000000000000000000000000000000602082015250565b7f4552433732313a20746f6b656e20616c7265616479206d696e74656400000000600082015250565b7f4552433732313a207472616e7366657220746f20746865207a65726f2061646460008201527f7265737300000000000000000000000000000000000000000000000000000000602082015250565b7f4552433732313a20617070726f766520746f2063616c6c657200000000000000600082015250565b7f4552433732313a206f70657261746f7220717565727920666f72206e6f6e657860008201527f697374656e7420746f6b656e0000000000000000000000000000000000000000602082015250565b7f4552433732313a20617070726f76652063616c6c6572206973206e6f74206f7760008201527f6e6572206e6f7220617070726f76656420666f7220616c6c0000000000000000602082015250565b7f4552433732313a2062616c616e636520717565727920666f7220746865207a6560008201527f726f206164647265737300000000000000000000000000000000000000000000602082015250565b7f4552433732313a206f776e657220717565727920666f72206e6f6e657869737460008201527f656e7420746f6b656e0000000000000000000000000000000000000000000000602082015250565b7f45524337323155524953746f726167653a2055524920736574206f66206e6f6e60008201527f6578697374656e7420746f6b656e000000000000000000000000000000000000602082015250565b7f4552433732313a206d696e7420746f20746865207a65726f2061646472657373600082015250565b7f45524337323155524953746f726167653a2055524920717565727920666f722060008201527f6e6f6e6578697374656e7420746f6b656e000000000000000000000000000000602082015250565b7f4552433732313a20617070726f76656420717565727920666f72206e6f6e657860008201527f697374656e7420746f6b656e0000000000000000000000000000000000000000602082015250565b7f4f776e61626c653a2063616c6c6572206973206e6f7420746865206f776e6572600082015250565b7f4552433732314d657461646174613a2055524920717565727920666f72206e6f60008201527f6e6578697374656e7420746f6b656e0000000000000000000000000000000000602082015250565b7f4552433732313a20617070726f76616c20746f2063757272656e74206f776e6560008201527f7200000000000000000000000000000000000000000000000000000000000000602082015250565b7f4552433732313a207472616e736665722063616c6c6572206973206e6f74206f60008201527f776e6572206e6f7220617070726f766564000000000000000000000000000000602082015250565b612f5e816127ff565b8114612f6957600080fd5b50565b612f7581612811565b8114612f8057600080fd5b50565b612f8c8161281d565b8114612f9757600080fd5b50565b612fa381612869565b8114612fae57600080fd5b5056fea2646970667358221220f1c6e5c901da3e3678738a4ec766d26dbcbbe858d88083a5be73301610bd851564736f6c63430008040033608060405234801561001057600080fd5b5033600160006101000a81548173ffffffffffffffffffffffffffffffffffffffff021916908373ffffffffffffffffffffffffffffffffffffffff160217905550610be2806100616000396000f3fe608060405234801561001057600080fd5b50600436106100885760003560e01c8063b3de019c1161005b578063b3de019c14610101578063b9db15b41461011d578063cb51bba91461014d578063e75722301461017d57610088565b806302ee3a521461008d57806338cc4831146100ab5780635ee95cae146100c95780638b692479146100e5575b600080fd5b6100956101ad565b6040516100a29190610a10565b60405180910390f35b6100b3610347565b6040516100c091906109f5565b60405180910390f35b6100e360048036038101906100de9190610834565b61034f565b005b6100ff60048036038101906100fa919061085d565b610586565b005b61011b6004803603810190610116919061085d565b6106a7565b005b61013760048036038101906101329190610834565b61074d565b6040516101449190610a32565b60405180910390f35b61016760048036038101906101629190610834565b6107b2565b6040516101749190610a4d565b60405180910390f35b61019760048036038101906101929190610834565b6107d6565b6040516101a49190610a4d565b60405180910390f35b60606000600280549050905060008167ffffffffffffffff8111156101fb577f4e487b7100000000000000000000000000000000000000000000000000000000600052604160045260246000fd5b60405190808252806020026020018201604052801561023457816020015b6102216107f5565b8152602001906001900390816102195790505b50905060005b60028054905081101561033e57600080600060028481548110610286577f4e487b7100000000000000000000000000000000000000000000000000000000600052603260045260246000fd5b906000526020600020015481526020019081526020016000206040518060800160405290816000820154815260200160018201548152602001600282015481526020016003820160009054906101000a900460ff16151515158152505090508083838151811061031f577f4e487b7100000000000000000000000000000000000000000000000000000000600052603260045260246000fd5b602002602001018190525050808061033690610b1d565b91505061023a565b50809250505090565b600030905090565b3373ffffffffffffffffffffffffffffffffffffffff16600160009054906101000a900473ffffffffffffffffffffffffffffffffffffffff1673ffffffffffffffffffffffffffffffffffffffff161415806103cc575060008082815260200190815260200160002060030160009054906101000a900460ff16155b156103d657610583565b6000806000838152602001908152602001600020600201549050600080600084815260200190815260200160002060030160006101000a81548160ff02191690831515021790555060016002805490506104309190610aa1565b8114610533576002600160028054905061044a9190610aa1565b81548110610481577f4e487b7100000000000000000000000000000000000000000000000000000000600052603260045260246000fd5b9060005260206000200154600282815481106104c6577f4e487b7100000000000000000000000000000000000000000000000000000000600052603260045260246000fd5b90600052602060002001819055508060008060028481548110610512577f4e487b7100000000000000000000000000000000000000000000000000000000600052603260045260246000fd5b90600052602060002001548152602001908152602001600020600201819055505b600280548061056b577f4e487b7100000000000000000000000000000000000000000000000000000000600052603160045260246000fd5b60019003818190600052602060002001600090559055505b50565b60008060008481526020019081526020016000206040518060800160405290816000820154815260200160018201548152602001600282015481526020016003820160009054906101000a900460ff16151515158152505090508060600151156105f057506106a3565b818160200181815250508281600001818152505060018160600190151590811515815250506002805490508160400181815250508060008085815260200190815260200160002060008201518160000155602082015181600101556040820151816002015560608201518160030160006101000a81548160ff0219169083151502179055509050506002839080600181540180825580915050600190039060005260206000200160009091909190915055505b5050565b3373ffffffffffffffffffffffffffffffffffffffff16600160009054906101000a900473ffffffffffffffffffffffffffffffffffffffff1673ffffffffffffffffffffffffffffffffffffffff16141580610724575060008083815260200190815260200160002060030160009054906101000a900460ff16155b1561072e57610749565b80600080848152602001908152602001600020600101819055505b5050565b6107556107f5565b6000808381526020019081526020016000206040518060800160405290816000820154815260200160018201548152602001600282015481526020016003820160009054906101000a900460ff1615151515815250509050919050565b600281815481106107c257600080fd5b906000526020600020016000915090505481565b6000806000838152602001908152602001600020600101549050919050565b60405180608001604052806000815260200160008152602001600081526020016000151581525090565b60008135905061082e81610b95565b92915050565b60006020828403121561084657600080fd5b60006108548482850161081f565b91505092915050565b6000806040838503121561087057600080fd5b600061087e8582860161081f565b925050602061088f8582860161081f565b9150509250929050565b60006108a5838361092d565b60808301905092915050565b6108ba81610ad5565b82525050565b60006108cb82610a78565b6108d58185610a90565b93506108e083610a68565b8060005b838110156109115781516108f88882610899565b975061090383610a83565b9250506001810190506108e4565b5085935050505092915050565b61092781610ae7565b82525050565b60808201600082015161094360008501826109d7565b50602082015161095660208501826109d7565b50604082015161096960408501826109d7565b50606082015161097c606085018261091e565b50505050565b60808201600082015161099860008501826109d7565b5060208201516109ab60208501826109d7565b5060408201516109be60408501826109d7565b5060608201516109d1606085018261091e565b50505050565b6109e081610b13565b82525050565b6109ef81610b13565b82525050565b6000602082019050610a0a60008301846108b1565b92915050565b60006020820190508181036000830152610a2a81846108c0565b905092915050565b6000608082019050610a476000830184610982565b92915050565b6000602082019050610a6260008301846109e6565b92915050565b6000819050602082019050919050565b600081519050919050565b6000602082019050919050565b600082825260208201905092915050565b6000610aac82610b13565b9150610ab783610b13565b925082821015610aca57610ac9610b66565b5b828203905092915050565b6000610ae082610af3565b9050919050565b60008115159050919050565b600073ffffffffffffffffffffffffffffffffffffffff82169050919050565b6000819050919050565b6000610b2882610b13565b91507fffffffffffffffffffffffffffffffffffffffffffffffffffffffffffffffff821415610b5b57610b5a610b66565b5b600182019050919050565b7f4e487b7100000000000000000000000000000000000000000000000000000000600052601160045260246000fd5b610b9e81610b13565b8114610ba957600080fd5b5056fea2646970667358221220fb3b2e73b4152d4ba15934b226581dc4783bf3092f34f9f38f89c99069d04b1d64736f6c63430008040033",
  "linkReferences": {},
  "deployedLinkReferences": {}
}