{
  "_format": "hh-sol-artifact-1",
  "contractName": "Image",
  "sourceName": "contracts/Image.sol",
  "abi": [
    {
      "inputs": [],
      "stateMutability": "nonpayable",
      "type": "constructor"
    },
    {
      "anonymous": false,
      "inputs": [
        {
          "indexed": true,
          "internalType": "address",
          "name": "owner",
          "type": "address"
        },
        {
          "indexed": true,
          "internalType": "address",
          "name": "approved",
          "type": "address"
        },
        {
          "indexed": true,
          "internalType": "uint256",
          "name": "tokenId",
          "type": "uint256"
        }
      ],
      "name": "Approval",
      "type": "event"
    },
    {
      "anonymous": false,
      "inputs": [
        {
          "indexed": true,
          "internalType": "address",
          "name": "owner",
          "type": "address"
        },
        {
          "indexed": true,
          "internalType": "address",
          "name": "operator",
          "type": "address"
        },
        {
          "indexed": false,
          "internalType": "bool",
          "name": "approved",
          "type": "bool"
        }
      ],
      "name": "ApprovalForAll",
      "type": "event"
    },
    {
      "anonymous": false,
      "inputs": [
        {
          "indexed": true,
          "internalType": "address",
          "name": "previousOwner",
          "type": "address"
        },
        {
          "indexed": true,
          "internalType": "address",
          "name": "newOwner",
          "type": "address"
        }
      ],
      "name": "OwnershipTransferred",
      "type": "event"
    },
    {
      "anonymous": false,
      "inputs": [
        {
          "indexed": true,
          "internalType": "address",
          "name": "from",
          "type": "address"
        },
        {
          "indexed": true,
          "internalType": "address",
          "name": "to",
          "type": "address"
        },
        {
          "indexed": true,
          "internalType": "uint256",
          "name": "tokenId",
          "type": "uint256"
        }
      ],
      "name": "Transfer",
      "type": "event"
    },
    {
      "inputs": [
        {
          "internalType": "address",
          "name": "creator",
          "type": "address"
        },
        {
          "internalType": "string",
          "name": "tokenURI",
          "type": "string"
        }
      ],
      "name": "addImage",
      "outputs": [
        {
          "internalType": "uint256",
          "name": "",
          "type": "uint256"
        }
      ],
      "stateMutability": "nonpayable",
      "type": "function"
    },
    {
      "inputs": [
        {
          "internalType": "address",
          "name": "to",
          "type": "address"
        },
        {
          "internalType": "uint256",
          "name": "tokenId",
          "type": "uint256"
        }
      ],
      "name": "approve",
      "outputs": [],
      "stateMutability": "nonpayable",
      "type": "function"
    },
    {
      "inputs": [
        {
          "internalType": "address",
          "name": "owner",
          "type": "address"
        }
      ],
      "name": "balanceOf",
      "outputs": [
        {
          "internalType": "uint256",
          "name": "",
          "type": "uint256"
        }
      ],
      "stateMutability": "view",
      "type": "function"
    },
    {
      "inputs": [
        {
          "internalType": "uint256",
          "name": "id",
          "type": "uint256"
        }
      ],
      "name": "exists",
      "outputs": [
        {
          "internalType": "bool",
          "name": "",
          "type": "bool"
        }
      ],
      "stateMutability": "view",
      "type": "function"
    },
    {
      "inputs": [],
      "name": "getAddress",
      "outputs": [
        {
          "internalType": "address",
          "name": "",
          "type": "address"
        }
      ],
      "stateMutability": "view",
      "type": "function"
    },
    {
      "inputs": [
        {
          "internalType": "uint256",
          "name": "tokenId",
          "type": "uint256"
        }
      ],
      "name": "getApproved",
      "outputs": [
        {
          "internalType": "address",
          "name": "",
          "type": "address"
        }
      ],
      "stateMutability": "view",
      "type": "function"
    },
    {
      "inputs": [
        {
          "internalType": "address",
          "name": "owner",
          "type": "address"
        },
        {
          "internalType": "address",
          "name": "operator",
          "type": "address"
        }
      ],
      "name": "isApprovedForAll",
      "outputs": [
        {
          "internalType": "bool",
          "name": "",
          "type": "bool"
        }
      ],
      "stateMutability": "view",
      "type": "function"
    },
    {
      "inputs": [],
      "name": "name",
      "outputs": [
        {
          "internalType": "string",
          "name": "",
          "type": "string"
        }
      ],
      "stateMutability": "view",
      "type": "function"
    },
    {
      "inputs": [],
      "name": "owner",
      "outputs": [
        {
          "internalType": "address",
          "name": "",
          "type": "address"
        }
      ],
      "stateMutability": "view",
      "type": "function"
    },
    {
      "inputs": [
        {
          "internalType": "uint256",
          "name": "tokenId",
          "type": "uint256"
        }
      ],
      "name": "ownerOf",
      "outputs": [
        {
          "internalType": "address",
          "name": "",
          "type": "address"
        }
      ],
      "stateMutability": "view",
      "type": "function"
    },
    {
      "inputs": [],
      "name": "renounceOwnership",
      "outputs": [],
      "stateMutability": "nonpayable",
      "type": "function"
    },
    {
      "inputs": [
        {
          "internalType": "address",
          "name": "from",
          "type": "address"
        },
        {
          "internalType": "address",
          "name": "to",
          "type": "address"
        },
        {
          "internalType": "uint256",
          "name": "tokenId",
          "type": "uint256"
        }
      ],
      "name": "safeTransferFrom",
      "outputs": [],
      "stateMutability": "nonpayable",
      "type": "function"
    },
    {
      "inputs": [
        {
          "internalType": "address",
          "name": "from",
          "type": "address"
        },
        {
          "internalType": "address",
          "name": "to",
          "type": "address"
        },
        {
          "internalType": "uint256",
          "name": "tokenId",
          "type": "uint256"
        },
        {
          "internalType": "bytes",
          "name": "_data",
          "type": "bytes"
        }
      ],
      "name": "safeTransferFrom",
      "outputs": [],
      "stateMutability": "nonpayable",
      "type": "function"
    },
    {
      "inputs": [
        {
          "internalType": "address",
          "name": "operator",
          "type": "address"
        },
        {
          "internalType": "bool",
          "name": "approved",
          "type": "bool"
        }
      ],
      "name": "setApprovalForAll",
      "outputs": [],
      "stateMutability": "nonpayable",
      "type": "function"
    },
    {
      "inputs": [
        {
          "internalType": "bytes4",
          "name": "interfaceId",
          "type": "bytes4"
        }
      ],
      "name": "supportsInterface",
      "outputs": [
        {
          "internalType": "bool",
          "name": "",
          "type": "bool"
        }
      ],
      "stateMutability": "view",
      "type": "function"
    },
    {
      "inputs": [],
      "name": "symbol",
      "outputs": [
        {
          "internalType": "string",
          "name": "",
          "type": "string"
        }
      ],
      "stateMutability": "view",
      "type": "function"
    },
    {
      "inputs": [
        {
          "internalType": "uint256",
          "name": "tokenId",
          "type": "uint256"
        }
      ],
      "name": "tokenURI",
      "outputs": [
        {
          "internalType": "string",
          "name": "",
          "type": "string"
        }
      ],
      "stateMutability": "view",
      "type": "function"
    },
    {
      "inputs": [
        {
          "internalType": "address",
          "name": "from",
          "type": "address"
        },
        {
          "internalType": "address",
          "name": "to",
          "type": "address"
        },
        {
          "internalType": "uint256",
          "name": "tokenId",
          "type": "uint256"
        }
      ],
      "name": "transferFrom",
      "outputs": [],
      "stateMutability": "nonpayable",
      "type": "function"
    },
    {
      "inputs": [
        {
          "internalType": "address",
          "name": "newOwner",
          "type": "address"
        }
      ],
      "name": "transferOwnership",
      "outputs": [],
      "stateMutability": "nonpayable",
      "type": "function"
    }
  ],
  "bytecode": "0x60806040523480156200001157600080fd5b506040518060400160405280600581526020017f496d6167650000000000000000000000000000000000000000000000000000008152506040518060400160405280600381526020017f494d4700000000000000000000000000000000000000000000000000000000008152506200009e62000092620000d860201b60201c565b620000e060201b60201c565b8160019080519060200190620000b6929190620001a4565b508060029080519060200190620000cf929190620001a4565b505050620002b9565b600033905090565b60008060009054906101000a900473ffffffffffffffffffffffffffffffffffffffff169050816000806101000a81548173ffffffffffffffffffffffffffffffffffffffff021916908373ffffffffffffffffffffffffffffffffffffffff1602179055508173ffffffffffffffffffffffffffffffffffffffff168173ffffffffffffffffffffffffffffffffffffffff167f8be0079c531659141344cd1fd0a4f28419497f9722a3daafe3b4186f6b6457e060405160405180910390a35050565b828054620001b29062000254565b90600052602060002090601f016020900481019282620001d6576000855562000222565b82601f10620001f157805160ff191683800117855562000222565b8280016001018555821562000222579182015b828111156200022157825182559160200191906001019062000204565b5b50905062000231919062000235565b5090565b5b808211156200025057600081600090555060010162000236565b5090565b600060028204905060018216806200026d57607f821691505b602082108114156200028457620002836200028a565b5b50919050565b7f4e487b7100000000000000000000000000000000000000000000000000000000600052602260045260246000fd5b612fe780620002c96000396000f3fe608060405234801561001057600080fd5b50600436106101215760003560e01c80636edbb37e116100ad578063a22cb46511610071578063a22cb4651461031c578063b88d4fde14610338578063c87b56dd14610354578063e985e9c514610384578063f2fde38b146103b457610121565b80636edbb37e1461027657806370a08231146102a6578063715018a6146102d65780638da5cb5b146102e057806395d89b41146102fe57610121565b806323b872dd116100f457806323b872dd146101c057806338cc4831146101dc57806342842e0e146101fa5780634f558e79146102165780636352211e1461024657610121565b806301ffc9a71461012657806306fdde0314610156578063081812fc14610174578063095ea7b3146101a4575b600080fd5b610140600480360381019061013b9190611f96565b6103d0565b60405161014d91906123e2565b60405180910390f35b61015e6104b2565b60405161016b91906123fd565b60405180910390f35b61018e60048036038101906101899190611fe8565b610544565b60405161019b919061237b565b60405180910390f35b6101be60048036038101906101b99190611f5a565b6105c9565b005b6101da60048036038101906101d59190611e00565b6106e1565b005b6101e4610741565b6040516101f1919061237b565b60405180910390f35b610214600480360381019061020f9190611e00565b610749565b005b610230600480360381019061022b9190611fe8565b610769565b60405161023d91906123e2565b60405180910390f35b610260600480360381019061025b9190611fe8565b61077b565b60405161026d919061237b565b60405180910390f35b610290600480360381019061028b9190611f06565b61082d565b60405161029d919061265f565b60405180910390f35b6102c060048036038101906102bb9190611d9b565b610864565b6040516102cd919061265f565b60405180910390f35b6102de61091c565b005b6102e86109a4565b6040516102f5919061237b565b60405180910390f35b6103066109cd565b60405161031391906123fd565b60405180910390f35b61033660048036038101906103319190611eca565b610a5f565b005b610352600480360381019061034d9190611e4f565b610a75565b005b61036e60048036038101906103699190611fe8565b610ad7565b60405161037b91906123fd565b60405180910390f35b61039e60048036038101906103999190611dc4565b610c29565b6040516103ab91906123e2565b60405180910390f35b6103ce60048036038101906103c99190611d9b565b610cbd565b005b60007f80ac58cd000000000000000000000000000000000000000000000000000000007bffffffffffffffffffffffffffffffffffffffffffffffffffffffff1916827bffffffffffffffffffffffffffffffffffffffffffffffffffffffff1916148061049b57507f5b5e139f000000000000000000000000000000000000000000000000000000007bffffffffffffffffffffffffffffffffffffffffffffffffffffffff1916827bffffffffffffffffffffffffffffffffffffffffffffffffffffffff1916145b806104ab57506104aa82610db5565b5b9050919050565b6060600180546104c1906128b5565b80601f01602080910402602001604051908101604052809291908181526020018280546104ed906128b5565b801561053a5780601f1061050f5761010080835404028352916020019161053a565b820191906000526020600020905b81548152906001019060200180831161051d57829003601f168201915b5050505050905090565b600061054f82610e1f565b61058e576040517f08c379a0000000000000000000000000000000000000000000000000000000008152600401610585906125bf565b60405180910390fd5b6005600083815260200190815260200160002060009054906101000a900473ffffffffffffffffffffffffffffffffffffffff169050919050565b60006105d48261077b565b90508073ffffffffffffffffffffffffffffffffffffffff168373ffffffffffffffffffffffffffffffffffffffff161415610645576040517f08c379a000000000000000000000000000000000000000000000000000000000815260040161063c9061261f565b60405180910390fd5b8073ffffffffffffffffffffffffffffffffffffffff16610664610e8b565b73ffffffffffffffffffffffffffffffffffffffff16148061069357506106928161068d610e8b565b610c29565b5b6106d2576040517f08c379a00000000000000000000000000000000000000000000000000000000081526004016106c9906124ff565b60405180910390fd5b6106dc8383610e93565b505050565b6106f26106ec610e8b565b82610f4c565b610731576040517f08c379a00000000000000000000000000000000000000000000000000000000081526004016107289061263f565b60405180910390fd5b61073c83838361102a565b505050565b600030905090565b61076483838360405180602001604052806000815250610a75565b505050565b600061077482610e1f565b9050919050565b6000806003600084815260200190815260200160002060009054906101000a900473ffffffffffffffffffffffffffffffffffffffff169050600073ffffffffffffffffffffffffffffffffffffffff168173ffffffffffffffffffffffffffffffffffffffff161415610824576040517f08c379a000000000000000000000000000000000000000000000000000000000815260040161081b9061253f565b60405180910390fd5b80915050919050565b60008061083a6008611291565b9050610846848261129f565b6108508184611479565b61085a60086114ed565b8091505092915050565b60008073ffffffffffffffffffffffffffffffffffffffff168273ffffffffffffffffffffffffffffffffffffffff1614156108d5576040517f08c379a00000000000000000000000000000000000000000000000000000000081526004016108cc9061251f565b60405180910390fd5b600460008373ffffffffffffffffffffffffffffffffffffffff1673ffffffffffffffffffffffffffffffffffffffff168152602001908152602001600020549050919050565b610924610e8b565b73ffffffffffffffffffffffffffffffffffffffff166109426109a4565b73ffffffffffffffffffffffffffffffffffffffff1614610998576040517f08c379a000000000000000000000000000000000000000000000000000000000815260040161098f906125df565b60405180910390fd5b6109a26000611503565b565b60008060009054906101000a900473ffffffffffffffffffffffffffffffffffffffff16905090565b6060600280546109dc906128b5565b80601f0160208091040260200160405190810160405280929190818152602001828054610a08906128b5565b8015610a555780601f10610a2a57610100808354040283529160200191610a55565b820191906000526020600020905b815481529060010190602001808311610a3857829003601f168201915b5050505050905090565b610a71610a6a610e8b565b83836115c7565b5050565b610a86610a80610e8b565b83610f4c565b610ac5576040517f08c379a0000000000000000000000000000000000000000000000000000000008152600401610abc9061263f565b60405180910390fd5b610ad184848484611734565b50505050565b6060610ae282610e1f565b610b21576040517f08c379a0000000000000000000000000000000000000000000000000000000008152600401610b189061259f565b60405180910390fd5b6000600760008481526020019081526020016000208054610b41906128b5565b80601f0160208091040260200160405190810160405280929190818152602001828054610b6d906128b5565b8015610bba5780601f10610b8f57610100808354040283529160200191610bba565b820191906000526020600020905b815481529060010190602001808311610b9d57829003601f168201915b505050505090506000610bcb611790565b9050600081511415610be1578192505050610c24565b600082511115610c16578082604051602001610bfe929190612357565b60405160208183030381529060405292505050610c24565b610c1f846117a7565b925050505b919050565b6000600660008473ffffffffffffffffffffffffffffffffffffffff1673ffffffffffffffffffffffffffffffffffffffff16815260200190815260200160002060008373ffffffffffffffffffffffffffffffffffffffff1673ffffffffffffffffffffffffffffffffffffffff16815260200190815260200160002060009054906101000a900460ff16905092915050565b610cc5610e8b565b73ffffffffffffffffffffffffffffffffffffffff16610ce36109a4565b73ffffffffffffffffffffffffffffffffffffffff1614610d39576040517f08c379a0000000000000000000000000000000000000000000000000000000008152600401610d30906125df565b60405180910390fd5b600073ffffffffffffffffffffffffffffffffffffffff168173ffffffffffffffffffffffffffffffffffffffff161415610da9576040517f08c379a0000000000000000000000000000000000000000000000000000000008152600401610da09061243f565b60405180910390fd5b610db281611503565b50565b60007f01ffc9a7000000000000000000000000000000000000000000000000000000007bffffffffffffffffffffffffffffffffffffffffffffffffffffffff1916827bffffffffffffffffffffffffffffffffffffffffffffffffffffffff1916149050919050565b60008073ffffffffffffffffffffffffffffffffffffffff166003600084815260200190815260200160002060009054906101000a900473ffffffffffffffffffffffffffffffffffffffff1673ffffffffffffffffffffffffffffffffffffffff1614159050919050565b600033905090565b816005600083815260200190815260200160002060006101000a81548173ffffffffffffffffffffffffffffffffffffffff021916908373ffffffffffffffffffffffffffffffffffffffff160217905550808273ffffffffffffffffffffffffffffffffffffffff16610f068361077b565b73ffffffffffffffffffffffffffffffffffffffff167f8c5be1e5ebec7d5bd14f71427d1e84f3dd0314c0f7b2291e5b200ac8c7c3b92560405160405180910390a45050565b6000610f5782610e1f565b610f96576040517f08c379a0000000000000000000000000000000000000000000000000000000008152600401610f8d906124df565b60405180910390fd5b6000610fa18361077b565b90508073ffffffffffffffffffffffffffffffffffffffff168473ffffffffffffffffffffffffffffffffffffffff161480610fe35750610fe28185610c29565b5b8061102157508373ffffffffffffffffffffffffffffffffffffffff1661100984610544565b73ffffffffffffffffffffffffffffffffffffffff16145b91505092915050565b8273ffffffffffffffffffffffffffffffffffffffff1661104a8261077b565b73ffffffffffffffffffffffffffffffffffffffff16146110a0576040517f08c379a00000000000000000000000000000000000000000000000000000000081526004016110979061245f565b60405180910390fd5b600073ffffffffffffffffffffffffffffffffffffffff168273ffffffffffffffffffffffffffffffffffffffff161415611110576040517f08c379a00000000000000000000000000000000000000000000000000000000081526004016111079061249f565b60405180910390fd5b61111b83838361184e565b611126600082610e93565b6001600460008573ffffffffffffffffffffffffffffffffffffffff1673ffffffffffffffffffffffffffffffffffffffff168152602001908152602001600020600082825461117691906127cb565b925050819055506001600460008473ffffffffffffffffffffffffffffffffffffffff1673ffffffffffffffffffffffffffffffffffffffff16815260200190815260200160002060008282546111cd9190612744565b92505081905550816003600083815260200190815260200160002060006101000a81548173ffffffffffffffffffffffffffffffffffffffff021916908373ffffffffffffffffffffffffffffffffffffffff160217905550808273ffffffffffffffffffffffffffffffffffffffff168473ffffffffffffffffffffffffffffffffffffffff167fddf252ad1be2c89b69c2b068fc378daa952ba7f163c4a11628f55a4df523b3ef60405160405180910390a461128c838383611853565b505050565b600081600001549050919050565b600073ffffffffffffffffffffffffffffffffffffffff168273ffffffffffffffffffffffffffffffffffffffff16141561130f576040517f08c379a00000000000000000000000000000000000000000000000000000000081526004016113069061257f565b60405180910390fd5b61131881610e1f565b15611358576040517f08c379a000000000000000000000000000000000000000000000000000000000815260040161134f9061247f565b60405180910390fd5b6113646000838361184e565b6001600460008473ffffffffffffffffffffffffffffffffffffffff1673ffffffffffffffffffffffffffffffffffffffff16815260200190815260200160002060008282546113b49190612744565b92505081905550816003600083815260200190815260200160002060006101000a81548173ffffffffffffffffffffffffffffffffffffffff021916908373ffffffffffffffffffffffffffffffffffffffff160217905550808273ffffffffffffffffffffffffffffffffffffffff16600073ffffffffffffffffffffffffffffffffffffffff167fddf252ad1be2c89b69c2b068fc378daa952ba7f163c4a11628f55a4df523b3ef60405160405180910390a461147560008383611853565b5050565b61148282610e1f565b6114c1576040517f08c379a00000000000000000000000000000000000000000000000000000000081526004016114b89061255f565b60405180910390fd5b806007600084815260200190815260200160002090805190602001906114e8929190611bbf565b505050565b6001816000016000828254019250508190555050565b60008060009054906101000a900473ffffffffffffffffffffffffffffffffffffffff169050816000806101000a81548173ffffffffffffffffffffffffffffffffffffffff021916908373ffffffffffffffffffffffffffffffffffffffff1602179055508173ffffffffffffffffffffffffffffffffffffffff168173ffffffffffffffffffffffffffffffffffffffff167f8be0079c531659141344cd1fd0a4f28419497f9722a3daafe3b4186f6b6457e060405160405180910390a35050565b8173ffffffffffffffffffffffffffffffffffffffff168373ffffffffffffffffffffffffffffffffffffffff161415611636576040517f08c379a000000000000000000000000000000000000000000000000000000000815260040161162d906124bf565b60405180910390fd5b80600660008573ffffffffffffffffffffffffffffffffffffffff1673ffffffffffffffffffffffffffffffffffffffff16815260200190815260200160002060008473ffffffffffffffffffffffffffffffffffffffff1673ffffffffffffffffffffffffffffffffffffffff16815260200190815260200160002060006101000a81548160ff0219169083151502179055508173ffffffffffffffffffffffffffffffffffffffff168373ffffffffffffffffffffffffffffffffffffffff167f17307eab39ab6107e8899845ad3d59bd9653f200f220920489ca2b5937696c318360405161172791906123e2565b60405180910390a3505050565b61173f84848461102a565b61174b84848484611858565b61178a576040517f08c379a00000000000000000000000000000000000000000000000000000000081526004016117819061241f565b60405180910390fd5b50505050565b606060405180602001604052806000815250905090565b60606117b282610e1f565b6117f1576040517f08c379a00000000000000000000000000000000000000000000000000000000081526004016117e8906125ff565b60405180910390fd5b60006117fb611790565b9050600081511161181b5760405180602001604052806000815250611846565b80611825846119ef565b604051602001611836929190612357565b6040516020818303038152906040525b915050919050565b505050565b505050565b60006118798473ffffffffffffffffffffffffffffffffffffffff16611b9c565b156119e2578373ffffffffffffffffffffffffffffffffffffffff1663150b7a026118a2610e8b565b8786866040518563ffffffff1660e01b81526004016118c49493929190612396565b602060405180830381600087803b1580156118de57600080fd5b505af192505050801561190f57506040513d601f19601f8201168201806040525081019061190c9190611fbf565b60015b611992573d806000811461193f576040519150601f19603f3d011682016040523d82523d6000602084013e611944565b606091505b5060008151141561198a576040517f08c379a00000000000000000000000000000000000000000000000000000000081526004016119819061241f565b60405180910390fd5b805181602001fd5b63150b7a0260e01b7bffffffffffffffffffffffffffffffffffffffffffffffffffffffff1916817bffffffffffffffffffffffffffffffffffffffffffffffffffffffff1916149150506119e7565b600190505b949350505050565b60606000821415611a37576040518060400160405280600181526020017f30000000000000000000000000000000000000000000000000000000000000008152509050611b97565b600082905060005b60008214611a69578080611a5290612918565b915050600a82611a62919061279a565b9150611a3f565b60008167ffffffffffffffff811115611aab577f4e487b7100000000000000000000000000000000000000000000000000000000600052604160045260246000fd5b6040519080825280601f01601f191660200182016040528015611add5781602001600182028036833780820191505090505b5090505b60008514611b9057600182611af691906127cb565b9150600a85611b059190612961565b6030611b119190612744565b60f81b818381518110611b4d577f4e487b7100000000000000000000000000000000000000000000000000000000600052603260045260246000fd5b60200101907effffffffffffffffffffffffffffffffffffffffffffffffffffffffffffff1916908160001a905350600a85611b89919061279a565b9450611ae1565b8093505050505b919050565b6000808273ffffffffffffffffffffffffffffffffffffffff163b119050919050565b828054611bcb906128b5565b90600052602060002090601f016020900481019282611bed5760008555611c34565b82601f10611c0657805160ff1916838001178555611c34565b82800160010185558215611c34579182015b82811115611c33578251825591602001919060010190611c18565b5b509050611c419190611c45565b5090565b5b80821115611c5e576000816000905550600101611c46565b5090565b6000611c75611c708461269f565b61267a565b905082815260208101848484011115611c8d57600080fd5b611c98848285612873565b509392505050565b6000611cb3611cae846126d0565b61267a565b905082815260208101848484011115611ccb57600080fd5b611cd6848285612873565b509392505050565b600081359050611ced81612f55565b92915050565b600081359050611d0281612f6c565b92915050565b600081359050611d1781612f83565b92915050565b600081519050611d2c81612f83565b92915050565b600082601f830112611d4357600080fd5b8135611d53848260208601611c62565b91505092915050565b600082601f830112611d6d57600080fd5b8135611d7d848260208601611ca0565b91505092915050565b600081359050611d9581612f9a565b92915050565b600060208284031215611dad57600080fd5b6000611dbb84828501611cde565b91505092915050565b60008060408385031215611dd757600080fd5b6000611de585828601611cde565b9250506020611df685828601611cde565b9150509250929050565b600080600060608486031215611e1557600080fd5b6000611e2386828701611cde565b9350506020611e3486828701611cde565b9250506040611e4586828701611d86565b9150509250925092565b60008060008060808587031215611e6557600080fd5b6000611e7387828801611cde565b9450506020611e8487828801611cde565b9350506040611e9587828801611d86565b925050606085013567ffffffffffffffff811115611eb257600080fd5b611ebe87828801611d32565b91505092959194509250565b60008060408385031215611edd57600080fd5b6000611eeb85828601611cde565b9250506020611efc85828601611cf3565b9150509250929050565b60008060408385031215611f1957600080fd5b6000611f2785828601611cde565b925050602083013567ffffffffffffffff811115611f4457600080fd5b611f5085828601611d5c565b9150509250929050565b60008060408385031215611f6d57600080fd5b6000611f7b85828601611cde565b9250506020611f8c85828601611d86565b9150509250929050565b600060208284031215611fa857600080fd5b6000611fb684828501611d08565b91505092915050565b600060208284031215611fd157600080fd5b6000611fdf84828501611d1d565b91505092915050565b600060208284031215611ffa57600080fd5b600061200884828501611d86565b91505092915050565b61201a816127ff565b82525050565b61202981612811565b82525050565b600061203a82612701565b6120448185612717565b9350612054818560208601612882565b61205d81612a4e565b840191505092915050565b60006120738261270c565b61207d8185612728565b935061208d818560208601612882565b61209681612a4e565b840191505092915050565b60006120ac8261270c565b6120b68185612739565b93506120c6818560208601612882565b80840191505092915050565b60006120df603283612728565b91506120ea82612a5f565b604082019050919050565b6000612102602683612728565b915061210d82612aae565b604082019050919050565b6000612125602583612728565b915061213082612afd565b604082019050919050565b6000612148601c83612728565b915061215382612b4c565b602082019050919050565b600061216b602483612728565b915061217682612b75565b604082019050919050565b600061218e601983612728565b915061219982612bc4565b602082019050919050565b60006121b1602c83612728565b91506121bc82612bed565b604082019050919050565b60006121d4603883612728565b91506121df82612c3c565b604082019050919050565b60006121f7602a83612728565b915061220282612c8b565b604082019050919050565b600061221a602983612728565b915061222582612cda565b604082019050919050565b600061223d602e83612728565b915061224882612d29565b604082019050919050565b6000612260602083612728565b915061226b82612d78565b602082019050919050565b6000612283603183612728565b915061228e82612da1565b604082019050919050565b60006122a6602c83612728565b91506122b182612df0565b604082019050919050565b60006122c9602083612728565b91506122d482612e3f565b602082019050919050565b60006122ec602f83612728565b91506122f782612e68565b604082019050919050565b600061230f602183612728565b915061231a82612eb7565b604082019050919050565b6000612332603183612728565b915061233d82612f06565b604082019050919050565b61235181612869565b82525050565b600061236382856120a1565b915061236f82846120a1565b91508190509392505050565b60006020820190506123906000830184612011565b92915050565b60006080820190506123ab6000830187612011565b6123b86020830186612011565b6123c56040830185612348565b81810360608301526123d7818461202f565b905095945050505050565b60006020820190506123f76000830184612020565b92915050565b600060208201905081810360008301526124178184612068565b905092915050565b60006020820190508181036000830152612438816120d2565b9050919050565b60006020820190508181036000830152612458816120f5565b9050919050565b6000602082019050818103600083015261247881612118565b9050919050565b600060208201905081810360008301526124988161213b565b9050919050565b600060208201905081810360008301526124b88161215e565b9050919050565b600060208201905081810360008301526124d881612181565b9050919050565b600060208201905081810360008301526124f8816121a4565b9050919050565b60006020820190508181036000830152612518816121c7565b9050919050565b60006020820190508181036000830152612538816121ea565b9050919050565b600060208201905081810360008301526125588161220d565b9050919050565b6000602082019050818103600083015261257881612230565b9050919050565b6000602082019050818103600083015261259881612253565b9050919050565b600060208201905081810360008301526125b881612276565b9050919050565b600060208201905081810360008301526125d881612299565b9050919050565b600060208201905081810360008301526125f8816122bc565b9050919050565b60006020820190508181036000830152612618816122df565b9050919050565b6000602082019050818103600083015261263881612302565b9050919050565b6000602082019050818103600083015261265881612325565b9050919050565b60006020820190506126746000830184612348565b92915050565b6000612684612695565b905061269082826128e7565b919050565b6000604051905090565b600067ffffffffffffffff8211156126ba576126b9612a1f565b5b6126c382612a4e565b9050602081019050919050565b600067ffffffffffffffff8211156126eb576126ea612a1f565b5b6126f482612a4e565b9050602081019050919050565b600081519050919050565b600081519050919050565b600082825260208201905092915050565b600082825260208201905092915050565b600081905092915050565b600061274f82612869565b915061275a83612869565b9250827fffffffffffffffffffffffffffffffffffffffffffffffffffffffffffffffff0382111561278f5761278e612992565b5b828201905092915050565b60006127a582612869565b91506127b083612869565b9250826127c0576127bf6129c1565b5b828204905092915050565b60006127d682612869565b91506127e183612869565b9250828210156127f4576127f3612992565b5b828203905092915050565b600061280a82612849565b9050919050565b60008115159050919050565b60007fffffffff0000000000000000000000000000000000000000000000000000000082169050919050565b600073ffffffffffffffffffffffffffffffffffffffff82169050919050565b6000819050919050565b82818337600083830152505050565b60005b838110156128a0578082015181840152602081019050612885565b838111156128af576000848401525b50505050565b600060028204905060018216806128cd57607f821691505b602082108114156128e1576128e06129f0565b5b50919050565b6128f082612a4e565b810181811067ffffffffffffffff8211171561290f5761290e612a1f565b5b80604052505050565b600061292382612869565b91507fffffffffffffffffffffffffffffffffffffffffffffffffffffffffffffffff82141561295657612955612992565b5b600182019050919050565b600061296c82612869565b915061297783612869565b925082612987576129866129c1565b5b828206905092915050565b7f4e487b7100000000000000000000000000000000000000000000000000000000600052601160045260246000fd5b7f4e487b7100000000000000000000000000000000000000000000000000000000600052601260045260246000fd5b7f4e487b7100000000000000000000000000000000000000000000000000000000600052602260045260246000fd5b7f4e487b7100000000000000000000000000000000000000000000000000000000600052604160045260246000fd5b6000601f19601f8301169050919050565b7f4552433732313a207472616e7366657220746f206e6f6e20455243373231526560008201527f63656976657220696d706c656d656e7465720000000000000000000000000000602082015250565b7f4f776e61626c653a206e6577206f776e657220697320746865207a65726f206160008201527f6464726573730000000000000000000000000000000000000000000000000000602082015250565b7f4552433732313a207472616e736665722066726f6d20696e636f72726563742060008201527f6f776e6572000000000000000000000000000000000000000000000000000000602082015250565b7f4552433732313a20746f6b656e20616c7265616479206d696e74656400000000600082015250565b7f4552433732313a207472616e7366657220746f20746865207a65726f2061646460008201527f7265737300000000000000000000000000000000000000000000000000000000602082015250565b7f4552433732313a20617070726f766520746f2063616c6c657200000000000000600082015250565b7f4552433732313a206f70657261746f7220717565727920666f72206e6f6e657860008201527f697374656e7420746f6b656e0000000000000000000000000000000000000000602082015250565b7f4552433732313a20617070726f76652063616c6c6572206973206e6f74206f7760008201527f6e6572206e6f7220617070726f76656420666f7220616c6c0000000000000000602082015250565b7f4552433732313a2062616c616e636520717565727920666f7220746865207a6560008201527f726f206164647265737300000000000000000000000000000000000000000000602082015250565b7f4552433732313a206f776e657220717565727920666f72206e6f6e657869737460008201527f656e7420746f6b656e0000000000000000000000000000000000000000000000602082015250565b7f45524337323155524953746f726167653a2055524920736574206f66206e6f6e60008201527f6578697374656e7420746f6b656e000000000000000000000000000000000000602082015250565b7f4552433732313a206d696e7420746f20746865207a65726f2061646472657373600082015250565b7f45524337323155524953746f726167653a2055524920717565727920666f722060008201527f6e6f6e6578697374656e7420746f6b656e000000000000000000000000000000602082015250565b7f4552433732313a20617070726f76656420717565727920666f72206e6f6e657860008201527f697374656e7420746f6b656e0000000000000000000000000000000000000000602082015250565b7f4f776e61626c653a2063616c6c6572206973206e6f7420746865206f776e6572600082015250565b7f4552433732314d657461646174613a2055524920717565727920666f72206e6f60008201527f6e6578697374656e7420746f6b656e0000000000000000000000000000000000602082015250565b7f4552433732313a20617070726f76616c20746f2063757272656e74206f776e6560008201527f7200000000000000000000000000000000000000000000000000000000000000602082015250565b7f4552433732313a207472616e736665722063616c6c6572206973206e6f74206f60008201527f776e6572206e6f7220617070726f766564000000000000000000000000000000602082015250565b612f5e816127ff565b8114612f6957600080fd5b50565b612f7581612811565b8114612f8057600080fd5b50565b612f8c8161281d565b8114612f9757600080fd5b50565b612fa381612869565b8114612fae57600080fd5b5056fea2646970667358221220f1c6e5c901da3e3678738a4ec766d26dbcbbe858d88083a5be73301610bd851564736f6c63430008040033",
  "linkReferences": {},
  "deployedLinkReferences": {}
}