{
  "_format": "hh-sol-artifact-1",
  "contractName": "Image",
  "sourceName": "contracts/Image.sol",
  "abi": [
    {
      "inputs": [],
      "stateMutability": "nonpayable",
      "type": "constructor"
    },
    {
      "anonymous": false,
      "inputs": [
        {
          "indexed": true,
          "internalType": "address",
          "name": "owner",
          "type": "address"
        },
        {
          "indexed": true,
          "internalType": "address",
          "name": "approved",
          "type": "address"
        },
        {
          "indexed": true,
          "internalType": "uint256",
          "name": "tokenId",
          "type": "uint256"
        }
      ],
      "name": "Approval",
      "type": "event"
    },
    {
      "anonymous": false,
      "inputs": [
        {
          "indexed": true,
          "internalType": "address",
          "name": "owner",
          "type": "address"
        },
        {
          "indexed": true,
          "internalType": "address",
          "name": "operator",
          "type": "address"
        },
        {
          "indexed": false,
          "internalType": "bool",
          "name": "approved",
          "type": "bool"
        }
      ],
      "name": "ApprovalForAll",
      "type": "event"
    },
    {
      "anonymous": false,
      "inputs": [
        {
          "indexed": true,
          "internalType": "address",
          "name": "previousOwner",
          "type": "address"
        },
        {
          "indexed": true,
          "internalType": "address",
          "name": "newOwner",
          "type": "address"
        }
      ],
      "name": "OwnershipTransferred",
      "type": "event"
    },
    {
      "anonymous": false,
      "inputs": [
        {
          "indexed": true,
          "internalType": "address",
          "name": "from",
          "type": "address"
        },
        {
          "indexed": true,
          "internalType": "address",
          "name": "to",
          "type": "address"
        },
        {
          "indexed": true,
          "internalType": "uint256",
          "name": "tokenId",
          "type": "uint256"
        }
      ],
      "name": "Transfer",
      "type": "event"
    },
    {
      "anonymous": false,
      "inputs": [
        {
          "indexed": false,
          "internalType": "address",
          "name": "creator",
          "type": "address"
        },
        {
          "indexed": false,
          "internalType": "uint256",
          "name": "id",
          "type": "uint256"
        }
      ],
      "name": "addImageEvent",
      "type": "event"
    },
    {
      "inputs": [
        {
          "internalType": "address",
          "name": "creator",
          "type": "address"
        },
        {
          "internalType": "string",
          "name": "tokenURI",
          "type": "string"
        }
      ],
      "name": "addImage",
      "outputs": [
        {
          "internalType": "uint256",
          "name": "",
          "type": "uint256"
        }
      ],
      "stateMutability": "nonpayable",
      "type": "function"
    },
    {
      "inputs": [
        {
          "internalType": "address",
          "name": "to",
          "type": "address"
        },
        {
          "internalType": "uint256",
          "name": "tokenId",
          "type": "uint256"
        }
      ],
      "name": "approve",
      "outputs": [],
      "stateMutability": "nonpayable",
      "type": "function"
    },
    {
      "inputs": [
        {
          "internalType": "address",
          "name": "owner",
          "type": "address"
        }
      ],
      "name": "balanceOf",
      "outputs": [
        {
          "internalType": "uint256",
          "name": "",
          "type": "uint256"
        }
      ],
      "stateMutability": "view",
      "type": "function"
    },
    {
      "inputs": [
        {
          "internalType": "uint256",
          "name": "id",
          "type": "uint256"
        }
      ],
      "name": "exists",
      "outputs": [
        {
          "internalType": "bool",
          "name": "",
          "type": "bool"
        }
      ],
      "stateMutability": "view",
      "type": "function"
    },
    {
      "inputs": [],
      "name": "getAddress",
      "outputs": [
        {
          "internalType": "address",
          "name": "",
          "type": "address"
        }
      ],
      "stateMutability": "view",
      "type": "function"
    },
    {
      "inputs": [
        {
          "internalType": "uint256",
          "name": "tokenId",
          "type": "uint256"
        }
      ],
      "name": "getApproved",
      "outputs": [
        {
          "internalType": "address",
          "name": "",
          "type": "address"
        }
      ],
      "stateMutability": "view",
      "type": "function"
    },
    {
      "inputs": [
        {
          "internalType": "address",
          "name": "owner",
          "type": "address"
        },
        {
          "internalType": "address",
          "name": "operator",
          "type": "address"
        }
      ],
      "name": "isApprovedForAll",
      "outputs": [
        {
          "internalType": "bool",
          "name": "",
          "type": "bool"
        }
      ],
      "stateMutability": "view",
      "type": "function"
    },
    {
      "inputs": [],
      "name": "name",
      "outputs": [
        {
          "internalType": "string",
          "name": "",
          "type": "string"
        }
      ],
      "stateMutability": "view",
      "type": "function"
    },
    {
      "inputs": [],
      "name": "owner",
      "outputs": [
        {
          "internalType": "address",
          "name": "",
          "type": "address"
        }
      ],
      "stateMutability": "view",
      "type": "function"
    },
    {
      "inputs": [
        {
          "internalType": "uint256",
          "name": "tokenId",
          "type": "uint256"
        }
      ],
      "name": "ownerOf",
      "outputs": [
        {
          "internalType": "address",
          "name": "",
          "type": "address"
        }
      ],
      "stateMutability": "view",
      "type": "function"
    },
    {
      "inputs": [],
      "name": "renounceOwnership",
      "outputs": [],
      "stateMutability": "nonpayable",
      "type": "function"
    },
    {
      "inputs": [
        {
          "internalType": "address",
          "name": "from",
          "type": "address"
        },
        {
          "internalType": "address",
          "name": "to",
          "type": "address"
        },
        {
          "internalType": "uint256",
          "name": "tokenId",
          "type": "uint256"
        }
      ],
      "name": "safeTransferFrom",
      "outputs": [],
      "stateMutability": "nonpayable",
      "type": "function"
    },
    {
      "inputs": [
        {
          "internalType": "address",
          "name": "from",
          "type": "address"
        },
        {
          "internalType": "address",
          "name": "to",
          "type": "address"
        },
        {
          "internalType": "uint256",
          "name": "tokenId",
          "type": "uint256"
        },
        {
          "internalType": "bytes",
          "name": "_data",
          "type": "bytes"
        }
      ],
      "name": "safeTransferFrom",
      "outputs": [],
      "stateMutability": "nonpayable",
      "type": "function"
    },
    {
      "inputs": [
        {
          "internalType": "address",
          "name": "operator",
          "type": "address"
        },
        {
          "internalType": "bool",
          "name": "approved",
          "type": "bool"
        }
      ],
      "name": "setApprovalForAll",
      "outputs": [],
      "stateMutability": "nonpayable",
      "type": "function"
    },
    {
      "inputs": [
        {
          "internalType": "bytes4",
          "name": "interfaceId",
          "type": "bytes4"
        }
      ],
      "name": "supportsInterface",
      "outputs": [
        {
          "internalType": "bool",
          "name": "",
          "type": "bool"
        }
      ],
      "stateMutability": "view",
      "type": "function"
    },
    {
      "inputs": [],
      "name": "symbol",
      "outputs": [
        {
          "internalType": "string",
          "name": "",
          "type": "string"
        }
      ],
      "stateMutability": "view",
      "type": "function"
    },
    {
      "inputs": [
        {
          "internalType": "uint256",
          "name": "tokenId",
          "type": "uint256"
        }
      ],
      "name": "tokenURI",
      "outputs": [
        {
          "internalType": "string",
          "name": "",
          "type": "string"
        }
      ],
      "stateMutability": "view",
      "type": "function"
    },
    {
      "inputs": [
        {
          "internalType": "address",
          "name": "from",
          "type": "address"
        },
        {
          "internalType": "address",
          "name": "to",
          "type": "address"
        },
        {
          "internalType": "uint256",
          "name": "tokenId",
          "type": "uint256"
        }
      ],
      "name": "transferFrom",
      "outputs": [],
      "stateMutability": "nonpayable",
      "type": "function"
    },
    {
      "inputs": [
        {
          "internalType": "address",
          "name": "newOwner",
          "type": "address"
        }
      ],
      "name": "transferOwnership",
      "outputs": [],
      "stateMutability": "nonpayable",
      "type": "function"
    }
  ],
  "bytecode": "0x60806040523480156200001157600080fd5b506040518060400160405280600581526020017f496d6167650000000000000000000000000000000000000000000000000000008152506040518060400160405280600381526020017f494d4700000000000000000000000000000000000000000000000000000000008152506200009e62000092620000d860201b60201c565b620000e060201b60201c565b8160019080519060200190620000b6929190620001a4565b508060029080519060200190620000cf929190620001a4565b505050620002b9565b600033905090565b60008060009054906101000a900473ffffffffffffffffffffffffffffffffffffffff169050816000806101000a81548173ffffffffffffffffffffffffffffffffffffffff021916908373ffffffffffffffffffffffffffffffffffffffff1602179055508173ffffffffffffffffffffffffffffffffffffffff168173ffffffffffffffffffffffffffffffffffffffff167f8be0079c531659141344cd1fd0a4f28419497f9722a3daafe3b4186f6b6457e060405160405180910390a35050565b828054620001b29062000254565b90600052602060002090601f016020900481019282620001d6576000855562000222565b82601f10620001f157805160ff191683800117855562000222565b8280016001018555821562000222579182015b828111156200022157825182559160200191906001019062000204565b5b50905062000231919062000235565b5090565b5b808211156200025057600081600090555060010162000236565b5090565b600060028204905060018216806200026d57607f821691505b602082108114156200028457620002836200028a565b5b50919050565b7f4e487b7100000000000000000000000000000000000000000000000000000000600052602260045260246000fd5b61304980620002c96000396000f3fe608060405234801561001057600080fd5b50600436106101215760003560e01c80636edbb37e116100ad578063a22cb46511610071578063a22cb4651461031c578063b88d4fde14610338578063c87b56dd14610354578063e985e9c514610384578063f2fde38b146103b457610121565b80636edbb37e1461027657806370a08231146102a6578063715018a6146102d65780638da5cb5b146102e057806395d89b41146102fe57610121565b806323b872dd116100f457806323b872dd146101c057806338cc4831146101dc57806342842e0e146101fa5780634f558e79146102165780636352211e1461024657610121565b806301ffc9a71461012657806306fdde0314610156578063081812fc14610174578063095ea7b3146101a4575b600080fd5b610140600480360381019061013b9190611fcf565b6103d0565b60405161014d9190612444565b60405180910390f35b61015e6104b2565b60405161016b919061245f565b60405180910390f35b61018e60048036038101906101899190612021565b610544565b60405161019b91906123b4565b60405180910390f35b6101be60048036038101906101b99190611f93565b6105c9565b005b6101da60048036038101906101d59190611e39565b6106e1565b005b6101e4610741565b6040516101f191906123b4565b60405180910390f35b610214600480360381019061020f9190611e39565b610749565b005b610230600480360381019061022b9190612021565b610769565b60405161023d9190612444565b60405180910390f35b610260600480360381019061025b9190612021565b61077b565b60405161026d91906123b4565b60405180910390f35b610290600480360381019061028b9190611f3f565b61082d565b60405161029d91906126c1565b60405180910390f35b6102c060048036038101906102bb9190611dd4565b61089d565b6040516102cd91906126c1565b60405180910390f35b6102de610955565b005b6102e86109dd565b6040516102f591906123b4565b60405180910390f35b610306610a06565b604051610313919061245f565b60405180910390f35b61033660048036038101906103319190611f03565b610a98565b005b610352600480360381019061034d9190611e88565b610aae565b005b61036e60048036038101906103699190612021565b610b10565b60405161037b919061245f565b60405180910390f35b61039e60048036038101906103999190611dfd565b610c62565b6040516103ab9190612444565b60405180910390f35b6103ce60048036038101906103c99190611dd4565b610cf6565b005b60007f80ac58cd000000000000000000000000000000000000000000000000000000007bffffffffffffffffffffffffffffffffffffffffffffffffffffffff1916827bffffffffffffffffffffffffffffffffffffffffffffffffffffffff1916148061049b57507f5b5e139f000000000000000000000000000000000000000000000000000000007bffffffffffffffffffffffffffffffffffffffffffffffffffffffff1916827bffffffffffffffffffffffffffffffffffffffffffffffffffffffff1916145b806104ab57506104aa82610dee565b5b9050919050565b6060600180546104c190612917565b80601f01602080910402602001604051908101604052809291908181526020018280546104ed90612917565b801561053a5780601f1061050f5761010080835404028352916020019161053a565b820191906000526020600020905b81548152906001019060200180831161051d57829003601f168201915b5050505050905090565b600061054f82610e58565b61058e576040517f08c379a000000000000000000000000000000000000000000000000000000000815260040161058590612621565b60405180910390fd5b6005600083815260200190815260200160002060009054906101000a900473ffffffffffffffffffffffffffffffffffffffff169050919050565b60006105d48261077b565b90508073ffffffffffffffffffffffffffffffffffffffff168373ffffffffffffffffffffffffffffffffffffffff161415610645576040517f08c379a000000000000000000000000000000000000000000000000000000000815260040161063c90612681565b60405180910390fd5b8073ffffffffffffffffffffffffffffffffffffffff16610664610ec4565b73ffffffffffffffffffffffffffffffffffffffff16148061069357506106928161068d610ec4565b610c62565b5b6106d2576040517f08c379a00000000000000000000000000000000000000000000000000000000081526004016106c990612561565b60405180910390fd5b6106dc8383610ecc565b505050565b6106f26106ec610ec4565b82610f85565b610731576040517f08c379a0000000000000000000000000000000000000000000000000000000008152600401610728906126a1565b60405180910390fd5b61073c838383611063565b505050565b600030905090565b61076483838360405180602001604052806000815250610aae565b505050565b600061077482610e58565b9050919050565b6000806003600084815260200190815260200160002060009054906101000a900473ffffffffffffffffffffffffffffffffffffffff169050600073ffffffffffffffffffffffffffffffffffffffff168173ffffffffffffffffffffffffffffffffffffffff161415610824576040517f08c379a000000000000000000000000000000000000000000000000000000000815260040161081b906125a1565b60405180910390fd5b80915050919050565b60008061083a60086112ca565b905061084684826112d8565b61085081846114b2565b61085a6008611526565b7f6380a803eaf252910175aa98634c89265ab230e412334de1f497e8f65b69fb8c848260405161088b92919061241b565b60405180910390a18091505092915050565b60008073ffffffffffffffffffffffffffffffffffffffff168273ffffffffffffffffffffffffffffffffffffffff16141561090e576040517f08c379a000000000000000000000000000000000000000000000000000000000815260040161090590612581565b60405180910390fd5b600460008373ffffffffffffffffffffffffffffffffffffffff1673ffffffffffffffffffffffffffffffffffffffff168152602001908152602001600020549050919050565b61095d610ec4565b73ffffffffffffffffffffffffffffffffffffffff1661097b6109dd565b73ffffffffffffffffffffffffffffffffffffffff16146109d1576040517f08c379a00000000000000000000000000000000000000000000000000000000081526004016109c890612641565b60405180910390fd5b6109db600061153c565b565b60008060009054906101000a900473ffffffffffffffffffffffffffffffffffffffff16905090565b606060028054610a1590612917565b80601f0160208091040260200160405190810160405280929190818152602001828054610a4190612917565b8015610a8e5780601f10610a6357610100808354040283529160200191610a8e565b820191906000526020600020905b815481529060010190602001808311610a7157829003601f168201915b5050505050905090565b610aaa610aa3610ec4565b8383611600565b5050565b610abf610ab9610ec4565b83610f85565b610afe576040517f08c379a0000000000000000000000000000000000000000000000000000000008152600401610af5906126a1565b60405180910390fd5b610b0a8484848461176d565b50505050565b6060610b1b82610e58565b610b5a576040517f08c379a0000000000000000000000000000000000000000000000000000000008152600401610b5190612601565b60405180910390fd5b6000600760008481526020019081526020016000208054610b7a90612917565b80601f0160208091040260200160405190810160405280929190818152602001828054610ba690612917565b8015610bf35780601f10610bc857610100808354040283529160200191610bf3565b820191906000526020600020905b815481529060010190602001808311610bd657829003601f168201915b505050505090506000610c046117c9565b9050600081511415610c1a578192505050610c5d565b600082511115610c4f578082604051602001610c37929190612390565b60405160208183030381529060405292505050610c5d565b610c58846117e0565b925050505b919050565b6000600660008473ffffffffffffffffffffffffffffffffffffffff1673ffffffffffffffffffffffffffffffffffffffff16815260200190815260200160002060008373ffffffffffffffffffffffffffffffffffffffff1673ffffffffffffffffffffffffffffffffffffffff16815260200190815260200160002060009054906101000a900460ff16905092915050565b610cfe610ec4565b73ffffffffffffffffffffffffffffffffffffffff16610d1c6109dd565b73ffffffffffffffffffffffffffffffffffffffff1614610d72576040517f08c379a0000000000000000000000000000000000000000000000000000000008152600401610d6990612641565b60405180910390fd5b600073ffffffffffffffffffffffffffffffffffffffff168173ffffffffffffffffffffffffffffffffffffffff161415610de2576040517f08c379a0000000000000000000000000000000000000000000000000000000008152600401610dd9906124a1565b60405180910390fd5b610deb8161153c565b50565b60007f01ffc9a7000000000000000000000000000000000000000000000000000000007bffffffffffffffffffffffffffffffffffffffffffffffffffffffff1916827bffffffffffffffffffffffffffffffffffffffffffffffffffffffff1916149050919050565b60008073ffffffffffffffffffffffffffffffffffffffff166003600084815260200190815260200160002060009054906101000a900473ffffffffffffffffffffffffffffffffffffffff1673ffffffffffffffffffffffffffffffffffffffff1614159050919050565b600033905090565b816005600083815260200190815260200160002060006101000a81548173ffffffffffffffffffffffffffffffffffffffff021916908373ffffffffffffffffffffffffffffffffffffffff160217905550808273ffffffffffffffffffffffffffffffffffffffff16610f3f8361077b565b73ffffffffffffffffffffffffffffffffffffffff167f8c5be1e5ebec7d5bd14f71427d1e84f3dd0314c0f7b2291e5b200ac8c7c3b92560405160405180910390a45050565b6000610f9082610e58565b610fcf576040517f08c379a0000000000000000000000000000000000000000000000000000000008152600401610fc690612541565b60405180910390fd5b6000610fda8361077b565b90508073ffffffffffffffffffffffffffffffffffffffff168473ffffffffffffffffffffffffffffffffffffffff16148061101c575061101b8185610c62565b5b8061105a57508373ffffffffffffffffffffffffffffffffffffffff1661104284610544565b73ffffffffffffffffffffffffffffffffffffffff16145b91505092915050565b8273ffffffffffffffffffffffffffffffffffffffff166110838261077b565b73ffffffffffffffffffffffffffffffffffffffff16146110d9576040517f08c379a00000000000000000000000000000000000000000000000000000000081526004016110d0906124c1565b60405180910390fd5b600073ffffffffffffffffffffffffffffffffffffffff168273ffffffffffffffffffffffffffffffffffffffff161415611149576040517f08c379a000000000000000000000000000000000000000000000000000000000815260040161114090612501565b60405180910390fd5b611154838383611887565b61115f600082610ecc565b6001600460008573ffffffffffffffffffffffffffffffffffffffff1673ffffffffffffffffffffffffffffffffffffffff16815260200190815260200160002060008282546111af919061282d565b925050819055506001600460008473ffffffffffffffffffffffffffffffffffffffff1673ffffffffffffffffffffffffffffffffffffffff168152602001908152602001600020600082825461120691906127a6565b92505081905550816003600083815260200190815260200160002060006101000a81548173ffffffffffffffffffffffffffffffffffffffff021916908373ffffffffffffffffffffffffffffffffffffffff160217905550808273ffffffffffffffffffffffffffffffffffffffff168473ffffffffffffffffffffffffffffffffffffffff167fddf252ad1be2c89b69c2b068fc378daa952ba7f163c4a11628f55a4df523b3ef60405160405180910390a46112c583838361188c565b505050565b600081600001549050919050565b600073ffffffffffffffffffffffffffffffffffffffff168273ffffffffffffffffffffffffffffffffffffffff161415611348576040517f08c379a000000000000000000000000000000000000000000000000000000000815260040161133f906125e1565b60405180910390fd5b61135181610e58565b15611391576040517f08c379a0000000000000000000000000000000000000000000000000000000008152600401611388906124e1565b60405180910390fd5b61139d60008383611887565b6001600460008473ffffffffffffffffffffffffffffffffffffffff1673ffffffffffffffffffffffffffffffffffffffff16815260200190815260200160002060008282546113ed91906127a6565b92505081905550816003600083815260200190815260200160002060006101000a81548173ffffffffffffffffffffffffffffffffffffffff021916908373ffffffffffffffffffffffffffffffffffffffff160217905550808273ffffffffffffffffffffffffffffffffffffffff16600073ffffffffffffffffffffffffffffffffffffffff167fddf252ad1be2c89b69c2b068fc378daa952ba7f163c4a11628f55a4df523b3ef60405160405180910390a46114ae6000838361188c565b5050565b6114bb82610e58565b6114fa576040517f08c379a00000000000000000000000000000000000000000000000000000000081526004016114f1906125c1565b60405180910390fd5b80600760008481526020019081526020016000209080519060200190611521929190611bf8565b505050565b6001816000016000828254019250508190555050565b60008060009054906101000a900473ffffffffffffffffffffffffffffffffffffffff169050816000806101000a81548173ffffffffffffffffffffffffffffffffffffffff021916908373ffffffffffffffffffffffffffffffffffffffff1602179055508173ffffffffffffffffffffffffffffffffffffffff168173ffffffffffffffffffffffffffffffffffffffff167f8be0079c531659141344cd1fd0a4f28419497f9722a3daafe3b4186f6b6457e060405160405180910390a35050565b8173ffffffffffffffffffffffffffffffffffffffff168373ffffffffffffffffffffffffffffffffffffffff16141561166f576040517f08c379a000000000000000000000000000000000000000000000000000000000815260040161166690612521565b60405180910390fd5b80600660008573ffffffffffffffffffffffffffffffffffffffff1673ffffffffffffffffffffffffffffffffffffffff16815260200190815260200160002060008473ffffffffffffffffffffffffffffffffffffffff1673ffffffffffffffffffffffffffffffffffffffff16815260200190815260200160002060006101000a81548160ff0219169083151502179055508173ffffffffffffffffffffffffffffffffffffffff168373ffffffffffffffffffffffffffffffffffffffff167f17307eab39ab6107e8899845ad3d59bd9653f200f220920489ca2b5937696c31836040516117609190612444565b60405180910390a3505050565b611778848484611063565b61178484848484611891565b6117c3576040517f08c379a00000000000000000000000000000000000000000000000000000000081526004016117ba90612481565b60405180910390fd5b50505050565b606060405180602001604052806000815250905090565b60606117eb82610e58565b61182a576040517f08c379a000000000000000000000000000000000000000000000000000000000815260040161182190612661565b60405180910390fd5b60006118346117c9565b90506000815111611854576040518060200160405280600081525061187f565b8061185e84611a28565b60405160200161186f929190612390565b6040516020818303038152906040525b915050919050565b505050565b505050565b60006118b28473ffffffffffffffffffffffffffffffffffffffff16611bd5565b15611a1b578373ffffffffffffffffffffffffffffffffffffffff1663150b7a026118db610ec4565b8786866040518563ffffffff1660e01b81526004016118fd94939291906123cf565b602060405180830381600087803b15801561191757600080fd5b505af192505050801561194857506040513d601f19601f820116820180604052508101906119459190611ff8565b60015b6119cb573d8060008114611978576040519150601f19603f3d011682016040523d82523d6000602084013e61197d565b606091505b506000815114156119c3576040517f08c379a00000000000000000000000000000000000000000000000000000000081526004016119ba90612481565b60405180910390fd5b805181602001fd5b63150b7a0260e01b7bffffffffffffffffffffffffffffffffffffffffffffffffffffffff1916817bffffffffffffffffffffffffffffffffffffffffffffffffffffffff191614915050611a20565b600190505b949350505050565b60606000821415611a70576040518060400160405280600181526020017f30000000000000000000000000000000000000000000000000000000000000008152509050611bd0565b600082905060005b60008214611aa2578080611a8b9061297a565b915050600a82611a9b91906127fc565b9150611a78565b60008167ffffffffffffffff811115611ae4577f4e487b7100000000000000000000000000000000000000000000000000000000600052604160045260246000fd5b6040519080825280601f01601f191660200182016040528015611b165781602001600182028036833780820191505090505b5090505b60008514611bc957600182611b2f919061282d565b9150600a85611b3e91906129c3565b6030611b4a91906127a6565b60f81b818381518110611b86577f4e487b7100000000000000000000000000000000000000000000000000000000600052603260045260246000fd5b60200101907effffffffffffffffffffffffffffffffffffffffffffffffffffffffffffff1916908160001a905350600a85611bc291906127fc565b9450611b1a565b8093505050505b919050565b6000808273ffffffffffffffffffffffffffffffffffffffff163b119050919050565b828054611c0490612917565b90600052602060002090601f016020900481019282611c265760008555611c6d565b82601f10611c3f57805160ff1916838001178555611c6d565b82800160010185558215611c6d579182015b82811115611c6c578251825591602001919060010190611c51565b5b509050611c7a9190611c7e565b5090565b5b80821115611c97576000816000905550600101611c7f565b5090565b6000611cae611ca984612701565b6126dc565b905082815260208101848484011115611cc657600080fd5b611cd18482856128d5565b509392505050565b6000611cec611ce784612732565b6126dc565b905082815260208101848484011115611d0457600080fd5b611d0f8482856128d5565b509392505050565b600081359050611d2681612fb7565b92915050565b600081359050611d3b81612fce565b92915050565b600081359050611d5081612fe5565b92915050565b600081519050611d6581612fe5565b92915050565b600082601f830112611d7c57600080fd5b8135611d8c848260208601611c9b565b91505092915050565b600082601f830112611da657600080fd5b8135611db6848260208601611cd9565b91505092915050565b600081359050611dce81612ffc565b92915050565b600060208284031215611de657600080fd5b6000611df484828501611d17565b91505092915050565b60008060408385031215611e1057600080fd5b6000611e1e85828601611d17565b9250506020611e2f85828601611d17565b9150509250929050565b600080600060608486031215611e4e57600080fd5b6000611e5c86828701611d17565b9350506020611e6d86828701611d17565b9250506040611e7e86828701611dbf565b9150509250925092565b60008060008060808587031215611e9e57600080fd5b6000611eac87828801611d17565b9450506020611ebd87828801611d17565b9350506040611ece87828801611dbf565b925050606085013567ffffffffffffffff811115611eeb57600080fd5b611ef787828801611d6b565b91505092959194509250565b60008060408385031215611f1657600080fd5b6000611f2485828601611d17565b9250506020611f3585828601611d2c565b9150509250929050565b60008060408385031215611f5257600080fd5b6000611f6085828601611d17565b925050602083013567ffffffffffffffff811115611f7d57600080fd5b611f8985828601611d95565b9150509250929050565b60008060408385031215611fa657600080fd5b6000611fb485828601611d17565b9250506020611fc585828601611dbf565b9150509250929050565b600060208284031215611fe157600080fd5b6000611fef84828501611d41565b91505092915050565b60006020828403121561200a57600080fd5b600061201884828501611d56565b91505092915050565b60006020828403121561203357600080fd5b600061204184828501611dbf565b91505092915050565b61205381612861565b82525050565b61206281612873565b82525050565b600061207382612763565b61207d8185612779565b935061208d8185602086016128e4565b61209681612ab0565b840191505092915050565b60006120ac8261276e565b6120b6818561278a565b93506120c68185602086016128e4565b6120cf81612ab0565b840191505092915050565b60006120e58261276e565b6120ef818561279b565b93506120ff8185602086016128e4565b80840191505092915050565b600061211860328361278a565b915061212382612ac1565b604082019050919050565b600061213b60268361278a565b915061214682612b10565b604082019050919050565b600061215e60258361278a565b915061216982612b5f565b604082019050919050565b6000612181601c8361278a565b915061218c82612bae565b602082019050919050565b60006121a460248361278a565b91506121af82612bd7565b604082019050919050565b60006121c760198361278a565b91506121d282612c26565b602082019050919050565b60006121ea602c8361278a565b91506121f582612c4f565b604082019050919050565b600061220d60388361278a565b915061221882612c9e565b604082019050919050565b6000612230602a8361278a565b915061223b82612ced565b604082019050919050565b600061225360298361278a565b915061225e82612d3c565b604082019050919050565b6000612276602e8361278a565b915061228182612d8b565b604082019050919050565b600061229960208361278a565b91506122a482612dda565b602082019050919050565b60006122bc60318361278a565b91506122c782612e03565b604082019050919050565b60006122df602c8361278a565b91506122ea82612e52565b604082019050919050565b600061230260208361278a565b915061230d82612ea1565b602082019050919050565b6000612325602f8361278a565b915061233082612eca565b604082019050919050565b600061234860218361278a565b915061235382612f19565b604082019050919050565b600061236b60318361278a565b915061237682612f68565b604082019050919050565b61238a816128cb565b82525050565b600061239c82856120da565b91506123a882846120da565b91508190509392505050565b60006020820190506123c9600083018461204a565b92915050565b60006080820190506123e4600083018761204a565b6123f1602083018661204a565b6123fe6040830185612381565b81810360608301526124108184612068565b905095945050505050565b6000604082019050612430600083018561204a565b61243d6020830184612381565b9392505050565b60006020820190506124596000830184612059565b92915050565b6000602082019050818103600083015261247981846120a1565b905092915050565b6000602082019050818103600083015261249a8161210b565b9050919050565b600060208201905081810360008301526124ba8161212e565b9050919050565b600060208201905081810360008301526124da81612151565b9050919050565b600060208201905081810360008301526124fa81612174565b9050919050565b6000602082019050818103600083015261251a81612197565b9050919050565b6000602082019050818103600083015261253a816121ba565b9050919050565b6000602082019050818103600083015261255a816121dd565b9050919050565b6000602082019050818103600083015261257a81612200565b9050919050565b6000602082019050818103600083015261259a81612223565b9050919050565b600060208201905081810360008301526125ba81612246565b9050919050565b600060208201905081810360008301526125da81612269565b9050919050565b600060208201905081810360008301526125fa8161228c565b9050919050565b6000602082019050818103600083015261261a816122af565b9050919050565b6000602082019050818103600083015261263a816122d2565b9050919050565b6000602082019050818103600083015261265a816122f5565b9050919050565b6000602082019050818103600083015261267a81612318565b9050919050565b6000602082019050818103600083015261269a8161233b565b9050919050565b600060208201905081810360008301526126ba8161235e565b9050919050565b60006020820190506126d66000830184612381565b92915050565b60006126e66126f7565b90506126f28282612949565b919050565b6000604051905090565b600067ffffffffffffffff82111561271c5761271b612a81565b5b61272582612ab0565b9050602081019050919050565b600067ffffffffffffffff82111561274d5761274c612a81565b5b61275682612ab0565b9050602081019050919050565b600081519050919050565b600081519050919050565b600082825260208201905092915050565b600082825260208201905092915050565b600081905092915050565b60006127b1826128cb565b91506127bc836128cb565b9250827fffffffffffffffffffffffffffffffffffffffffffffffffffffffffffffffff038211156127f1576127f06129f4565b5b828201905092915050565b6000612807826128cb565b9150612812836128cb565b92508261282257612821612a23565b5b828204905092915050565b6000612838826128cb565b9150612843836128cb565b925082821015612856576128556129f4565b5b828203905092915050565b600061286c826128ab565b9050919050565b60008115159050919050565b60007fffffffff0000000000000000000000000000000000000000000000000000000082169050919050565b600073ffffffffffffffffffffffffffffffffffffffff82169050919050565b6000819050919050565b82818337600083830152505050565b60005b838110156129025780820151818401526020810190506128e7565b83811115612911576000848401525b50505050565b6000600282049050600182168061292f57607f821691505b6020821081141561294357612942612a52565b5b50919050565b61295282612ab0565b810181811067ffffffffffffffff8211171561297157612970612a81565b5b80604052505050565b6000612985826128cb565b91507fffffffffffffffffffffffffffffffffffffffffffffffffffffffffffffffff8214156129b8576129b76129f4565b5b600182019050919050565b60006129ce826128cb565b91506129d9836128cb565b9250826129e9576129e8612a23565b5b828206905092915050565b7f4e487b7100000000000000000000000000000000000000000000000000000000600052601160045260246000fd5b7f4e487b7100000000000000000000000000000000000000000000000000000000600052601260045260246000fd5b7f4e487b7100000000000000000000000000000000000000000000000000000000600052602260045260246000fd5b7f4e487b7100000000000000000000000000000000000000000000000000000000600052604160045260246000fd5b6000601f19601f8301169050919050565b7f4552433732313a207472616e7366657220746f206e6f6e20455243373231526560008201527f63656976657220696d706c656d656e7465720000000000000000000000000000602082015250565b7f4f776e61626c653a206e6577206f776e657220697320746865207a65726f206160008201527f6464726573730000000000000000000000000000000000000000000000000000602082015250565b7f4552433732313a207472616e736665722066726f6d20696e636f72726563742060008201527f6f776e6572000000000000000000000000000000000000000000000000000000602082015250565b7f4552433732313a20746f6b656e20616c7265616479206d696e74656400000000600082015250565b7f4552433732313a207472616e7366657220746f20746865207a65726f2061646460008201527f7265737300000000000000000000000000000000000000000000000000000000602082015250565b7f4552433732313a20617070726f766520746f2063616c6c657200000000000000600082015250565b7f4552433732313a206f70657261746f7220717565727920666f72206e6f6e657860008201527f697374656e7420746f6b656e0000000000000000000000000000000000000000602082015250565b7f4552433732313a20617070726f76652063616c6c6572206973206e6f74206f7760008201527f6e6572206e6f7220617070726f76656420666f7220616c6c0000000000000000602082015250565b7f4552433732313a2062616c616e636520717565727920666f7220746865207a6560008201527f726f206164647265737300000000000000000000000000000000000000000000602082015250565b7f4552433732313a206f776e657220717565727920666f72206e6f6e657869737460008201527f656e7420746f6b656e0000000000000000000000000000000000000000000000602082015250565b7f45524337323155524953746f726167653a2055524920736574206f66206e6f6e60008201527f6578697374656e7420746f6b656e000000000000000000000000000000000000602082015250565b7f4552433732313a206d696e7420746f20746865207a65726f2061646472657373600082015250565b7f45524337323155524953746f726167653a2055524920717565727920666f722060008201527f6e6f6e6578697374656e7420746f6b656e000000000000000000000000000000602082015250565b7f4552433732313a20617070726f76656420717565727920666f72206e6f6e657860008201527f697374656e7420746f6b656e0000000000000000000000000000000000000000602082015250565b7f4f776e61626c653a2063616c6c6572206973206e6f7420746865206f776e6572600082015250565b7f4552433732314d657461646174613a2055524920717565727920666f72206e6f60008201527f6e6578697374656e7420746f6b656e0000000000000000000000000000000000602082015250565b7f4552433732313a20617070726f76616c20746f2063757272656e74206f776e6560008201527f7200000000000000000000000000000000000000000000000000000000000000602082015250565b7f4552433732313a207472616e736665722063616c6c6572206973206e6f74206f60008201527f776e6572206e6f7220617070726f766564000000000000000000000000000000602082015250565b612fc081612861565b8114612fcb57600080fd5b50565b612fd781612873565b8114612fe257600080fd5b50565b612fee8161287f565b8114612ff957600080fd5b50565b613005816128cb565b811461301057600080fd5b5056fea264697066735822122037a004ce2307e25909409d83931d7e1e52357ef25492bd19006b43ce20551a1164736f6c63430008040033",
  "linkReferences": {},
  "deployedLinkReferences": {}
}