{
  "_format": "hh-sol-artifact-1",
  "contractName": "Store",
  "sourceName": "contracts/Store.sol",
  "abi": [
    {
      "inputs": [],
      "stateMutability": "nonpayable",
      "type": "constructor"
    },
    {
      "inputs": [
        {
          "internalType": "uint256",
          "name": "id",
          "type": "uint256"
        },
        {
          "internalType": "uint256",
          "name": "price",
          "type": "uint256"
        }
      ],
      "name": "addProduct",
      "outputs": [],
      "stateMutability": "nonpayable",
      "type": "function"
    },
    {
      "inputs": [
        {
          "internalType": "uint256",
          "name": "id",
          "type": "uint256"
        },
        {
          "internalType": "uint256",
          "name": "price",
          "type": "uint256"
        }
      ],
      "name": "changePrice",
      "outputs": [],
      "stateMutability": "nonpayable",
      "type": "function"
    },
    {
      "inputs": [],
      "name": "getAddress",
      "outputs": [
        {
          "internalType": "address",
          "name": "",
          "type": "address"
        }
      ],
      "stateMutability": "view",
      "type": "function"
    },
    {
      "inputs": [],
      "name": "getAllProducts",
      "outputs": [
        {
          "components": [
            {
              "internalType": "uint256",
              "name": "id",
              "type": "uint256"
            },
            {
              "internalType": "uint256",
              "name": "price",
              "type": "uint256"
            },
            {
              "internalType": "uint256",
              "name": "index",
              "type": "uint256"
            },
            {
              "internalType": "bool",
              "name": "forSale",
              "type": "bool"
            }
          ],
          "internalType": "struct Product[]",
          "name": "",
          "type": "tuple[]"
        }
      ],
      "stateMutability": "view",
      "type": "function"
    },
    {
      "inputs": [
        {
          "internalType": "uint256",
          "name": "id",
          "type": "uint256"
        }
      ],
      "name": "getPrice",
      "outputs": [
        {
          "internalType": "uint256",
          "name": "",
          "type": "uint256"
        }
      ],
      "stateMutability": "view",
      "type": "function"
    },
    {
      "inputs": [
        {
          "internalType": "uint256",
          "name": "id",
          "type": "uint256"
        }
      ],
      "name": "getProduct",
      "outputs": [
        {
          "components": [
            {
              "internalType": "uint256",
              "name": "id",
              "type": "uint256"
            },
            {
              "internalType": "uint256",
              "name": "price",
              "type": "uint256"
            },
            {
              "internalType": "uint256",
              "name": "index",
              "type": "uint256"
            },
            {
              "internalType": "bool",
              "name": "forSale",
              "type": "bool"
            }
          ],
          "internalType": "struct Product",
          "name": "",
          "type": "tuple"
        }
      ],
      "stateMutability": "view",
      "type": "function"
    },
    {
      "inputs": [
        {
          "internalType": "uint256",
          "name": "",
          "type": "uint256"
        }
      ],
      "name": "productIds",
      "outputs": [
        {
          "internalType": "uint256",
          "name": "",
          "type": "uint256"
        }
      ],
      "stateMutability": "view",
      "type": "function"
    },
    {
      "inputs": [
        {
          "internalType": "uint256",
          "name": "id",
          "type": "uint256"
        }
      ],
      "name": "removeProduct",
      "outputs": [],
      "stateMutability": "nonpayable",
      "type": "function"
    }
  ],
  "bytecode": "0x608060405234801561001057600080fd5b5033600160006101000a81548173ffffffffffffffffffffffffffffffffffffffff021916908373ffffffffffffffffffffffffffffffffffffffff160217905550610be2806100616000396000f3fe608060405234801561001057600080fd5b50600436106100885760003560e01c8063b3de019c1161005b578063b3de019c14610101578063b9db15b41461011d578063cb51bba91461014d578063e75722301461017d57610088565b806302ee3a521461008d57806338cc4831146100ab5780635ee95cae146100c95780638b692479146100e5575b600080fd5b6100956101ad565b6040516100a29190610a10565b60405180910390f35b6100b3610347565b6040516100c091906109f5565b60405180910390f35b6100e360048036038101906100de9190610834565b61034f565b005b6100ff60048036038101906100fa919061085d565b610586565b005b61011b6004803603810190610116919061085d565b6106a7565b005b61013760048036038101906101329190610834565b61074d565b6040516101449190610a32565b60405180910390f35b61016760048036038101906101629190610834565b6107b2565b6040516101749190610a4d565b60405180910390f35b61019760048036038101906101929190610834565b6107d6565b6040516101a49190610a4d565b60405180910390f35b60606000600280549050905060008167ffffffffffffffff8111156101fb577f4e487b7100000000000000000000000000000000000000000000000000000000600052604160045260246000fd5b60405190808252806020026020018201604052801561023457816020015b6102216107f5565b8152602001906001900390816102195790505b50905060005b60028054905081101561033e57600080600060028481548110610286577f4e487b7100000000000000000000000000000000000000000000000000000000600052603260045260246000fd5b906000526020600020015481526020019081526020016000206040518060800160405290816000820154815260200160018201548152602001600282015481526020016003820160009054906101000a900460ff16151515158152505090508083838151811061031f577f4e487b7100000000000000000000000000000000000000000000000000000000600052603260045260246000fd5b602002602001018190525050808061033690610b1d565b91505061023a565b50809250505090565b600030905090565b3373ffffffffffffffffffffffffffffffffffffffff16600160009054906101000a900473ffffffffffffffffffffffffffffffffffffffff1673ffffffffffffffffffffffffffffffffffffffff161415806103cc575060008082815260200190815260200160002060030160009054906101000a900460ff16155b156103d657610583565b6000806000838152602001908152602001600020600201549050600080600084815260200190815260200160002060030160006101000a81548160ff02191690831515021790555060016002805490506104309190610aa1565b8114610533576002600160028054905061044a9190610aa1565b81548110610481577f4e487b7100000000000000000000000000000000000000000000000000000000600052603260045260246000fd5b9060005260206000200154600282815481106104c6577f4e487b7100000000000000000000000000000000000000000000000000000000600052603260045260246000fd5b90600052602060002001819055508060008060028481548110610512577f4e487b7100000000000000000000000000000000000000000000000000000000600052603260045260246000fd5b90600052602060002001548152602001908152602001600020600201819055505b600280548061056b577f4e487b7100000000000000000000000000000000000000000000000000000000600052603160045260246000fd5b60019003818190600052602060002001600090559055505b50565b60008060008481526020019081526020016000206040518060800160405290816000820154815260200160018201548152602001600282015481526020016003820160009054906101000a900460ff16151515158152505090508060600151156105f057506106a3565b818160200181815250508281600001818152505060018160600190151590811515815250506002805490508160400181815250508060008085815260200190815260200160002060008201518160000155602082015181600101556040820151816002015560608201518160030160006101000a81548160ff0219169083151502179055509050506002839080600181540180825580915050600190039060005260206000200160009091909190915055505b5050565b3373ffffffffffffffffffffffffffffffffffffffff16600160009054906101000a900473ffffffffffffffffffffffffffffffffffffffff1673ffffffffffffffffffffffffffffffffffffffff16141580610724575060008083815260200190815260200160002060030160009054906101000a900460ff16155b1561072e57610749565b80600080848152602001908152602001600020600101819055505b5050565b6107556107f5565b6000808381526020019081526020016000206040518060800160405290816000820154815260200160018201548152602001600282015481526020016003820160009054906101000a900460ff1615151515815250509050919050565b600281815481106107c257600080fd5b906000526020600020016000915090505481565b6000806000838152602001908152602001600020600101549050919050565b60405180608001604052806000815260200160008152602001600081526020016000151581525090565b60008135905061082e81610b95565b92915050565b60006020828403121561084657600080fd5b60006108548482850161081f565b91505092915050565b6000806040838503121561087057600080fd5b600061087e8582860161081f565b925050602061088f8582860161081f565b9150509250929050565b60006108a5838361092d565b60808301905092915050565b6108ba81610ad5565b82525050565b60006108cb82610a78565b6108d58185610a90565b93506108e083610a68565b8060005b838110156109115781516108f88882610899565b975061090383610a83565b9250506001810190506108e4565b5085935050505092915050565b61092781610ae7565b82525050565b60808201600082015161094360008501826109d7565b50602082015161095660208501826109d7565b50604082015161096960408501826109d7565b50606082015161097c606085018261091e565b50505050565b60808201600082015161099860008501826109d7565b5060208201516109ab60208501826109d7565b5060408201516109be60408501826109d7565b5060608201516109d1606085018261091e565b50505050565b6109e081610b13565b82525050565b6109ef81610b13565b82525050565b6000602082019050610a0a60008301846108b1565b92915050565b60006020820190508181036000830152610a2a81846108c0565b905092915050565b6000608082019050610a476000830184610982565b92915050565b6000602082019050610a6260008301846109e6565b92915050565b6000819050602082019050919050565b600081519050919050565b6000602082019050919050565b600082825260208201905092915050565b6000610aac82610b13565b9150610ab783610b13565b925082821015610aca57610ac9610b66565b5b828203905092915050565b6000610ae082610af3565b9050919050565b60008115159050919050565b600073ffffffffffffffffffffffffffffffffffffffff82169050919050565b6000819050919050565b6000610b2882610b13565b91507fffffffffffffffffffffffffffffffffffffffffffffffffffffffffffffffff821415610b5b57610b5a610b66565b5b600182019050919050565b7f4e487b7100000000000000000000000000000000000000000000000000000000600052601160045260246000fd5b610b9e81610b13565b8114610ba957600080fd5b5056fea2646970667358221220fb3b2e73b4152d4ba15934b226581dc4783bf3092f34f9f38f89c99069d04b1d64736f6c63430008040033",
  "linkReferences": {},
  "deployedLinkReferences": {}
}