{
  "_format": "hh-sol-artifact-1",
  "contractName": "Token",
  "sourceName": "contracts/Token.sol",
  "abi": [
    {
      "inputs": [],
      "stateMutability": "nonpayable",
      "type": "constructor"
    },
    {
      "anonymous": false,
      "inputs": [
        {
          "indexed": true,
          "internalType": "address",
          "name": "owner",
          "type": "address"
        },
        {
          "indexed": true,
          "internalType": "address",
          "name": "spender",
          "type": "address"
        },
        {
          "indexed": false,
          "internalType": "uint256",
          "name": "value",
          "type": "uint256"
        }
      ],
      "name": "Approval",
      "type": "event"
    },
    {
      "anonymous": false,
      "inputs": [
        {
          "indexed": true,
          "internalType": "address",
          "name": "previousOwner",
          "type": "address"
        },
        {
          "indexed": true,
          "internalType": "address",
          "name": "newOwner",
          "type": "address"
        }
      ],
      "name": "OwnershipTransferred",
      "type": "event"
    },
    {
      "anonymous": false,
      "inputs": [
        {
          "indexed": true,
          "internalType": "address",
          "name": "from",
          "type": "address"
        },
        {
          "indexed": true,
          "internalType": "address",
          "name": "to",
          "type": "address"
        },
        {
          "indexed": false,
          "internalType": "uint256",
          "name": "value",
          "type": "uint256"
        }
      ],
      "name": "Transfer",
      "type": "event"
    },
    {
      "inputs": [
        {
          "internalType": "address",
          "name": "owner",
          "type": "address"
        },
        {
          "internalType": "address",
          "name": "spender",
          "type": "address"
        }
      ],
      "name": "allowance",
      "outputs": [
        {
          "internalType": "uint256",
          "name": "",
          "type": "uint256"
        }
      ],
      "stateMutability": "view",
      "type": "function"
    },
    {
      "inputs": [
        {
          "internalType": "address",
          "name": "spender",
          "type": "address"
        },
        {
          "internalType": "uint256",
          "name": "amount",
          "type": "uint256"
        }
      ],
      "name": "approve",
      "outputs": [
        {
          "internalType": "bool",
          "name": "",
          "type": "bool"
        }
      ],
      "stateMutability": "nonpayable",
      "type": "function"
    },
    {
      "inputs": [
        {
          "internalType": "address",
          "name": "account",
          "type": "address"
        }
      ],
      "name": "balanceOf",
      "outputs": [
        {
          "internalType": "uint256",
          "name": "",
          "type": "uint256"
        }
      ],
      "stateMutability": "view",
      "type": "function"
    },
    {
      "inputs": [
        {
          "internalType": "address",
          "name": "target",
          "type": "address"
        },
        {
          "internalType": "uint256",
          "name": "amount",
          "type": "uint256"
        }
      ],
      "name": "burn",
      "outputs": [
        {
          "internalType": "bool",
          "name": "",
          "type": "bool"
        }
      ],
      "stateMutability": "nonpayable",
      "type": "function"
    },
    {
      "inputs": [],
      "name": "decimals",
      "outputs": [
        {
          "internalType": "uint8",
          "name": "",
          "type": "uint8"
        }
      ],
      "stateMutability": "pure",
      "type": "function"
    },
    {
      "inputs": [
        {
          "internalType": "address",
          "name": "spender",
          "type": "address"
        },
        {
          "internalType": "uint256",
          "name": "subtractedValue",
          "type": "uint256"
        }
      ],
      "name": "decreaseAllowance",
      "outputs": [
        {
          "internalType": "bool",
          "name": "",
          "type": "bool"
        }
      ],
      "stateMutability": "nonpayable",
      "type": "function"
    },
    {
      "inputs": [],
      "name": "getAddress",
      "outputs": [
        {
          "internalType": "address",
          "name": "",
          "type": "address"
        }
      ],
      "stateMutability": "view",
      "type": "function"
    },
    {
      "inputs": [
        {
          "internalType": "address",
          "name": "spender",
          "type": "address"
        },
        {
          "internalType": "uint256",
          "name": "addedValue",
          "type": "uint256"
        }
      ],
      "name": "increaseAllowance",
      "outputs": [
        {
          "internalType": "bool",
          "name": "",
          "type": "bool"
        }
      ],
      "stateMutability": "nonpayable",
      "type": "function"
    },
    {
      "inputs": [
        {
          "internalType": "address",
          "name": "receiver",
          "type": "address"
        },
        {
          "internalType": "uint256",
          "name": "amount",
          "type": "uint256"
        }
      ],
      "name": "mint",
      "outputs": [
        {
          "internalType": "bool",
          "name": "",
          "type": "bool"
        }
      ],
      "stateMutability": "nonpayable",
      "type": "function"
    },
    {
      "inputs": [],
      "name": "name",
      "outputs": [
        {
          "internalType": "string",
          "name": "",
          "type": "string"
        }
      ],
      "stateMutability": "view",
      "type": "function"
    },
    {
      "inputs": [],
      "name": "owner",
      "outputs": [
        {
          "internalType": "address",
          "name": "",
          "type": "address"
        }
      ],
      "stateMutability": "view",
      "type": "function"
    },
    {
      "inputs": [],
      "name": "renounceOwnership",
      "outputs": [],
      "stateMutability": "nonpayable",
      "type": "function"
    },
    {
      "inputs": [],
      "name": "symbol",
      "outputs": [
        {
          "internalType": "string",
          "name": "",
          "type": "string"
        }
      ],
      "stateMutability": "view",
      "type": "function"
    },
    {
      "inputs": [],
      "name": "totalSupply",
      "outputs": [
        {
          "internalType": "uint256",
          "name": "",
          "type": "uint256"
        }
      ],
      "stateMutability": "view",
      "type": "function"
    },
    {
      "inputs": [
        {
          "internalType": "address",
          "name": "to",
          "type": "address"
        },
        {
          "internalType": "uint256",
          "name": "amount",
          "type": "uint256"
        }
      ],
      "name": "transfer",
      "outputs": [
        {
          "internalType": "bool",
          "name": "",
          "type": "bool"
        }
      ],
      "stateMutability": "nonpayable",
      "type": "function"
    },
    {
      "inputs": [
        {
          "internalType": "address",
          "name": "from",
          "type": "address"
        },
        {
          "internalType": "address",
          "name": "to",
          "type": "address"
        },
        {
          "internalType": "uint256",
          "name": "amount",
          "type": "uint256"
        }
      ],
      "name": "transferFrom",
      "outputs": [
        {
          "internalType": "bool",
          "name": "",
          "type": "bool"
        }
      ],
      "stateMutability": "nonpayable",
      "type": "function"
    },
    {
      "inputs": [
        {
          "internalType": "address",
          "name": "newOwner",
          "type": "address"
        }
      ],
      "name": "transferOwnership",
      "outputs": [],
      "stateMutability": "nonpayable",
      "type": "function"
    }
  ],
  "bytecode": "0x60806040523480156200001157600080fd5b506040518060400160405280600581526020017f546f6b656e0000000000000000000000000000000000000000000000000000008152506040518060400160405280600381526020017f544f4b00000000000000000000000000000000000000000000000000000000008152506200009e62000092620000d860201b60201c565b620000e060201b60201c565b8160049080519060200190620000b6929190620001a4565b508060059080519060200190620000cf929190620001a4565b505050620002b9565b600033905090565b60008060009054906101000a900473ffffffffffffffffffffffffffffffffffffffff169050816000806101000a81548173ffffffffffffffffffffffffffffffffffffffff021916908373ffffffffffffffffffffffffffffffffffffffff1602179055508173ffffffffffffffffffffffffffffffffffffffff168173ffffffffffffffffffffffffffffffffffffffff167f8be0079c531659141344cd1fd0a4f28419497f9722a3daafe3b4186f6b6457e060405160405180910390a35050565b828054620001b29062000254565b90600052602060002090601f016020900481019282620001d6576000855562000222565b82601f10620001f157805160ff191683800117855562000222565b8280016001018555821562000222579182015b828111156200022157825182559160200191906001019062000204565b5b50905062000231919062000235565b5090565b5b808211156200025057600081600090555060010162000236565b5090565b600060028204905060018216806200026d57607f821691505b602082108114156200028457620002836200028a565b5b50919050565b7f4e487b7100000000000000000000000000000000000000000000000000000000600052602260045260246000fd5b611d3a80620002c96000396000f3fe608060405234801561001057600080fd5b506004361061010b5760003560e01c806370a08231116100a25780639dc29fac116100715780639dc29fac146102be578063a457c2d7146102ee578063a9059cbb1461031e578063dd62ed3e1461034e578063f2fde38b1461037e5761010b565b806370a0823114610248578063715018a6146102785780638da5cb5b1461028257806395d89b41146102a05761010b565b8063313ce567116100de578063313ce567146101ac57806338cc4831146101ca57806339509351146101e857806340c10f19146102185761010b565b806306fdde0314610110578063095ea7b31461012e57806318160ddd1461015e57806323b872dd1461017c575b600080fd5b61011861039a565b60405161012591906115ed565b60405180910390f35b61014860048036038101906101439190611362565b61042c565b60405161015591906115d2565b60405180910390f35b61016661044f565b604051610173919061178f565b60405180910390f35b61019660048036038101906101919190611313565b610459565b6040516101a391906115d2565b60405180910390f35b6101b4610488565b6040516101c191906117aa565b60405180910390f35b6101d2610491565b6040516101df91906115b7565b60405180910390f35b61020260048036038101906101fd9190611362565b610499565b60405161020f91906115d2565b60405180910390f35b610232600480360381019061022d9190611362565b6104d0565b60405161023f91906115d2565b60405180910390f35b610262600480360381019061025d91906112ae565b610562565b60405161026f919061178f565b60405180910390f35b6102806105ab565b005b61028a610633565b60405161029791906115b7565b60405180910390f35b6102a861065c565b6040516102b591906115ed565b60405180910390f35b6102d860048036038101906102d39190611362565b6106ee565b6040516102e591906115d2565b60405180910390f35b61030860048036038101906103039190611362565b610780565b60405161031591906115d2565b60405180910390f35b61033860048036038101906103339190611362565b6107f7565b60405161034591906115d2565b60405180910390f35b610368600480360381019061036391906112d7565b61081a565b604051610375919061178f565b60405180910390f35b610398600480360381019061039391906112ae565b6108a1565b005b6060600480546103a9906118f3565b80601f01602080910402602001604051908101604052809291908181526020018280546103d5906118f3565b80156104225780601f106103f757610100808354040283529160200191610422565b820191906000526020600020905b81548152906001019060200180831161040557829003601f168201915b5050505050905090565b600080610437610999565b90506104448185856109a1565b600191505092915050565b6000600354905090565b600080610464610999565b9050610471858285610b6c565b61047c858585610bf8565b60019150509392505050565b60006012905090565b600030905090565b6000806104a4610999565b90506104c58185856104b6858961081a565b6104c091906117e1565b6109a1565b600191505092915050565b60006104da610999565b73ffffffffffffffffffffffffffffffffffffffff166104f8610633565b73ffffffffffffffffffffffffffffffffffffffff161461054e576040517f08c379a0000000000000000000000000000000000000000000000000000000008152600401610545906116cf565b60405180910390fd5b6105588383610e7c565b6001905092915050565b6000600160008373ffffffffffffffffffffffffffffffffffffffff1673ffffffffffffffffffffffffffffffffffffffff168152602001908152602001600020549050919050565b6105b3610999565b73ffffffffffffffffffffffffffffffffffffffff166105d1610633565b73ffffffffffffffffffffffffffffffffffffffff1614610627576040517f08c379a000000000000000000000000000000000000000000000000000000000815260040161061e906116cf565b60405180910390fd5b6106316000610fdd565b565b60008060009054906101000a900473ffffffffffffffffffffffffffffffffffffffff16905090565b60606005805461066b906118f3565b80601f0160208091040260200160405190810160405280929190818152602001828054610697906118f3565b80156106e45780601f106106b9576101008083540402835291602001916106e4565b820191906000526020600020905b8154815290600101906020018083116106c757829003601f168201915b5050505050905090565b60006106f8610999565b73ffffffffffffffffffffffffffffffffffffffff16610716610633565b73ffffffffffffffffffffffffffffffffffffffff161461076c576040517f08c379a0000000000000000000000000000000000000000000000000000000008152600401610763906116cf565b60405180910390fd5b61077683836110a1565b6001905092915050565b60008061078b610999565b90506000610799828661081a565b9050838110156107de576040517f08c379a00000000000000000000000000000000000000000000000000000000081526004016107d59061174f565b60405180910390fd5b6107eb82868684036109a1565b60019250505092915050565b600080610802610999565b905061080f818585610bf8565b600191505092915050565b6000600260008473ffffffffffffffffffffffffffffffffffffffff1673ffffffffffffffffffffffffffffffffffffffff16815260200190815260200160002060008373ffffffffffffffffffffffffffffffffffffffff1673ffffffffffffffffffffffffffffffffffffffff16815260200190815260200160002054905092915050565b6108a9610999565b73ffffffffffffffffffffffffffffffffffffffff166108c7610633565b73ffffffffffffffffffffffffffffffffffffffff161461091d576040517f08c379a0000000000000000000000000000000000000000000000000000000008152600401610914906116cf565b60405180910390fd5b600073ffffffffffffffffffffffffffffffffffffffff168173ffffffffffffffffffffffffffffffffffffffff16141561098d576040517f08c379a00000000000000000000000000000000000000000000000000000000081526004016109849061164f565b60405180910390fd5b61099681610fdd565b50565b600033905090565b600073ffffffffffffffffffffffffffffffffffffffff168373ffffffffffffffffffffffffffffffffffffffff161415610a11576040517f08c379a0000000000000000000000000000000000000000000000000000000008152600401610a089061172f565b60405180910390fd5b600073ffffffffffffffffffffffffffffffffffffffff168273ffffffffffffffffffffffffffffffffffffffff161415610a81576040517f08c379a0000000000000000000000000000000000000000000000000000000008152600401610a789061166f565b60405180910390fd5b80600260008573ffffffffffffffffffffffffffffffffffffffff1673ffffffffffffffffffffffffffffffffffffffff16815260200190815260200160002060008473ffffffffffffffffffffffffffffffffffffffff1673ffffffffffffffffffffffffffffffffffffffff168152602001908152602001600020819055508173ffffffffffffffffffffffffffffffffffffffff168373ffffffffffffffffffffffffffffffffffffffff167f8c5be1e5ebec7d5bd14f71427d1e84f3dd0314c0f7b2291e5b200ac8c7c3b92583604051610b5f919061178f565b60405180910390a3505050565b6000610b78848461081a565b90507fffffffffffffffffffffffffffffffffffffffffffffffffffffffffffffffff8114610bf25781811015610be4576040517f08c379a0000000000000000000000000000000000000000000000000000000008152600401610bdb9061168f565b60405180910390fd5b610bf184848484036109a1565b5b50505050565b600073ffffffffffffffffffffffffffffffffffffffff168373ffffffffffffffffffffffffffffffffffffffff161415610c68576040517f08c379a0000000000000000000000000000000000000000000000000000000008152600401610c5f9061170f565b60405180910390fd5b600073ffffffffffffffffffffffffffffffffffffffff168273ffffffffffffffffffffffffffffffffffffffff161415610cd8576040517f08c379a0000000000000000000000000000000000000000000000000000000008152600401610ccf9061160f565b60405180910390fd5b610ce383838361127a565b6000600160008573ffffffffffffffffffffffffffffffffffffffff1673ffffffffffffffffffffffffffffffffffffffff16815260200190815260200160002054905081811015610d6a576040517f08c379a0000000000000000000000000000000000000000000000000000000008152600401610d61906116af565b60405180910390fd5b818103600160008673ffffffffffffffffffffffffffffffffffffffff1673ffffffffffffffffffffffffffffffffffffffff1681526020019081526020016000208190555081600160008573ffffffffffffffffffffffffffffffffffffffff1673ffffffffffffffffffffffffffffffffffffffff1681526020019081526020016000206000828254610dff91906117e1565b925050819055508273ffffffffffffffffffffffffffffffffffffffff168473ffffffffffffffffffffffffffffffffffffffff167fddf252ad1be2c89b69c2b068fc378daa952ba7f163c4a11628f55a4df523b3ef84604051610e63919061178f565b60405180910390a3610e7684848461127f565b50505050565b600073ffffffffffffffffffffffffffffffffffffffff168273ffffffffffffffffffffffffffffffffffffffff161415610eec576040517f08c379a0000000000000000000000000000000000000000000000000000000008152600401610ee39061176f565b60405180910390fd5b610ef86000838361127a565b8060036000828254610f0a91906117e1565b9250508190555080600160008473ffffffffffffffffffffffffffffffffffffffff1673ffffffffffffffffffffffffffffffffffffffff1681526020019081526020016000206000828254610f6091906117e1565b925050819055508173ffffffffffffffffffffffffffffffffffffffff16600073ffffffffffffffffffffffffffffffffffffffff167fddf252ad1be2c89b69c2b068fc378daa952ba7f163c4a11628f55a4df523b3ef83604051610fc5919061178f565b60405180910390a3610fd96000838361127f565b5050565b60008060009054906101000a900473ffffffffffffffffffffffffffffffffffffffff169050816000806101000a81548173ffffffffffffffffffffffffffffffffffffffff021916908373ffffffffffffffffffffffffffffffffffffffff1602179055508173ffffffffffffffffffffffffffffffffffffffff168173ffffffffffffffffffffffffffffffffffffffff167f8be0079c531659141344cd1fd0a4f28419497f9722a3daafe3b4186f6b6457e060405160405180910390a35050565b600073ffffffffffffffffffffffffffffffffffffffff168273ffffffffffffffffffffffffffffffffffffffff161415611111576040517f08c379a0000000000000000000000000000000000000000000000000000000008152600401611108906116ef565b60405180910390fd5b61111d8260008361127a565b6000600160008473ffffffffffffffffffffffffffffffffffffffff1673ffffffffffffffffffffffffffffffffffffffff168152602001908152602001600020549050818110156111a4576040517f08c379a000000000000000000000000000000000000000000000000000000000815260040161119b9061162f565b60405180910390fd5b818103600160008573ffffffffffffffffffffffffffffffffffffffff1673ffffffffffffffffffffffffffffffffffffffff1681526020019081526020016000208190555081600360008282546111fc9190611837565b92505081905550600073ffffffffffffffffffffffffffffffffffffffff168373ffffffffffffffffffffffffffffffffffffffff167fddf252ad1be2c89b69c2b068fc378daa952ba7f163c4a11628f55a4df523b3ef84604051611261919061178f565b60405180910390a36112758360008461127f565b505050565b505050565b505050565b60008135905061129381611cd6565b92915050565b6000813590506112a881611ced565b92915050565b6000602082840312156112c057600080fd5b60006112ce84828501611284565b91505092915050565b600080604083850312156112ea57600080fd5b60006112f885828601611284565b925050602061130985828601611284565b9150509250929050565b60008060006060848603121561132857600080fd5b600061133686828701611284565b935050602061134786828701611284565b925050604061135886828701611299565b9150509250925092565b6000806040838503121561137557600080fd5b600061138385828601611284565b925050602061139485828601611299565b9150509250929050565b6113a78161186b565b82525050565b6113b68161187d565b82525050565b60006113c7826117c5565b6113d181856117d0565b93506113e18185602086016118c0565b6113ea81611983565b840191505092915050565b60006114026023836117d0565b915061140d82611994565b604082019050919050565b60006114256022836117d0565b9150611430826119e3565b604082019050919050565b60006114486026836117d0565b915061145382611a32565b604082019050919050565b600061146b6022836117d0565b915061147682611a81565b604082019050919050565b600061148e601d836117d0565b915061149982611ad0565b602082019050919050565b60006114b16026836117d0565b91506114bc82611af9565b604082019050919050565b60006114d46020836117d0565b91506114df82611b48565b602082019050919050565b60006114f76021836117d0565b915061150282611b71565b604082019050919050565b600061151a6025836117d0565b915061152582611bc0565b604082019050919050565b600061153d6024836117d0565b915061154882611c0f565b604082019050919050565b60006115606025836117d0565b915061156b82611c5e565b604082019050919050565b6000611583601f836117d0565b915061158e82611cad565b602082019050919050565b6115a2816118a9565b82525050565b6115b1816118b3565b82525050565b60006020820190506115cc600083018461139e565b92915050565b60006020820190506115e760008301846113ad565b92915050565b6000602082019050818103600083015261160781846113bc565b905092915050565b60006020820190508181036000830152611628816113f5565b9050919050565b6000602082019050818103600083015261164881611418565b9050919050565b600060208201905081810360008301526116688161143b565b9050919050565b600060208201905081810360008301526116888161145e565b9050919050565b600060208201905081810360008301526116a881611481565b9050919050565b600060208201905081810360008301526116c8816114a4565b9050919050565b600060208201905081810360008301526116e8816114c7565b9050919050565b60006020820190508181036000830152611708816114ea565b9050919050565b600060208201905081810360008301526117288161150d565b9050919050565b6000602082019050818103600083015261174881611530565b9050919050565b6000602082019050818103600083015261176881611553565b9050919050565b6000602082019050818103600083015261178881611576565b9050919050565b60006020820190506117a46000830184611599565b92915050565b60006020820190506117bf60008301846115a8565b92915050565b600081519050919050565b600082825260208201905092915050565b60006117ec826118a9565b91506117f7836118a9565b9250827fffffffffffffffffffffffffffffffffffffffffffffffffffffffffffffffff0382111561182c5761182b611925565b5b828201905092915050565b6000611842826118a9565b915061184d836118a9565b9250828210156118605761185f611925565b5b828203905092915050565b600061187682611889565b9050919050565b60008115159050919050565b600073ffffffffffffffffffffffffffffffffffffffff82169050919050565b6000819050919050565b600060ff82169050919050565b60005b838110156118de5780820151818401526020810190506118c3565b838111156118ed576000848401525b50505050565b6000600282049050600182168061190b57607f821691505b6020821081141561191f5761191e611954565b5b50919050565b7f4e487b7100000000000000000000000000000000000000000000000000000000600052601160045260246000fd5b7f4e487b7100000000000000000000000000000000000000000000000000000000600052602260045260246000fd5b6000601f19601f8301169050919050565b7f45524332303a207472616e7366657220746f20746865207a65726f206164647260008201527f6573730000000000000000000000000000000000000000000000000000000000602082015250565b7f45524332303a206275726e20616d6f756e7420657863656564732062616c616e60008201527f6365000000000000000000000000000000000000000000000000000000000000602082015250565b7f4f776e61626c653a206e6577206f776e657220697320746865207a65726f206160008201527f6464726573730000000000000000000000000000000000000000000000000000602082015250565b7f45524332303a20617070726f766520746f20746865207a65726f20616464726560008201527f7373000000000000000000000000000000000000000000000000000000000000602082015250565b7f45524332303a20696e73756666696369656e7420616c6c6f77616e6365000000600082015250565b7f45524332303a207472616e7366657220616d6f756e742065786365656473206260008201527f616c616e63650000000000000000000000000000000000000000000000000000602082015250565b7f4f776e61626c653a2063616c6c6572206973206e6f7420746865206f776e6572600082015250565b7f45524332303a206275726e2066726f6d20746865207a65726f2061646472657360008201527f7300000000000000000000000000000000000000000000000000000000000000602082015250565b7f45524332303a207472616e736665722066726f6d20746865207a65726f20616460008201527f6472657373000000000000000000000000000000000000000000000000000000602082015250565b7f45524332303a20617070726f76652066726f6d20746865207a65726f2061646460008201527f7265737300000000000000000000000000000000000000000000000000000000602082015250565b7f45524332303a2064656372656173656420616c6c6f77616e63652062656c6f7760008201527f207a65726f000000000000000000000000000000000000000000000000000000602082015250565b7f45524332303a206d696e7420746f20746865207a65726f206164647265737300600082015250565b611cdf8161186b565b8114611cea57600080fd5b50565b611cf6816118a9565b8114611d0157600080fd5b5056fea26469706673582212202e133708982a0697d3bd3f6fb70e3455a42470489e29f6180c7e1d144d5b6b8964736f6c63430008040033",
  "linkReferences": {},
  "deployedLinkReferences": {}
}